{"contracts/identity/DIDRegistry.sol":{"DIDRegistry":{"abi":[{"inputs":[{"internalType":"address","name":"workToken_","type":"address"},{"internalType":"address","name":"admin","type":"address"}],"stateMutability":"nonpayable","type":"constructor"},{"anonymous":false,"inputs":[{"indexed":true,"internalType":"address","name":"identity","type":"address"},{"indexed":true,"internalType":"bytes32","name":"name","type":"bytes32"},{"indexed":false,"internalType":"bytes","name":"value","type":"bytes"},{"indexed":false,"internalType":"uint256","name":"validity","type":"uint256"}],"name":"AttributeChanged","type":"event"},{"anonymous":false,"inputs":[{"indexed":true,"internalType":"address","name":"agent","type":"address"},{"indexed":false,"internalType":"int256","name":"delta","type":"int256"},{"indexed":false,"internalType":"uint256","name":"newScore","type":"uint256"}],"name":"CreditUpdated","type":"event"},{"anonymous":false,"inputs":[{"indexed":true,"internalType":"address","name":"agent","type":"address"},{"indexed":false,"internalType":"uint256","name":"stake","type":"uint256"},{"indexed":false,"internalType":"uint256","name":"timestamp","type":"uint256"}],"name":"DIDRegistered","type":"event"},{"anonymous":false,"inputs":[{"indexed":true,"internalType":"address","name":"agent","type":"address"},{"indexed":false,"internalType":"uint256","name":"stakeReturned","type":"uint256"}],"name":"DIDRevoked","type":"event"},{"anonymous":false,"inputs":[{"indexed":true,"internalType":"address","name":"identity","type":"address"},{"indexed":true,"internalType":"address","name":"delegate","type":"address"},{"indexed":false,"internalType":"uint256","name":"validity","type":"uint256"}],"name":"DelegateChanged","type":"event"},{"anonymous":false,"inputs":[{"indexed":false,"internalType":"address","name":"account","type":"address"}],"name":"Paused","type":"event"},{"anonymous":false,"inputs":[{"indexed":true,"internalType":"bytes32","name":"role","type":"bytes32"},{"indexed":true,"internalType":"bytes32","name":"previousAdminRole","type":"bytes32"},{"indexed":true,"internalType":"bytes32","name":"newAdminRole","type":"bytes32"}],"name":"RoleAdminChanged","type":"event"},{"anonymous":false,"inputs":[{"indexed":true,"internalType":"bytes32","name":"role","type":"bytes32"},{"indexed":true,"internalType":"address","name":"account","type":"address"},{"indexed":true,"internalType":"address","name":"sender","type":"address"}],"name":"RoleGranted","type":"event"},{"anonymous":false,"inputs":[{"indexed":true,"internalType":"bytes32","name":"role","type":"bytes32"},{"indexed":true,"internalType":"address","name":"account","type":"address"},{"indexed":true,"internalType":"address","name":"sender","type":"address"}],"name":"RoleRevoked","type":"event"},{"anonymous":false,"inputs":[{"indexed":false,"internalType":"address","name":"account","type":"address"}],"name":"Unpaused","type":"event"},{"inputs":[],"name":"DEFAULT_ADMIN_ROLE","outputs":[{"internalType":"bytes32","name":"","type":"bytes32"}],"stateMutability":"view","type":"function"},{"inputs":[],"name":"MIN_STAKE","outputs":[{"internalType":"uint256","name":"","type":"uint256"}],"stateMutability":"view","type":"function"},{"inputs":[],"name":"PAUSER_ROLE","outputs":[{"internalType":"bytes32","name":"","type":"bytes32"}],"stateMutability":"view","type":"function"},{"inputs":[],"name":"SLASHER_ROLE","outputs":[{"internalType":"bytes32","name":"","type":"bytes32"}],"stateMutability":"view","type":"function"},{"inputs":[{"internalType":"address","name":"","type":"address"}],"name":"delegates","outputs":[{"internalType":"address","name":"","type":"address"}],"stateMutability":"view","type":"function"},{"inputs":[{"internalType":"address","name":"","type":"address"}],"name":"dids","outputs":[{"internalType":"bool","name":"active","type":"bool"},{"internalType":"uint256","name":"stakedAmount","type":"uint256"},{"internalType":"uint256","name":"registeredAt","type":"uint256"},{"internalType":"uint256","name":"creditScore","type":"uint256"},{"internalType":"string","name":"controller","type":"string"}],"stateMutability":"view","type":"function"},{"inputs":[{"internalType":"address","name":"agent","type":"address"}],"name":"getCreditScore","outputs":[{"internalType":"uint256","name":"","type":"uint256"}],"stateMutability":"view","type":"function"},{"inputs":[{"internalType":"bytes32","name":"role","type":"bytes32"}],"name":"getRoleAdmin","outputs":[{"internalType":"bytes32","name":"","type":"bytes32"}],"stateMutability":"view","type":"function"},{"inputs":[{"internalType":"address","name":"agent","type":"address"}],"name":"getStake","outputs":[{"internalType":"uint256","name":"","type":"uint256"}],"stateMutability":"view","type":"function"},{"inputs":[{"internalType":"bytes32","name":"role","type":"bytes32"},{"internalType":"address","name":"account","type":"address"}],"name":"grantRole","outputs":[],"stateMutability":"nonpayable","type":"function"},{"inputs":[{"internalType":"bytes32","name":"role","type":"bytes32"},{"internalType":"address","name":"account","type":"address"}],"name":"hasRole","outputs":[{"internalType":"bool","name":"","type":"bool"}],"stateMutability":"view","type":"function"},{"inputs":[{"internalType":"address","name":"agent","type":"address"}],"name":"isValid","outputs":[{"internalType":"bool","name":"","type":"bool"}],"stateMutability":"view","type":"function"},{"inputs":[],"name":"pause","outputs":[],"stateMutability":"nonpayable","type":"function"},{"inputs":[],"name":"paused","outputs":[{"internalType":"bool","name":"","type":"bool"}],"stateMutability":"view","type":"function"},{"inputs":[{"internalType":"uint256","name":"stakeAmount","type":"uint256"}],"name":"registerDID","outputs":[],"stateMutability":"nonpayable","type":"function"},{"inputs":[{"internalType":"bytes32","name":"role","type":"bytes32"},{"internalType":"address","name":"account","type":"address"}],"name":"renounceRole","outputs":[],"stateMutability":"nonpayable","type":"function"},{"inputs":[],"name":"revokeDID","outputs":[],"stateMutability":"nonpayable","type":"function"},{"inputs":[{"internalType":"bytes32","name":"role","type":"bytes32"},{"internalType":"address","name":"account","type":"address"}],"name":"revokeRole","outputs":[],"stateMutability":"nonpayable","type":"function"},{"inputs":[{"internalType":"bytes32","name":"name","type":"bytes32"},{"internalType":"bytes","name":"value","type":"bytes"},{"internalType":"uint256","name":"validity","type":"uint256"}],"name":"setAttribute","outputs":[],"stateMutability":"nonpayable","type":"function"},{"inputs":[{"internalType":"address","name":"identity","type":"address"},{"internalType":"address","name":"delegate","type":"address"},{"internalType":"uint256","name":"validity","type":"uint256"}],"name":"setDelegate","outputs":[],"stateMutability":"nonpayable","type":"function"},{"inputs":[{"internalType":"address","name":"agent","type":"address"},{"internalType":"uint256","name":"basisPoints","type":"uint256"},{"internalType":"string","name":"reason","type":"string"}],"name":"slashStake","outputs":[],"stateMutability":"nonpayable","type":"function"},{"inputs":[{"internalType":"bytes4","name":"interfaceId","type":"bytes4"}],"name":"supportsInterface","outputs":[{"internalType":"bool","name":"","type":"bool"}],"stateMutability":"view","type":"function"},{"inputs":[],"name":"totalActiveDIDs","outputs":[{"internalType":"uint256","name":"","type":"uint256"}],"stateMutability":"view","type":"function"},{"inputs":[],"name":"unpause","outputs":[],"stateMutability":"nonpayable","type":"function"},{"inputs":[{"internalType":"address","name":"agent","type":"address"},{"internalType":"int256","name":"delta","type":"int256"}],"name":"updateCredit","outputs":[],"stateMutability":"nonpayable","type":"function"},{"inputs":[],"name":"workToken","outputs":[{"internalType":"contract WorkToken","name":"","type":"address"}],"stateMutability":"view","type":"function"}],"evm":{"bytecode":{"linkReferences":{},"object":"60a06040523480156200001157600080fd5b506040516200199c3803806200199c833981016040819052620000349162000176565b6001805460ff191690556001600160a01b03821660805262000058600082620000b8565b620000847f65d7a28e3265b37a6474929f336521b332c1681b933f6cb9f3376673440d862a82620000b8565b620000b07f12b42e8a160f6064dc959c6f251e3af0750ad213dbecf573b4710d67d6c28e3982620000b8565b5050620001ae565b6000828152602081815260408083206001600160a01b038516845290915290205460ff1662000155576000828152602081815260408083206001600160a01b03851684529091529020805460ff19166001179055620001143390565b6001600160a01b0316816001600160a01b0316837f2f8788117e7eff1d82e926ec794901d17c78024a50270940304540a733656f0d60405160405180910390a45b5050565b80516001600160a01b03811681146200017157600080fd5b919050565b600080604083850312156200018a57600080fd5b620001958362000159565b9150620001a56020840162000159565b90509250929050565b6080516117bd620001df6000396000818161023d0152818161052f015281816109360152610ab701526117bd6000f3fe608060405234801561001057600080fd5b506004361061018e5760003560e01c80638456cb59116100de578063cb1c2b5c11610097578063d547741f11610071578063d547741f146103db578063d862913f146103ee578063e3a0a45714610401578063e63ab1e91461041457600080fd5b8063cb1c2b5c1461038c578063d1af37a01461039c578063d3dd2bdf146103af57600080fd5b80638456cb591461032c5780638b1b925f1461033457806391d14854146103605780639790874c14610373578063a217fddf1461037b578063c6ecc9941461038357600080fd5b806336568abe1161014b5780635095af64116101255780635095af64146102a5578063587cde1e146102cc5780635c975abb146102f55780637a7664601461030057600080fd5b806336568abe146102775780633f4ba83a1461028a5780634bcee9e81461029257600080fd5b806301ffc9a7146101935780630cedba7b146101bb578063248a9ca3146101d05780632f2ff15d146102015780633593f81b14610214578063360e682314610238575b600080fd5b6101a66101a1366004611175565b61043b565b60405190151581526020015b60405180910390f35b6101ce6101c9366004611204565b610472565b005b6101f36101de36600461125e565b60009081526020819052604090206001015490565b6040519081526020016101b2565b6101ce61020f366004611277565b6105a5565b6102276102223660046112a3565b6105cf565b6040516101b295949392919061130e565b61025f7f000000000000000000000000000000000000000000000000000000000000000081565b6040516001600160a01b0390911681526020016101b2565b6101ce610285366004611277565b61068e565b6101ce61070c565b6101ce6102a0366004611346565b610741565b6101f37f12b42e8a160f6064dc959c6f251e3af0750ad213dbecf573b4710d67d6c28e3981565b61025f6102da3660046112a3565b6003602052600090815260409020546001600160a01b031681565b60015460ff166101a6565b6101f361030e3660046112a3565b6001600160a01b031660009081526002602052604090206001015490565b6101ce61085f565b6101a66103423660046112a3565b6001600160a01b031660009081526002602052604090205460ff1690565b6101a661036e366004611277565b610891565b6101ce6108ba565b6101f3600081565b6101f360045481565b6101f368056bc75e2d6310000081565b6101ce6103aa36600461125e565b6109e5565b6101f36103bd3660046112a3565b6001600160a01b031660009081526002602052604090206003015490565b6101ce6103e9366004611277565b610c03565b6101ce6103fc366004611370565b610c28565b6101ce61040f3660046113c3565b610ca3565b6101f37f65d7a28e3265b37a6474929f336521b332c1681b933f6cb9f3376673440d862a81565b60006001600160e01b03198216637965db0b60e01b148061046c57506301ffc9a760e01b6001600160e01b03198316145b92915050565b7f12b42e8a160f6064dc959c6f251e3af0750ad213dbecf573b4710d67d6c28e3961049c81610d56565b6001600160a01b0385166000908152600260205260409020805460ff166104de5760405162461bcd60e51b81526004016104d5906113ff565b60405180910390fd5b60006127108683600101546104f3919061143d565b6104fd9190611454565b9050808260010160008282546105139190611476565b90915550506040516333c59f7160e11b81526001600160a01b037f0000000000000000000000000000000000000000000000000000000000000000169063678b3ee29061056a90309085908a908a906004016114b2565b600060405180830381600087803b15801561058457600080fd5b505af1158015610598573d6000803e3d6000fd5b5050505050505050505050565b6000828152602081905260409020600101546105c081610d56565b6105ca8383610d60565b505050565b60026020819052600091825260409091208054600182015492820154600383015460048401805460ff9094169594929391929161060b906114e4565b80601f0160208091040260200160405190810160405280929190818152602001828054610637906114e4565b80156106845780601f1061065957610100808354040283529160200191610684565b820191906000526020600020905b81548152906001019060200180831161066757829003601f168201915b5050505050905085565b6001600160a01b03811633146106fe5760405162461bcd60e51b815260206004820152602f60248201527f416363657373436f6e74726f6c3a2063616e206f6e6c792072656e6f756e636560448201526e103937b632b9903337b91039b2b63360891b60648201526084016104d5565b6107088282610de4565b5050565b7f65d7a28e3265b37a6474929f336521b332c1681b933f6cb9f3376673440d862a61073681610d56565b61073e610e49565b50565b7f12b42e8a160f6064dc959c6f251e3af0750ad213dbecf573b4710d67d6c28e3961076b81610d56565b6001600160a01b0383166000908152600260205260409020805460ff166107a45760405162461bcd60e51b81526004016104d5906113ff565b60038101546000841280156107c15750806107be8561151e565b10155b156107d25760006003830155610808565b60008412156107f8576107e48461151e565b6107ee9082611476565b6003830155610808565b610802848261153a565b60038301555b846001600160a01b03167f2a282323d08fb25de72cd7bcff98bf467983c2b0aa116587d336812caa8846ba858460030154604051610850929190918252602082015260400190565b60405180910390a25050505050565b7f65d7a28e3265b37a6474929f336521b332c1681b933f6cb9f3376673440d862a61088981610d56565b61073e610e9b565b6000918252602082815260408084206001600160a01b0393909316845291905290205460ff1690565b6108c2610ed6565b336000908152600260205260409020805460ff166108f25760405162461bcd60e51b81526004016104d5906113ff565b600181018054825460ff191683556000918290556004805491926109158361154d565b909155505060405163a9059cbb60e01b8152336004820152602481018290527f00000000000000000000000000000000000000000000000000000000000000006001600160a01b03169063a9059cbb906044016020604051808303816000875af1158015610987573d6000803e3d6000fd5b505050506040513d601f19601f820116820180604052508101906109ab9190611564565b5060405181815233907f9a093ae7c73f311f6bbfd4a53f263429e0a5ab016999d72403ff7bcaa81e270f9060200160405180910390a25050565b6109ed610ed6565b3360009081526002602052604090205460ff1615610a465760405162461bcd60e51b815260206004820152601660248201527511125108185b1c9958591e481c9959da5cdd195c995960521b60448201526064016104d5565b68056bc75e2d63100000811015610a955760405162461bcd60e51b81526020600482015260136024820152725374616b652062656c6f77206d696e696d756d60681b60448201526064016104d5565b6040516323b872dd60e01b8152336004820152306024820152604481018290527f00000000000000000000000000000000000000000000000000000000000000006001600160a01b0316906323b872dd906064016020604051808303816000875af1158015610b08573d6000803e3d6000fd5b505050506040513d601f19601f82011682018060405250810190610b2c9190611564565b506040805160a081018252600180825260208083018581524284860190815260646060860190815286518085018852600080825260808801918252338152600295869052979097208651815460ff191690151517815592519483019490945551918101919091559051600382015591519091906004820190610bae90826115ec565b50506004805491506000610bc1836116ac565b90915550506040805182815242602082015233917fb5dc1fb50662e9941e159c6ede09c662676630a7f57dab7f1bb6974deed0c979910160405180910390a250565b600082815260208190526040902060010154610c1e81610d56565b6105ca8383610de4565b3360009081526002602052604090205460ff16610c575760405162461bcd60e51b81526004016104d5906113ff565b83336001600160a01b03167fefc1bdf97aea8c7af552221d1cfbf0c8c31bd4e57a28007d05e5a32e0236bb55858585604051610c95939291906116c5565b60405180910390a350505050565b336001600160a01b03841614610cf05760405162461bcd60e51b81526020600482015260126024820152712737ba1034b232b73a34ba3c9037bbb732b960711b60448201526064016104d5565b6001600160a01b0383811660008181526003602090815260409182902080546001600160a01b031916948716948517905590518481527f207b6f0645271bb37aa1924037603b5d8c31d32b6dd6b0e4f5f1c2d039c25348910160405180910390a3505050565b61073e8133610f1e565b610d6a8282610891565b610708576000828152602081815260408083206001600160a01b03851684529091529020805460ff19166001179055610da03390565b6001600160a01b0316816001600160a01b0316837f2f8788117e7eff1d82e926ec794901d17c78024a50270940304540a733656f0d60405160405180910390a45050565b610dee8282610891565b15610708576000828152602081815260408083206001600160a01b0385168085529252808320805460ff1916905551339285917ff6391f5c32d9c69d2a47ea670b442974b53935d1edc7fd64eb21e047a839171b9190a45050565b610e51610f77565b6001805460ff191690557f5db9ee0a495bf2e6ff9c91a7834c1ba4fdd244a5e8aa4e537bd38aeae4b073aa335b6040516001600160a01b03909116815260200160405180910390a1565b610ea3610ed6565b6001805460ff1916811790557f62e78cea01bee320cd4e420270b5ea74000d11b0c9f74754ebdbfc544b05a25833610e7e565b60015460ff1615610f1c5760405162461bcd60e51b815260206004820152601060248201526f14185d5cd8589b194e881c185d5cd95960821b60448201526064016104d5565b565b610f288282610891565b61070857610f3581610fc0565b610f40836020610fd2565b604051602001610f519291906116e9565b60408051601f198184030181529082905262461bcd60e51b82526104d59160040161175e565b60015460ff16610f1c5760405162461bcd60e51b815260206004820152601460248201527314185d5cd8589b194e881b9bdd081c185d5cd95960621b60448201526064016104d5565b606061046c6001600160a01b03831660145b60606000610fe183600261143d565b610fec90600261153a565b67ffffffffffffffff81111561100457611004611586565b6040519080825280601f01601f19166020018201604052801561102e576020820181803683370190505b509050600360fc1b8160008151811061104957611049611771565b60200101906001600160f81b031916908160001a905350600f60fb1b8160018151811061107857611078611771565b60200101906001600160f81b031916908160001a905350600061109c84600261143d565b6110a790600161153a565b90505b600181111561111f576f181899199a1a9b1b9c1cb0b131b232b360811b85600f16601081106110db576110db611771565b1a60f81b8282815181106110f1576110f1611771565b60200101906001600160f81b031916908160001a90535060049490941c936111188161154d565b90506110aa565b50831561116e5760405162461bcd60e51b815260206004820181905260248201527f537472696e67733a20686578206c656e67746820696e73756666696369656e7460448201526064016104d5565b9392505050565b60006020828403121561118757600080fd5b81356001600160e01b03198116811461116e57600080fd5b80356001600160a01b03811681146111b657600080fd5b919050565b60008083601f8401126111cd57600080fd5b50813567ffffffffffffffff8111156111e557600080fd5b6020830191508360208285010111156111fd57600080fd5b9250929050565b6000806000806060858703121561121a57600080fd5b6112238561119f565b935060208501359250604085013567ffffffffffffffff81111561124657600080fd5b611252878288016111bb565b95989497509550505050565b60006020828403121561127057600080fd5b5035919050565b6000806040838503121561128a57600080fd5b8235915061129a6020840161119f565b90509250929050565b6000602082840312156112b557600080fd5b61116e8261119f565b60005b838110156112d95781810151838201526020016112c1565b50506000910152565b600081518084526112fa8160208601602086016112be565b601f01601f19169290920160200192915050565b851515815284602082015283604082015282606082015260a06080820152600061133b60a08301846112e2565b979650505050505050565b6000806040838503121561135957600080fd5b6113628361119f565b946020939093013593505050565b6000806000806060858703121561138657600080fd5b84359350602085013567ffffffffffffffff8111156113a457600080fd5b6113b0878288016111bb565b9598909750949560400135949350505050565b6000806000606084860312156113d857600080fd5b6113e18461119f565b92506113ef6020850161119f565b9150604084013590509250925092565b6020808252600e908201526d444944206e6f742061637469766560901b604082015260600190565b634e487b7160e01b600052601160045260246000fd5b808202811582820484141761046c5761046c611427565b60008261147157634e487b7160e01b600052601260045260246000fd5b500490565b8181038181111561046c5761046c611427565b81835281816020850137506000828201602090810191909152601f909101601f19169091010190565b60018060a01b03851681528360208201526060604082015260006114da606083018486611489565b9695505050505050565b600181811c908216806114f857607f821691505b60208210810361151857634e487b7160e01b600052602260045260246000fd5b50919050565b6000600160ff1b820161153357611533611427565b5060000390565b8082018082111561046c5761046c611427565b60008161155c5761155c611427565b506000190190565b60006020828403121561157657600080fd5b8151801515811461116e57600080fd5b634e487b7160e01b600052604160045260246000fd5b601f8211156105ca576000816000526020600020601f850160051c810160208610156115c55750805b601f850160051c820191505b818110156115e4578281556001016115d1565b505050505050565b815167ffffffffffffffff81111561160657611606611586565b61161a8161161484546114e4565b8461159c565b602080601f83116001811461164f57600084156116375750858301515b600019600386901b1c1916600185901b1785556115e4565b600085815260208120601f198616915b8281101561167e5788860151825594840194600190910190840161165f565b508582101561169c5787850151600019600388901b60f8161c191681555b5050505050600190811b01905550565b6000600182016116be576116be611427565b5060010190565b6040815260006116d9604083018587611489565b9050826020830152949350505050565b7f416363657373436f6e74726f6c3a206163636f756e74200000000000000000008152600083516117218160178501602088016112be565b7001034b99036b4b9b9b4b733903937b6329607d1b60179184019182015283516117528160288401602088016112be565b01602801949350505050565b60208152600061116e60208301846112e2565b634e487b7160e01b600052603260045260246000fdfea26469706673582212200ebe87a23a6f3f63d8dc472d33567b04066d11a1192fee5f02133d377f8f82ee64736f6c63430008180033","opcodes":"PUSH1 0xA0 PUSH1 0x40 MSTORE CALLVALUE DUP1 ISZERO PUSH3 0x11 JUMPI PUSH1 0x0 DUP1 REVERT JUMPDEST POP PUSH1 0x40 MLOAD PUSH3 0x199C CODESIZE SUB DUP1 PUSH3 0x199C DUP4 CODECOPY DUP2 ADD PUSH1 0x40 DUP2 SWAP1 MSTORE PUSH3 0x34 SWAP2 PUSH3 0x176 JUMP JUMPDEST PUSH1 0x1 DUP1 SLOAD PUSH1 0xFF NOT AND SWAP1 SSTORE PUSH1 0x1 PUSH1 0x1 PUSH1 0xA0 SHL SUB DUP3 AND PUSH1 0x80 MSTORE PUSH3 0x58 PUSH1 0x0 DUP3 PUSH3 0xB8 JUMP JUMPDEST PUSH3 0x84 PUSH32 0x65D7A28E3265B37A6474929F336521B332C1681B933F6CB9F3376673440D862A DUP3 PUSH3 0xB8 JUMP JUMPDEST PUSH3 0xB0 PUSH32 0x12B42E8A160F6064DC959C6F251E3AF0750AD213DBECF573B4710D67D6C28E39 DUP3 PUSH3 0xB8 JUMP JUMPDEST POP POP PUSH3 0x1AE JUMP JUMPDEST PUSH1 0x0 DUP3 DUP2 MSTORE PUSH1 0x20 DUP2 DUP2 MSTORE PUSH1 0x40 DUP1 DUP4 KECCAK256 PUSH1 0x1 PUSH1 0x1 PUSH1 0xA0 SHL SUB DUP6 AND DUP5 MSTORE SWAP1 SWAP2 MSTORE SWAP1 KECCAK256 SLOAD PUSH1 0xFF AND PUSH3 0x155 JUMPI PUSH1 0x0 DUP3 DUP2 MSTORE PUSH1 0x20 DUP2 DUP2 MSTORE PUSH1 0x40 DUP1 DUP4 KECCAK256 PUSH1 0x1 PUSH1 0x1 PUSH1 0xA0 SHL SUB DUP6 AND DUP5 MSTORE SWAP1 SWAP2 MSTORE SWAP1 KECCAK256 DUP1 SLOAD PUSH1 0xFF NOT AND PUSH1 0x1 OR SWAP1 SSTORE PUSH3 0x114 CALLER SWAP1 JUMP JUMPDEST PUSH1 0x1 PUSH1 0x1 PUSH1 0xA0 SHL SUB AND DUP2 PUSH1 0x1 PUSH1 0x1 PUSH1 0xA0 SHL SUB AND DUP4 PUSH32 0x2F8788117E7EFF1D82E926EC794901D17C78024A50270940304540A733656F0D PUSH1 0x40 MLOAD PUSH1 0x40 MLOAD DUP1 SWAP2 SUB SWAP1 LOG4 JUMPDEST POP POP JUMP JUMPDEST DUP1 MLOAD PUSH1 0x1 PUSH1 0x1 PUSH1 0xA0 SHL SUB DUP2 AND DUP2 EQ PUSH3 0x171 JUMPI PUSH1 0x0 DUP1 REVERT JUMPDEST SWAP2 SWAP1 POP JUMP JUMPDEST PUSH1 0x0 DUP1 PUSH1 0x40 DUP4 DUP6 SUB SLT ISZERO PUSH3 0x18A JUMPI PUSH1 0x0 DUP1 REVERT JUMPDEST PUSH3 0x195 DUP4 PUSH3 0x159 JUMP JUMPDEST SWAP2 POP PUSH3 0x1A5 PUSH1 0x20 DUP5 ADD PUSH3 0x159 JUMP JUMPDEST SWAP1 POP SWAP3 POP SWAP3 SWAP1 POP JUMP JUMPDEST PUSH1 0x80 MLOAD PUSH2 0x17BD PUSH3 0x1DF PUSH1 0x0 CODECOPY PUSH1 0x0 DUP2 DUP2 PUSH2 0x23D ADD MSTORE DUP2 DUP2 PUSH2 0x52F ADD MSTORE DUP2 DUP2 PUSH2 0x936 ADD MSTORE PUSH2 0xAB7 ADD MSTORE PUSH2 0x17BD PUSH1 0x0 RETURN INVALID PUSH1 0x80 PUSH1 0x40 MSTORE CALLVALUE DUP1 ISZERO PUSH2 0x10 JUMPI PUSH1 0x0 DUP1 REVERT JUMPDEST POP PUSH1 0x4 CALLDATASIZE LT PUSH2 0x18E JUMPI PUSH1 0x0 CALLDATALOAD PUSH1 0xE0 SHR DUP1 PUSH4 0x8456CB59 GT PUSH2 0xDE JUMPI DUP1 PUSH4 0xCB1C2B5C GT PUSH2 0x97 JUMPI DUP1 PUSH4 0xD547741F GT PUSH2 0x71 JUMPI DUP1 PUSH4 0xD547741F EQ PUSH2 0x3DB JUMPI DUP1 PUSH4 0xD862913F EQ PUSH2 0x3EE JUMPI DUP1 PUSH4 0xE3A0A457 EQ PUSH2 0x401 JUMPI DUP1 PUSH4 0xE63AB1E9 EQ PUSH2 0x414 JUMPI PUSH1 0x0 DUP1 REVERT JUMPDEST DUP1 PUSH4 0xCB1C2B5C EQ PUSH2 0x38C JUMPI DUP1 PUSH4 0xD1AF37A0 EQ PUSH2 0x39C JUMPI DUP1 PUSH4 0xD3DD2BDF EQ PUSH2 0x3AF JUMPI PUSH1 0x0 DUP1 REVERT JUMPDEST DUP1 PUSH4 0x8456CB59 EQ PUSH2 0x32C JUMPI DUP1 PUSH4 0x8B1B925F EQ PUSH2 0x334 JUMPI DUP1 PUSH4 0x91D14854 EQ PUSH2 0x360 JUMPI DUP1 PUSH4 0x9790874C EQ PUSH2 0x373 JUMPI DUP1 PUSH4 0xA217FDDF EQ PUSH2 0x37B JUMPI DUP1 PUSH4 0xC6ECC994 EQ PUSH2 0x383 JUMPI PUSH1 0x0 DUP1 REVERT JUMPDEST DUP1 PUSH4 0x36568ABE GT PUSH2 0x14B JUMPI DUP1 PUSH4 0x5095AF64 GT PUSH2 0x125 JUMPI DUP1 PUSH4 0x5095AF64 EQ PUSH2 0x2A5 JUMPI DUP1 PUSH4 0x587CDE1E EQ PUSH2 0x2CC JUMPI DUP1 PUSH4 0x5C975ABB EQ PUSH2 0x2F5 JUMPI DUP1 PUSH4 0x7A766460 EQ PUSH2 0x300 JUMPI PUSH1 0x0 DUP1 REVERT JUMPDEST DUP1 PUSH4 0x36568ABE EQ PUSH2 0x277 JUMPI DUP1 PUSH4 0x3F4BA83A EQ PUSH2 0x28A JUMPI DUP1 PUSH4 0x4BCEE9E8 EQ PUSH2 0x292 JUMPI PUSH1 0x0 DUP1 REVERT JUMPDEST DUP1 PUSH4 0x1FFC9A7 EQ PUSH2 0x193 JUMPI DUP1 PUSH4 0xCEDBA7B EQ PUSH2 0x1BB JUMPI DUP1 PUSH4 0x248A9CA3 EQ PUSH2 0x1D0 JUMPI DUP1 PUSH4 0x2F2FF15D EQ PUSH2 0x201 JUMPI DUP1 PUSH4 0x3593F81B EQ PUSH2 0x214 JUMPI DUP1 PUSH4 0x360E6823 EQ PUSH2 0x238 JUMPI JUMPDEST PUSH1 0x0 DUP1 REVERT JUMPDEST PUSH2 0x1A6 PUSH2 0x1A1 CALLDATASIZE PUSH1 0x4 PUSH2 0x1175 JUMP JUMPDEST PUSH2 0x43B JUMP JUMPDEST PUSH1 0x40 MLOAD SWAP1 ISZERO ISZERO DUP2 MSTORE PUSH1 0x20 ADD JUMPDEST PUSH1 0x40 MLOAD DUP1 SWAP2 SUB SWAP1 RETURN JUMPDEST PUSH2 0x1CE PUSH2 0x1C9 CALLDATASIZE PUSH1 0x4 PUSH2 0x1204 JUMP JUMPDEST PUSH2 0x472 JUMP JUMPDEST STOP JUMPDEST PUSH2 0x1F3 PUSH2 0x1DE CALLDATASIZE PUSH1 0x4 PUSH2 0x125E JUMP JUMPDEST PUSH1 0x0 SWAP1 DUP2 MSTORE PUSH1 0x20 DUP2 SWAP1 MSTORE PUSH1 0x40 SWAP1 KECCAK256 PUSH1 0x1 ADD SLOAD SWAP1 JUMP JUMPDEST PUSH1 0x40 MLOAD SWAP1 DUP2 MSTORE PUSH1 0x20 ADD PUSH2 0x1B2 JUMP JUMPDEST PUSH2 0x1CE PUSH2 0x20F CALLDATASIZE PUSH1 0x4 PUSH2 0x1277 JUMP JUMPDEST PUSH2 0x5A5 JUMP JUMPDEST PUSH2 0x227 PUSH2 0x222 CALLDATASIZE PUSH1 0x4 PUSH2 0x12A3 JUMP JUMPDEST PUSH2 0x5CF JUMP JUMPDEST PUSH1 0x40 MLOAD PUSH2 0x1B2 SWAP6 SWAP5 SWAP4 SWAP3 SWAP2 SWAP1 PUSH2 0x130E JUMP JUMPDEST PUSH2 0x25F PUSH32 0x0 DUP2 JUMP JUMPDEST PUSH1 0x40 MLOAD PUSH1 0x1 PUSH1 0x1 PUSH1 0xA0 SHL SUB SWAP1 SWAP2 AND DUP2 MSTORE PUSH1 0x20 ADD PUSH2 0x1B2 JUMP JUMPDEST PUSH2 0x1CE PUSH2 0x285 CALLDATASIZE PUSH1 0x4 PUSH2 0x1277 JUMP JUMPDEST PUSH2 0x68E JUMP JUMPDEST PUSH2 0x1CE PUSH2 0x70C JUMP JUMPDEST PUSH2 0x1CE PUSH2 0x2A0 CALLDATASIZE PUSH1 0x4 PUSH2 0x1346 JUMP JUMPDEST PUSH2 0x741 JUMP JUMPDEST PUSH2 0x1F3 PUSH32 0x12B42E8A160F6064DC959C6F251E3AF0750AD213DBECF573B4710D67D6C28E39 DUP2 JUMP JUMPDEST PUSH2 0x25F PUSH2 0x2DA CALLDATASIZE PUSH1 0x4 PUSH2 0x12A3 JUMP JUMPDEST PUSH1 0x3 PUSH1 0x20 MSTORE PUSH1 0x0 SWAP1 DUP2 MSTORE PUSH1 0x40 SWAP1 KECCAK256 SLOAD PUSH1 0x1 PUSH1 0x1 PUSH1 0xA0 SHL SUB AND DUP2 JUMP JUMPDEST PUSH1 0x1 SLOAD PUSH1 0xFF AND PUSH2 0x1A6 JUMP JUMPDEST PUSH2 0x1F3 PUSH2 0x30E CALLDATASIZE PUSH1 0x4 PUSH2 0x12A3 JUMP JUMPDEST PUSH1 0x1 PUSH1 0x1 PUSH1 0xA0 SHL SUB AND PUSH1 0x0 SWAP1 DUP2 MSTORE PUSH1 0x2 PUSH1 0x20 MSTORE PUSH1 0x40 SWAP1 KECCAK256 PUSH1 0x1 ADD SLOAD SWAP1 JUMP JUMPDEST PUSH2 0x1CE PUSH2 0x85F JUMP JUMPDEST PUSH2 0x1A6 PUSH2 0x342 CALLDATASIZE PUSH1 0x4 PUSH2 0x12A3 JUMP JUMPDEST PUSH1 0x1 PUSH1 0x1 PUSH1 0xA0 SHL SUB AND PUSH1 0x0 SWAP1 DUP2 MSTORE PUSH1 0x2 PUSH1 0x20 MSTORE PUSH1 0x40 SWAP1 KECCAK256 SLOAD PUSH1 0xFF AND SWAP1 JUMP JUMPDEST PUSH2 0x1A6 PUSH2 0x36E CALLDATASIZE PUSH1 0x4 PUSH2 0x1277 JUMP JUMPDEST PUSH2 0x891 JUMP JUMPDEST PUSH2 0x1CE PUSH2 0x8BA JUMP JUMPDEST PUSH2 0x1F3 PUSH1 0x0 DUP2 JUMP JUMPDEST PUSH2 0x1F3 PUSH1 0x4 SLOAD DUP2 JUMP JUMPDEST PUSH2 0x1F3 PUSH9 0x56BC75E2D63100000 DUP2 JUMP JUMPDEST PUSH2 0x1CE PUSH2 0x3AA CALLDATASIZE PUSH1 0x4 PUSH2 0x125E JUMP JUMPDEST PUSH2 0x9E5 JUMP JUMPDEST PUSH2 0x1F3 PUSH2 0x3BD CALLDATASIZE PUSH1 0x4 PUSH2 0x12A3 JUMP JUMPDEST PUSH1 0x1 PUSH1 0x1 PUSH1 0xA0 SHL SUB AND PUSH1 0x0 SWAP1 DUP2 MSTORE PUSH1 0x2 PUSH1 0x20 MSTORE PUSH1 0x40 SWAP1 KECCAK256 PUSH1 0x3 ADD SLOAD SWAP1 JUMP JUMPDEST PUSH2 0x1CE PUSH2 0x3E9 CALLDATASIZE PUSH1 0x4 PUSH2 0x1277 JUMP JUMPDEST PUSH2 0xC03 JUMP JUMPDEST PUSH2 0x1CE PUSH2 0x3FC CALLDATASIZE PUSH1 0x4 PUSH2 0x1370 JUMP JUMPDEST PUSH2 0xC28 JUMP JUMPDEST PUSH2 0x1CE PUSH2 0x40F CALLDATASIZE PUSH1 0x4 PUSH2 0x13C3 JUMP JUMPDEST PUSH2 0xCA3 JUMP JUMPDEST PUSH2 0x1F3 PUSH32 0x65D7A28E3265B37A6474929F336521B332C1681B933F6CB9F3376673440D862A DUP2 JUMP JUMPDEST PUSH1 0x0 PUSH1 0x1 PUSH1 0x1 PUSH1 0xE0 SHL SUB NOT DUP3 AND PUSH4 0x7965DB0B PUSH1 0xE0 SHL EQ DUP1 PUSH2 0x46C JUMPI POP PUSH4 0x1FFC9A7 PUSH1 0xE0 SHL PUSH1 0x1 PUSH1 0x1 PUSH1 0xE0 SHL SUB NOT DUP4 AND EQ JUMPDEST SWAP3 SWAP2 POP POP JUMP JUMPDEST PUSH32 0x12B42E8A160F6064DC959C6F251E3AF0750AD213DBECF573B4710D67D6C28E39 PUSH2 0x49C DUP2 PUSH2 0xD56 JUMP JUMPDEST PUSH1 0x1 PUSH1 0x1 PUSH1 0xA0 SHL SUB DUP6 AND PUSH1 0x0 SWAP1 DUP2 MSTORE PUSH1 0x2 PUSH1 0x20 MSTORE PUSH1 0x40 SWAP1 KECCAK256 DUP1 SLOAD PUSH1 0xFF AND PUSH2 0x4DE JUMPI PUSH1 0x40 MLOAD PUSH3 0x461BCD PUSH1 0xE5 SHL DUP2 MSTORE PUSH1 0x4 ADD PUSH2 0x4D5 SWAP1 PUSH2 0x13FF JUMP JUMPDEST PUSH1 0x40 MLOAD DUP1 SWAP2 SUB SWAP1 REVERT JUMPDEST PUSH1 0x0 PUSH2 0x2710 DUP7 DUP4 PUSH1 0x1 ADD SLOAD PUSH2 0x4F3 SWAP2 SWAP1 PUSH2 0x143D JUMP JUMPDEST PUSH2 0x4FD SWAP2 SWAP1 PUSH2 0x1454 JUMP JUMPDEST SWAP1 POP DUP1 DUP3 PUSH1 0x1 ADD PUSH1 0x0 DUP3 DUP3 SLOAD PUSH2 0x513 SWAP2 SWAP1 PUSH2 0x1476 JUMP JUMPDEST SWAP1 SWAP2 SSTORE POP POP PUSH1 0x40 MLOAD PUSH4 0x33C59F71 PUSH1 0xE1 SHL DUP2 MSTORE PUSH1 0x1 PUSH1 0x1 PUSH1 0xA0 SHL SUB PUSH32 0x0 AND SWAP1 PUSH4 0x678B3EE2 SWAP1 PUSH2 0x56A SWAP1 ADDRESS SWAP1 DUP6 SWAP1 DUP11 SWAP1 DUP11 SWAP1 PUSH1 0x4 ADD PUSH2 0x14B2 JUMP JUMPDEST PUSH1 0x0 PUSH1 0x40 MLOAD DUP1 DUP4 SUB DUP2 PUSH1 0x0 DUP8 DUP1 EXTCODESIZE ISZERO DUP1 ISZERO PUSH2 0x584 JUMPI PUSH1 0x0 DUP1 REVERT JUMPDEST POP GAS CALL ISZERO DUP1 ISZERO PUSH2 0x598 JUMPI RETURNDATASIZE PUSH1 0x0 DUP1 RETURNDATACOPY RETURNDATASIZE PUSH1 0x0 REVERT JUMPDEST POP POP POP POP POP POP POP POP POP POP POP JUMP JUMPDEST PUSH1 0x0 DUP3 DUP2 MSTORE PUSH1 0x20 DUP2 SWAP1 MSTORE PUSH1 0x40 SWAP1 KECCAK256 PUSH1 0x1 ADD SLOAD PUSH2 0x5C0 DUP2 PUSH2 0xD56 JUMP JUMPDEST PUSH2 0x5CA DUP4 DUP4 PUSH2 0xD60 JUMP JUMPDEST POP POP POP JUMP JUMPDEST PUSH1 0x2 PUSH1 0x20 DUP2 SWAP1 MSTORE PUSH1 0x0 SWAP2 DUP3 MSTORE PUSH1 0x40 SWAP1 SWAP2 KECCAK256 DUP1 SLOAD PUSH1 0x1 DUP3 ADD SLOAD SWAP3 DUP3 ADD SLOAD PUSH1 0x3 DUP4 ADD SLOAD PUSH1 0x4 DUP5 ADD DUP1 SLOAD PUSH1 0xFF SWAP1 SWAP5 AND SWAP6 SWAP5 SWAP3 SWAP4 SWAP2 SWAP3 SWAP2 PUSH2 0x60B SWAP1 PUSH2 0x14E4 JUMP JUMPDEST DUP1 PUSH1 0x1F ADD PUSH1 0x20 DUP1 SWAP2 DIV MUL PUSH1 0x20 ADD PUSH1 0x40 MLOAD SWAP1 DUP2 ADD PUSH1 0x40 MSTORE DUP1 SWAP3 SWAP2 SWAP1 DUP2 DUP2 MSTORE PUSH1 0x20 ADD DUP3 DUP1 SLOAD PUSH2 0x637 SWAP1 PUSH2 0x14E4 JUMP JUMPDEST DUP1 ISZERO PUSH2 0x684 JUMPI DUP1 PUSH1 0x1F LT PUSH2 0x659 JUMPI PUSH2 0x100 DUP1 DUP4 SLOAD DIV MUL DUP4 MSTORE SWAP2 PUSH1 0x20 ADD SWAP2 PUSH2 0x684 JUMP JUMPDEST DUP3 ADD SWAP2 SWAP1 PUSH1 0x0 MSTORE PUSH1 0x20 PUSH1 0x0 KECCAK256 SWAP1 JUMPDEST DUP2 SLOAD DUP2 MSTORE SWAP1 PUSH1 0x1 ADD SWAP1 PUSH1 0x20 ADD DUP1 DUP4 GT PUSH2 0x667 JUMPI DUP3 SWAP1 SUB PUSH1 0x1F AND DUP3 ADD SWAP2 JUMPDEST POP POP POP POP POP SWAP1 POP DUP6 JUMP JUMPDEST PUSH1 0x1 PUSH1 0x1 PUSH1 0xA0 SHL SUB DUP2 AND CALLER EQ PUSH2 0x6FE JUMPI PUSH1 0x40 MLOAD PUSH3 0x461BCD PUSH1 0xE5 SHL DUP2 MSTORE PUSH1 0x20 PUSH1 0x4 DUP3 ADD MSTORE PUSH1 0x2F PUSH1 0x24 DUP3 ADD MSTORE PUSH32 0x416363657373436F6E74726F6C3A2063616E206F6E6C792072656E6F756E6365 PUSH1 0x44 DUP3 ADD MSTORE PUSH15 0x103937B632B9903337B91039B2B633 PUSH1 0x89 SHL PUSH1 0x64 DUP3 ADD MSTORE PUSH1 0x84 ADD PUSH2 0x4D5 JUMP JUMPDEST PUSH2 0x708 DUP3 DUP3 PUSH2 0xDE4 JUMP JUMPDEST POP POP JUMP JUMPDEST PUSH32 0x65D7A28E3265B37A6474929F336521B332C1681B933F6CB9F3376673440D862A PUSH2 0x736 DUP2 PUSH2 0xD56 JUMP JUMPDEST PUSH2 0x73E PUSH2 0xE49 JUMP JUMPDEST POP JUMP JUMPDEST PUSH32 0x12B42E8A160F6064DC959C6F251E3AF0750AD213DBECF573B4710D67D6C28E39 PUSH2 0x76B DUP2 PUSH2 0xD56 JUMP JUMPDEST PUSH1 0x1 PUSH1 0x1 PUSH1 0xA0 SHL SUB DUP4 AND PUSH1 0x0 SWAP1 DUP2 MSTORE PUSH1 0x2 PUSH1 0x20 MSTORE PUSH1 0x40 SWAP1 KECCAK256 DUP1 SLOAD PUSH1 0xFF AND PUSH2 0x7A4 JUMPI PUSH1 0x40 MLOAD PUSH3 0x461BCD PUSH1 0xE5 SHL DUP2 MSTORE PUSH1 0x4 ADD PUSH2 0x4D5 SWAP1 PUSH2 0x13FF JUMP JUMPDEST PUSH1 0x3 DUP2 ADD SLOAD PUSH1 0x0 DUP5 SLT DUP1 ISZERO PUSH2 0x7C1 JUMPI POP DUP1 PUSH2 0x7BE DUP6 PUSH2 0x151E JUMP JUMPDEST LT ISZERO JUMPDEST ISZERO PUSH2 0x7D2 JUMPI PUSH1 0x0 PUSH1 0x3 DUP4 ADD SSTORE PUSH2 0x808 JUMP JUMPDEST PUSH1 0x0 DUP5 SLT ISZERO PUSH2 0x7F8 JUMPI PUSH2 0x7E4 DUP5 PUSH2 0x151E JUMP JUMPDEST PUSH2 0x7EE SWAP1 DUP3 PUSH2 0x1476 JUMP JUMPDEST PUSH1 0x3 DUP4 ADD SSTORE PUSH2 0x808 JUMP JUMPDEST PUSH2 0x802 DUP5 DUP3 PUSH2 0x153A JUMP JUMPDEST PUSH1 0x3 DUP4 ADD SSTORE JUMPDEST DUP5 PUSH1 0x1 PUSH1 0x1 PUSH1 0xA0 SHL SUB AND PUSH32 0x2A282323D08FB25DE72CD7BCFF98BF467983C2B0AA116587D336812CAA8846BA DUP6 DUP5 PUSH1 0x3 ADD SLOAD PUSH1 0x40 MLOAD PUSH2 0x850 SWAP3 SWAP2 SWAP1 SWAP2 DUP3 MSTORE PUSH1 0x20 DUP3 ADD MSTORE PUSH1 0x40 ADD SWAP1 JUMP JUMPDEST PUSH1 0x40 MLOAD DUP1 SWAP2 SUB SWAP1 LOG2 POP POP POP POP POP JUMP JUMPDEST PUSH32 0x65D7A28E3265B37A6474929F336521B332C1681B933F6CB9F3376673440D862A PUSH2 0x889 DUP2 PUSH2 0xD56 JUMP JUMPDEST PUSH2 0x73E PUSH2 0xE9B JUMP JUMPDEST PUSH1 0x0 SWAP2 DUP3 MSTORE PUSH1 0x20 DUP3 DUP2 MSTORE PUSH1 0x40 DUP1 DUP5 KECCAK256 PUSH1 0x1 PUSH1 0x1 PUSH1 0xA0 SHL SUB SWAP4 SWAP1 SWAP4 AND DUP5 MSTORE SWAP2 SWAP1 MSTORE SWAP1 KECCAK256 SLOAD PUSH1 0xFF AND SWAP1 JUMP JUMPDEST PUSH2 0x8C2 PUSH2 0xED6 JUMP JUMPDEST CALLER PUSH1 0x0 SWAP1 DUP2 MSTORE PUSH1 0x2 PUSH1 0x20 MSTORE PUSH1 0x40 SWAP1 KECCAK256 DUP1 SLOAD PUSH1 0xFF AND PUSH2 0x8F2 JUMPI PUSH1 0x40 MLOAD PUSH3 0x461BCD PUSH1 0xE5 SHL DUP2 MSTORE PUSH1 0x4 ADD PUSH2 0x4D5 SWAP1 PUSH2 0x13FF JUMP JUMPDEST PUSH1 0x1 DUP2 ADD DUP1 SLOAD DUP3 SLOAD PUSH1 0xFF NOT AND DUP4 SSTORE PUSH1 0x0 SWAP2 DUP3 SWAP1 SSTORE PUSH1 0x4 DUP1 SLOAD SWAP2 SWAP3 PUSH2 0x915 DUP4 PUSH2 0x154D JUMP JUMPDEST SWAP1 SWAP2 SSTORE POP POP PUSH1 0x40 MLOAD PUSH4 0xA9059CBB PUSH1 0xE0 SHL DUP2 MSTORE CALLER PUSH1 0x4 DUP3 ADD MSTORE PUSH1 0x24 DUP2 ADD DUP3 SWAP1 MSTORE PUSH32 0x0 PUSH1 0x1 PUSH1 0x1 PUSH1 0xA0 SHL SUB AND SWAP1 PUSH4 0xA9059CBB SWAP1 PUSH1 0x44 ADD PUSH1 0x20 PUSH1 0x40 MLOAD DUP1 DUP4 SUB DUP2 PUSH1 0x0 DUP8 GAS CALL ISZERO DUP1 ISZERO PUSH2 0x987 JUMPI RETURNDATASIZE PUSH1 0x0 DUP1 RETURNDATACOPY RETURNDATASIZE PUSH1 0x0 REVERT JUMPDEST POP POP POP POP PUSH1 0x40 MLOAD RETURNDATASIZE PUSH1 0x1F NOT PUSH1 0x1F DUP3 ADD AND DUP3 ADD DUP1 PUSH1 0x40 MSTORE POP DUP2 ADD SWAP1 PUSH2 0x9AB SWAP2 SWAP1 PUSH2 0x1564 JUMP JUMPDEST POP PUSH1 0x40 MLOAD DUP2 DUP2 MSTORE CALLER SWAP1 PUSH32 0x9A093AE7C73F311F6BBFD4A53F263429E0A5AB016999D72403FF7BCAA81E270F SWAP1 PUSH1 0x20 ADD PUSH1 0x40 MLOAD DUP1 SWAP2 SUB SWAP1 LOG2 POP POP JUMP JUMPDEST PUSH2 0x9ED PUSH2 0xED6 JUMP JUMPDEST CALLER PUSH1 0x0 SWAP1 DUP2 MSTORE PUSH1 0x2 PUSH1 0x20 MSTORE PUSH1 0x40 SWAP1 KECCAK256 SLOAD PUSH1 0xFF AND ISZERO PUSH2 0xA46 JUMPI PUSH1 0x40 MLOAD PUSH3 0x461BCD PUSH1 0xE5 SHL DUP2 MSTORE PUSH1 0x20 PUSH1 0x4 DUP3 ADD MSTORE PUSH1 0x16 PUSH1 0x24 DUP3 ADD MSTORE PUSH22 0x11125108185B1C9958591E481C9959DA5CDD195C9959 PUSH1 0x52 SHL PUSH1 0x44 DUP3 ADD MSTORE PUSH1 0x64 ADD PUSH2 0x4D5 JUMP JUMPDEST PUSH9 0x56BC75E2D63100000 DUP2 LT ISZERO PUSH2 0xA95 JUMPI PUSH1 0x40 MLOAD PUSH3 0x461BCD PUSH1 0xE5 SHL DUP2 MSTORE PUSH1 0x20 PUSH1 0x4 DUP3 ADD MSTORE PUSH1 0x13 PUSH1 0x24 DUP3 ADD MSTORE PUSH19 0x5374616B652062656C6F77206D696E696D756D PUSH1 0x68 SHL PUSH1 0x44 DUP3 ADD MSTORE PUSH1 0x64 ADD PUSH2 0x4D5 JUMP JUMPDEST PUSH1 0x40 MLOAD PUSH4 0x23B872DD PUSH1 0xE0 SHL DUP2 MSTORE CALLER PUSH1 0x4 DUP3 ADD MSTORE ADDRESS PUSH1 0x24 DUP3 ADD MSTORE PUSH1 0x44 DUP2 ADD DUP3 SWAP1 MSTORE PUSH32 0x0 PUSH1 0x1 PUSH1 0x1 PUSH1 0xA0 SHL SUB AND SWAP1 PUSH4 0x23B872DD SWAP1 PUSH1 0x64 ADD PUSH1 0x20 PUSH1 0x40 MLOAD DUP1 DUP4 SUB DUP2 PUSH1 0x0 DUP8 GAS CALL ISZERO DUP1 ISZERO PUSH2 0xB08 JUMPI RETURNDATASIZE PUSH1 0x0 DUP1 RETURNDATACOPY RETURNDATASIZE PUSH1 0x0 REVERT JUMPDEST POP POP POP POP PUSH1 0x40 MLOAD RETURNDATASIZE PUSH1 0x1F NOT PUSH1 0x1F DUP3 ADD AND DUP3 ADD DUP1 PUSH1 0x40 MSTORE POP DUP2 ADD SWAP1 PUSH2 0xB2C SWAP2 SWAP1 PUSH2 0x1564 JUMP JUMPDEST POP PUSH1 0x40 DUP1 MLOAD PUSH1 0xA0 DUP2 ADD DUP3 MSTORE PUSH1 0x1 DUP1 DUP3 MSTORE PUSH1 0x20 DUP1 DUP4 ADD DUP6 DUP2 MSTORE TIMESTAMP DUP5 DUP7 ADD SWAP1 DUP2 MSTORE PUSH1 0x64 PUSH1 0x60 DUP7 ADD SWAP1 DUP2 MSTORE DUP7 MLOAD DUP1 DUP6 ADD DUP9 MSTORE PUSH1 0x0 DUP1 DUP3 MSTORE PUSH1 0x80 DUP9 ADD SWAP2 DUP3 MSTORE CALLER DUP2 MSTORE PUSH1 0x2 SWAP6 DUP7 SWAP1 MSTORE SWAP8 SWAP1 SWAP8 KECCAK256 DUP7 MLOAD DUP2 SLOAD PUSH1 0xFF NOT AND SWAP1 ISZERO ISZERO OR DUP2 SSTORE SWAP3 MLOAD SWAP5 DUP4 ADD SWAP5 SWAP1 SWAP5 SSTORE MLOAD SWAP2 DUP2 ADD SWAP2 SWAP1 SWAP2 SSTORE SWAP1 MLOAD PUSH1 0x3 DUP3 ADD SSTORE SWAP2 MLOAD SWAP1 SWAP2 SWAP1 PUSH1 0x4 DUP3 ADD SWAP1 PUSH2 0xBAE SWAP1 DUP3 PUSH2 0x15EC JUMP JUMPDEST POP POP PUSH1 0x4 DUP1 SLOAD SWAP2 POP PUSH1 0x0 PUSH2 0xBC1 DUP4 PUSH2 0x16AC JUMP JUMPDEST SWAP1 SWAP2 SSTORE POP POP PUSH1 0x40 DUP1 MLOAD DUP3 DUP2 MSTORE TIMESTAMP PUSH1 0x20 DUP3 ADD MSTORE CALLER SWAP2 PUSH32 0xB5DC1FB50662E9941E159C6EDE09C662676630A7F57DAB7F1BB6974DEED0C979 SWAP2 ADD PUSH1 0x40 MLOAD DUP1 SWAP2 SUB SWAP1 LOG2 POP JUMP JUMPDEST PUSH1 0x0 DUP3 DUP2 MSTORE PUSH1 0x20 DUP2 SWAP1 MSTORE PUSH1 0x40 SWAP1 KECCAK256 PUSH1 0x1 ADD SLOAD PUSH2 0xC1E DUP2 PUSH2 0xD56 JUMP JUMPDEST PUSH2 0x5CA DUP4 DUP4 PUSH2 0xDE4 JUMP JUMPDEST CALLER PUSH1 0x0 SWAP1 DUP2 MSTORE PUSH1 0x2 PUSH1 0x20 MSTORE PUSH1 0x40 SWAP1 KECCAK256 SLOAD PUSH1 0xFF AND PUSH2 0xC57 JUMPI PUSH1 0x40 MLOAD PUSH3 0x461BCD PUSH1 0xE5 SHL DUP2 MSTORE PUSH1 0x4 ADD PUSH2 0x4D5 SWAP1 PUSH2 0x13FF JUMP JUMPDEST DUP4 CALLER PUSH1 0x1 PUSH1 0x1 PUSH1 0xA0 SHL SUB AND PUSH32 0xEFC1BDF97AEA8C7AF552221D1CFBF0C8C31BD4E57A28007D05E5A32E0236BB55 DUP6 DUP6 DUP6 PUSH1 0x40 MLOAD PUSH2 0xC95 SWAP4 SWAP3 SWAP2 SWAP1 PUSH2 0x16C5 JUMP JUMPDEST PUSH1 0x40 MLOAD DUP1 SWAP2 SUB SWAP1 LOG3 POP POP POP POP JUMP JUMPDEST CALLER PUSH1 0x1 PUSH1 0x1 PUSH1 0xA0 SHL SUB DUP5 AND EQ PUSH2 0xCF0 JUMPI PUSH1 0x40 MLOAD PUSH3 0x461BCD PUSH1 0xE5 SHL DUP2 MSTORE PUSH1 0x20 PUSH1 0x4 DUP3 ADD MSTORE PUSH1 0x12 PUSH1 0x24 DUP3 ADD MSTORE PUSH18 0x2737BA1034B232B73A34BA3C9037BBB732B9 PUSH1 0x71 SHL PUSH1 0x44 DUP3 ADD MSTORE PUSH1 0x64 ADD PUSH2 0x4D5 JUMP JUMPDEST PUSH1 0x1 PUSH1 0x1 PUSH1 0xA0 SHL SUB DUP4 DUP2 AND PUSH1 0x0 DUP2 DUP2 MSTORE PUSH1 0x3 PUSH1 0x20 SWAP1 DUP2 MSTORE PUSH1 0x40 SWAP2 DUP3 SWAP1 KECCAK256 DUP1 SLOAD PUSH1 0x1 PUSH1 0x1 PUSH1 0xA0 SHL SUB NOT AND SWAP5 DUP8 AND SWAP5 DUP6 OR SWAP1 SSTORE SWAP1 MLOAD DUP5 DUP2 MSTORE PUSH32 0x207B6F0645271BB37AA1924037603B5D8C31D32B6DD6B0E4F5F1C2D039C25348 SWAP2 ADD PUSH1 0x40 MLOAD DUP1 SWAP2 SUB SWAP1 LOG3 POP POP POP JUMP JUMPDEST PUSH2 0x73E DUP2 CALLER PUSH2 0xF1E JUMP JUMPDEST PUSH2 0xD6A DUP3 DUP3 PUSH2 0x891 JUMP JUMPDEST PUSH2 0x708 JUMPI PUSH1 0x0 DUP3 DUP2 MSTORE PUSH1 0x20 DUP2 DUP2 MSTORE PUSH1 0x40 DUP1 DUP4 KECCAK256 PUSH1 0x1 PUSH1 0x1 PUSH1 0xA0 SHL SUB DUP6 AND DUP5 MSTORE SWAP1 SWAP2 MSTORE SWAP1 KECCAK256 DUP1 SLOAD PUSH1 0xFF NOT AND PUSH1 0x1 OR SWAP1 SSTORE PUSH2 0xDA0 CALLER SWAP1 JUMP JUMPDEST PUSH1 0x1 PUSH1 0x1 PUSH1 0xA0 SHL SUB AND DUP2 PUSH1 0x1 PUSH1 0x1 PUSH1 0xA0 SHL SUB AND DUP4 PUSH32 0x2F8788117E7EFF1D82E926EC794901D17C78024A50270940304540A733656F0D PUSH1 0x40 MLOAD PUSH1 0x40 MLOAD DUP1 SWAP2 SUB SWAP1 LOG4 POP POP JUMP JUMPDEST PUSH2 0xDEE DUP3 DUP3 PUSH2 0x891 JUMP JUMPDEST ISZERO PUSH2 0x708 JUMPI PUSH1 0x0 DUP3 DUP2 MSTORE PUSH1 0x20 DUP2 DUP2 MSTORE PUSH1 0x40 DUP1 DUP4 KECCAK256 PUSH1 0x1 PUSH1 0x1 PUSH1 0xA0 SHL SUB DUP6 AND DUP1 DUP6 MSTORE SWAP3 MSTORE DUP1 DUP4 KECCAK256 DUP1 SLOAD PUSH1 0xFF NOT AND SWAP1 SSTORE MLOAD CALLER SWAP3 DUP6 SWAP2 PUSH32 0xF6391F5C32D9C69D2A47EA670B442974B53935D1EDC7FD64EB21E047A839171B SWAP2 SWAP1 LOG4 POP POP JUMP JUMPDEST PUSH2 0xE51 PUSH2 0xF77 JUMP JUMPDEST PUSH1 0x1 DUP1 SLOAD PUSH1 0xFF NOT AND SWAP1 SSTORE PUSH32 0x5DB9EE0A495BF2E6FF9C91A7834C1BA4FDD244A5E8AA4E537BD38AEAE4B073AA CALLER JUMPDEST PUSH1 0x40 MLOAD PUSH1 0x1 PUSH1 0x1 PUSH1 0xA0 SHL SUB SWAP1 SWAP2 AND DUP2 MSTORE PUSH1 0x20 ADD PUSH1 0x40 MLOAD DUP1 SWAP2 SUB SWAP1 LOG1 JUMP JUMPDEST PUSH2 0xEA3 PUSH2 0xED6 JUMP JUMPDEST PUSH1 0x1 DUP1 SLOAD PUSH1 0xFF NOT AND DUP2 OR SWAP1 SSTORE PUSH32 0x62E78CEA01BEE320CD4E420270B5EA74000D11B0C9F74754EBDBFC544B05A258 CALLER PUSH2 0xE7E JUMP JUMPDEST PUSH1 0x1 SLOAD PUSH1 0xFF AND ISZERO PUSH2 0xF1C JUMPI PUSH1 0x40 MLOAD PUSH3 0x461BCD PUSH1 0xE5 SHL DUP2 MSTORE PUSH1 0x20 PUSH1 0x4 DUP3 ADD MSTORE PUSH1 0x10 PUSH1 0x24 DUP3 ADD MSTORE PUSH16 0x14185D5CD8589B194E881C185D5CD959 PUSH1 0x82 SHL PUSH1 0x44 DUP3 ADD MSTORE PUSH1 0x64 ADD PUSH2 0x4D5 JUMP JUMPDEST JUMP JUMPDEST PUSH2 0xF28 DUP3 DUP3 PUSH2 0x891 JUMP JUMPDEST PUSH2 0x708 JUMPI PUSH2 0xF35 DUP2 PUSH2 0xFC0 JUMP JUMPDEST PUSH2 0xF40 DUP4 PUSH1 0x20 PUSH2 0xFD2 JUMP JUMPDEST PUSH1 0x40 MLOAD PUSH1 0x20 ADD PUSH2 0xF51 SWAP3 SWAP2 SWAP1 PUSH2 0x16E9 JUMP JUMPDEST PUSH1 0x40 DUP1 MLOAD PUSH1 0x1F NOT DUP2 DUP5 SUB ADD DUP2 MSTORE SWAP1 DUP3 SWAP1 MSTORE PUSH3 0x461BCD PUSH1 0xE5 SHL DUP3 MSTORE PUSH2 0x4D5 SWAP2 PUSH1 0x4 ADD PUSH2 0x175E JUMP JUMPDEST PUSH1 0x1 SLOAD PUSH1 0xFF AND PUSH2 0xF1C JUMPI PUSH1 0x40 MLOAD PUSH3 0x461BCD PUSH1 0xE5 SHL DUP2 MSTORE PUSH1 0x20 PUSH1 0x4 DUP3 ADD MSTORE PUSH1 0x14 PUSH1 0x24 DUP3 ADD MSTORE PUSH20 0x14185D5CD8589B194E881B9BDD081C185D5CD959 PUSH1 0x62 SHL PUSH1 0x44 DUP3 ADD MSTORE PUSH1 0x64 ADD PUSH2 0x4D5 JUMP JUMPDEST PUSH1 0x60 PUSH2 0x46C PUSH1 0x1 PUSH1 0x1 PUSH1 0xA0 SHL SUB DUP4 AND PUSH1 0x14 JUMPDEST PUSH1 0x60 PUSH1 0x0 PUSH2 0xFE1 DUP4 PUSH1 0x2 PUSH2 0x143D JUMP JUMPDEST PUSH2 0xFEC SWAP1 PUSH1 0x2 PUSH2 0x153A JUMP JUMPDEST PUSH8 0xFFFFFFFFFFFFFFFF DUP2 GT ISZERO PUSH2 0x1004 JUMPI PUSH2 0x1004 PUSH2 0x1586 JUMP JUMPDEST PUSH1 0x40 MLOAD SWAP1 DUP1 DUP3 MSTORE DUP1 PUSH1 0x1F ADD PUSH1 0x1F NOT AND PUSH1 0x20 ADD DUP3 ADD PUSH1 0x40 MSTORE DUP1 ISZERO PUSH2 0x102E JUMPI PUSH1 0x20 DUP3 ADD DUP2 DUP1 CALLDATASIZE DUP4 CALLDATACOPY ADD SWAP1 POP JUMPDEST POP SWAP1 POP PUSH1 0x3 PUSH1 0xFC SHL DUP2 PUSH1 0x0 DUP2 MLOAD DUP2 LT PUSH2 0x1049 JUMPI PUSH2 0x1049 PUSH2 0x1771 JUMP JUMPDEST PUSH1 0x20 ADD ADD SWAP1 PUSH1 0x1 PUSH1 0x1 PUSH1 0xF8 SHL SUB NOT AND SWAP1 DUP2 PUSH1 0x0 BYTE SWAP1 MSTORE8 POP PUSH1 0xF PUSH1 0xFB SHL DUP2 PUSH1 0x1 DUP2 MLOAD DUP2 LT PUSH2 0x1078 JUMPI PUSH2 0x1078 PUSH2 0x1771 JUMP JUMPDEST PUSH1 0x20 ADD ADD SWAP1 PUSH1 0x1 PUSH1 0x1 PUSH1 0xF8 SHL SUB NOT AND SWAP1 DUP2 PUSH1 0x0 BYTE SWAP1 MSTORE8 POP PUSH1 0x0 PUSH2 0x109C DUP5 PUSH1 0x2 PUSH2 0x143D JUMP JUMPDEST PUSH2 0x10A7 SWAP1 PUSH1 0x1 PUSH2 0x153A JUMP JUMPDEST SWAP1 POP JUMPDEST PUSH1 0x1 DUP2 GT ISZERO PUSH2 0x111F JUMPI PUSH16 0x181899199A1A9B1B9C1CB0B131B232B3 PUSH1 0x81 SHL DUP6 PUSH1 0xF AND PUSH1 0x10 DUP2 LT PUSH2 0x10DB JUMPI PUSH2 0x10DB PUSH2 0x1771 JUMP JUMPDEST BYTE PUSH1 0xF8 SHL DUP3 DUP3 DUP2 MLOAD DUP2 LT PUSH2 0x10F1 JUMPI PUSH2 0x10F1 PUSH2 0x1771 JUMP JUMPDEST PUSH1 0x20 ADD ADD SWAP1 PUSH1 0x1 PUSH1 0x1 PUSH1 0xF8 SHL SUB NOT AND SWAP1 DUP2 PUSH1 0x0 BYTE SWAP1 MSTORE8 POP PUSH1 0x4 SWAP5 SWAP1 SWAP5 SHR SWAP4 PUSH2 0x1118 DUP2 PUSH2 0x154D JUMP JUMPDEST SWAP1 POP PUSH2 0x10AA JUMP JUMPDEST POP DUP4 ISZERO PUSH2 0x116E JUMPI PUSH1 0x40 MLOAD PUSH3 0x461BCD PUSH1 0xE5 SHL DUP2 MSTORE PUSH1 0x20 PUSH1 0x4 DUP3 ADD DUP2 SWAP1 MSTORE PUSH1 0x24 DUP3 ADD MSTORE PUSH32 0x537472696E67733A20686578206C656E67746820696E73756666696369656E74 PUSH1 0x44 DUP3 ADD MSTORE PUSH1 0x64 ADD PUSH2 0x4D5 JUMP JUMPDEST SWAP4 SWAP3 POP POP POP JUMP JUMPDEST PUSH1 0x0 PUSH1 0x20 DUP3 DUP5 SUB SLT ISZERO PUSH2 0x1187 JUMPI PUSH1 0x0 DUP1 REVERT JUMPDEST DUP2 CALLDATALOAD PUSH1 0x1 PUSH1 0x1 PUSH1 0xE0 SHL SUB NOT DUP2 AND DUP2 EQ PUSH2 0x116E JUMPI PUSH1 0x0 DUP1 REVERT JUMPDEST DUP1 CALLDATALOAD PUSH1 0x1 PUSH1 0x1 PUSH1 0xA0 SHL SUB DUP2 AND DUP2 EQ PUSH2 0x11B6 JUMPI PUSH1 0x0 DUP1 REVERT JUMPDEST SWAP2 SWAP1 POP JUMP JUMPDEST PUSH1 0x0 DUP1 DUP4 PUSH1 0x1F DUP5 ADD SLT PUSH2 0x11CD JUMPI PUSH1 0x0 DUP1 REVERT JUMPDEST POP DUP2 CALLDATALOAD PUSH8 0xFFFFFFFFFFFFFFFF DUP2 GT ISZERO PUSH2 0x11E5 JUMPI PUSH1 0x0 DUP1 REVERT JUMPDEST PUSH1 0x20 DUP4 ADD SWAP2 POP DUP4 PUSH1 0x20 DUP3 DUP6 ADD ADD GT ISZERO PUSH2 0x11FD JUMPI PUSH1 0x0 DUP1 REVERT JUMPDEST SWAP3 POP SWAP3 SWAP1 POP JUMP JUMPDEST PUSH1 0x0 DUP1 PUSH1 0x0 DUP1 PUSH1 0x60 DUP6 DUP8 SUB SLT ISZERO PUSH2 0x121A JUMPI PUSH1 0x0 DUP1 REVERT JUMPDEST PUSH2 0x1223 DUP6 PUSH2 0x119F JUMP JUMPDEST SWAP4 POP PUSH1 0x20 DUP6 ADD CALLDATALOAD SWAP3 POP PUSH1 0x40 DUP6 ADD CALLDATALOAD PUSH8 0xFFFFFFFFFFFFFFFF DUP2 GT ISZERO PUSH2 0x1246 JUMPI PUSH1 0x0 DUP1 REVERT JUMPDEST PUSH2 0x1252 DUP8 DUP3 DUP9 ADD PUSH2 0x11BB JUMP JUMPDEST SWAP6 SWAP9 SWAP5 SWAP8 POP SWAP6 POP POP POP POP JUMP JUMPDEST PUSH1 0x0 PUSH1 0x20 DUP3 DUP5 SUB SLT ISZERO PUSH2 0x1270 JUMPI PUSH1 0x0 DUP1 REVERT JUMPDEST POP CALLDATALOAD SWAP2 SWAP1 POP JUMP JUMPDEST PUSH1 0x0 DUP1 PUSH1 0x40 DUP4 DUP6 SUB SLT ISZERO PUSH2 0x128A JUMPI PUSH1 0x0 DUP1 REVERT JUMPDEST DUP3 CALLDATALOAD SWAP2 POP PUSH2 0x129A PUSH1 0x20 DUP5 ADD PUSH2 0x119F JUMP JUMPDEST SWAP1 POP SWAP3 POP SWAP3 SWAP1 POP JUMP JUMPDEST PUSH1 0x0 PUSH1 0x20 DUP3 DUP5 SUB SLT ISZERO PUSH2 0x12B5 JUMPI PUSH1 0x0 DUP1 REVERT JUMPDEST PUSH2 0x116E DUP3 PUSH2 0x119F JUMP JUMPDEST PUSH1 0x0 JUMPDEST DUP4 DUP2 LT ISZERO PUSH2 0x12D9 JUMPI DUP2 DUP2 ADD MLOAD DUP4 DUP3 ADD MSTORE PUSH1 0x20 ADD PUSH2 0x12C1 JUMP JUMPDEST POP POP PUSH1 0x0 SWAP2 ADD MSTORE JUMP JUMPDEST PUSH1 0x0 DUP2 MLOAD DUP1 DUP5 MSTORE PUSH2 0x12FA DUP2 PUSH1 0x20 DUP7 ADD PUSH1 0x20 DUP7 ADD PUSH2 0x12BE JUMP JUMPDEST PUSH1 0x1F ADD PUSH1 0x1F NOT AND SWAP3 SWAP1 SWAP3 ADD PUSH1 0x20 ADD SWAP3 SWAP2 POP POP JUMP JUMPDEST DUP6 ISZERO ISZERO DUP2 MSTORE DUP5 PUSH1 0x20 DUP3 ADD MSTORE DUP4 PUSH1 0x40 DUP3 ADD MSTORE DUP3 PUSH1 0x60 DUP3 ADD MSTORE PUSH1 0xA0 PUSH1 0x80 DUP3 ADD MSTORE PUSH1 0x0 PUSH2 0x133B PUSH1 0xA0 DUP4 ADD DUP5 PUSH2 0x12E2 JUMP JUMPDEST SWAP8 SWAP7 POP POP POP POP POP POP POP JUMP JUMPDEST PUSH1 0x0 DUP1 PUSH1 0x40 DUP4 DUP6 SUB SLT ISZERO PUSH2 0x1359 JUMPI PUSH1 0x0 DUP1 REVERT JUMPDEST PUSH2 0x1362 DUP4 PUSH2 0x119F JUMP JUMPDEST SWAP5 PUSH1 0x20 SWAP4 SWAP1 SWAP4 ADD CALLDATALOAD SWAP4 POP POP POP JUMP JUMPDEST PUSH1 0x0 DUP1 PUSH1 0x0 DUP1 PUSH1 0x60 DUP6 DUP8 SUB SLT ISZERO PUSH2 0x1386 JUMPI PUSH1 0x0 DUP1 REVERT JUMPDEST DUP5 CALLDATALOAD SWAP4 POP PUSH1 0x20 DUP6 ADD CALLDATALOAD PUSH8 0xFFFFFFFFFFFFFFFF DUP2 GT ISZERO PUSH2 0x13A4 JUMPI PUSH1 0x0 DUP1 REVERT JUMPDEST PUSH2 0x13B0 DUP8 DUP3 DUP9 ADD PUSH2 0x11BB JUMP JUMPDEST SWAP6 SWAP9 SWAP1 SWAP8 POP SWAP5 SWAP6 PUSH1 0x40 ADD CALLDATALOAD SWAP5 SWAP4 POP POP POP POP JUMP JUMPDEST PUSH1 0x0 DUP1 PUSH1 0x0 PUSH1 0x60 DUP5 DUP7 SUB SLT ISZERO PUSH2 0x13D8 JUMPI PUSH1 0x0 DUP1 REVERT JUMPDEST PUSH2 0x13E1 DUP5 PUSH2 0x119F JUMP JUMPDEST SWAP3 POP PUSH2 0x13EF PUSH1 0x20 DUP6 ADD PUSH2 0x119F JUMP JUMPDEST SWAP2 POP PUSH1 0x40 DUP5 ADD CALLDATALOAD SWAP1 POP SWAP3 POP SWAP3 POP SWAP3 JUMP JUMPDEST PUSH1 0x20 DUP1 DUP3 MSTORE PUSH1 0xE SWAP1 DUP3 ADD MSTORE PUSH14 0x444944206E6F7420616374697665 PUSH1 0x90 SHL PUSH1 0x40 DUP3 ADD MSTORE PUSH1 0x60 ADD SWAP1 JUMP JUMPDEST PUSH4 0x4E487B71 PUSH1 0xE0 SHL PUSH1 0x0 MSTORE PUSH1 0x11 PUSH1 0x4 MSTORE PUSH1 0x24 PUSH1 0x0 REVERT JUMPDEST DUP1 DUP3 MUL DUP2 ISZERO DUP3 DUP3 DIV DUP5 EQ OR PUSH2 0x46C JUMPI PUSH2 0x46C PUSH2 0x1427 JUMP JUMPDEST PUSH1 0x0 DUP3 PUSH2 0x1471 JUMPI PUSH4 0x4E487B71 PUSH1 0xE0 SHL PUSH1 0x0 MSTORE PUSH1 0x12 PUSH1 0x4 MSTORE PUSH1 0x24 PUSH1 0x0 REVERT JUMPDEST POP DIV SWAP1 JUMP JUMPDEST DUP2 DUP2 SUB DUP2 DUP2 GT ISZERO PUSH2 0x46C JUMPI PUSH2 0x46C PUSH2 0x1427 JUMP JUMPDEST DUP2 DUP4 MSTORE DUP2 DUP2 PUSH1 0x20 DUP6 ADD CALLDATACOPY POP PUSH1 0x0 DUP3 DUP3 ADD PUSH1 0x20 SWAP1 DUP2 ADD SWAP2 SWAP1 SWAP2 MSTORE PUSH1 0x1F SWAP1 SWAP2 ADD PUSH1 0x1F NOT AND SWAP1 SWAP2 ADD ADD SWAP1 JUMP JUMPDEST PUSH1 0x1 DUP1 PUSH1 0xA0 SHL SUB DUP6 AND DUP2 MSTORE DUP4 PUSH1 0x20 DUP3 ADD MSTORE PUSH1 0x60 PUSH1 0x40 DUP3 ADD MSTORE PUSH1 0x0 PUSH2 0x14DA PUSH1 0x60 DUP4 ADD DUP5 DUP7 PUSH2 0x1489 JUMP JUMPDEST SWAP7 SWAP6 POP POP POP POP POP POP JUMP JUMPDEST PUSH1 0x1 DUP2 DUP2 SHR SWAP1 DUP3 AND DUP1 PUSH2 0x14F8 JUMPI PUSH1 0x7F DUP3 AND SWAP2 POP JUMPDEST PUSH1 0x20 DUP3 LT DUP2 SUB PUSH2 0x1518 JUMPI PUSH4 0x4E487B71 PUSH1 0xE0 SHL PUSH1 0x0 MSTORE PUSH1 0x22 PUSH1 0x4 MSTORE PUSH1 0x24 PUSH1 0x0 REVERT JUMPDEST POP SWAP2 SWAP1 POP JUMP JUMPDEST PUSH1 0x0 PUSH1 0x1 PUSH1 0xFF SHL DUP3 ADD PUSH2 0x1533 JUMPI PUSH2 0x1533 PUSH2 0x1427 JUMP JUMPDEST POP PUSH1 0x0 SUB SWAP1 JUMP JUMPDEST DUP1 DUP3 ADD DUP1 DUP3 GT ISZERO PUSH2 0x46C JUMPI PUSH2 0x46C PUSH2 0x1427 JUMP JUMPDEST PUSH1 0x0 DUP2 PUSH2 0x155C JUMPI PUSH2 0x155C PUSH2 0x1427 JUMP JUMPDEST POP PUSH1 0x0 NOT ADD SWAP1 JUMP JUMPDEST PUSH1 0x0 PUSH1 0x20 DUP3 DUP5 SUB SLT ISZERO PUSH2 0x1576 JUMPI PUSH1 0x0 DUP1 REVERT JUMPDEST DUP2 MLOAD DUP1 ISZERO ISZERO DUP2 EQ PUSH2 0x116E JUMPI PUSH1 0x0 DUP1 REVERT JUMPDEST PUSH4 0x4E487B71 PUSH1 0xE0 SHL PUSH1 0x0 MSTORE PUSH1 0x41 PUSH1 0x4 MSTORE PUSH1 0x24 PUSH1 0x0 REVERT JUMPDEST PUSH1 0x1F DUP3 GT ISZERO PUSH2 0x5CA JUMPI PUSH1 0x0 DUP2 PUSH1 0x0 MSTORE PUSH1 0x20 PUSH1 0x0 KECCAK256 PUSH1 0x1F DUP6 ADD PUSH1 0x5 SHR DUP2 ADD PUSH1 0x20 DUP7 LT ISZERO PUSH2 0x15C5 JUMPI POP DUP1 JUMPDEST PUSH1 0x1F DUP6 ADD PUSH1 0x5 SHR DUP3 ADD SWAP2 POP JUMPDEST DUP2 DUP2 LT ISZERO PUSH2 0x15E4 JUMPI DUP3 DUP2 SSTORE PUSH1 0x1 ADD PUSH2 0x15D1 JUMP JUMPDEST POP POP POP POP POP POP JUMP JUMPDEST DUP2 MLOAD PUSH8 0xFFFFFFFFFFFFFFFF DUP2 GT ISZERO PUSH2 0x1606 JUMPI PUSH2 0x1606 PUSH2 0x1586 JUMP JUMPDEST PUSH2 0x161A DUP2 PUSH2 0x1614 DUP5 SLOAD PUSH2 0x14E4 JUMP JUMPDEST DUP5 PUSH2 0x159C JUMP JUMPDEST PUSH1 0x20 DUP1 PUSH1 0x1F DUP4 GT PUSH1 0x1 DUP2 EQ PUSH2 0x164F JUMPI PUSH1 0x0 DUP5 ISZERO PUSH2 0x1637 JUMPI POP DUP6 DUP4 ADD MLOAD JUMPDEST PUSH1 0x0 NOT PUSH1 0x3 DUP7 SWAP1 SHL SHR NOT AND PUSH1 0x1 DUP6 SWAP1 SHL OR DUP6 SSTORE PUSH2 0x15E4 JUMP JUMPDEST PUSH1 0x0 DUP6 DUP2 MSTORE PUSH1 0x20 DUP2 KECCAK256 PUSH1 0x1F NOT DUP7 AND SWAP2 JUMPDEST DUP3 DUP2 LT ISZERO PUSH2 0x167E JUMPI DUP9 DUP7 ADD MLOAD DUP3 SSTORE SWAP5 DUP5 ADD SWAP5 PUSH1 0x1 SWAP1 SWAP2 ADD SWAP1 DUP5 ADD PUSH2 0x165F JUMP JUMPDEST POP DUP6 DUP3 LT ISZERO PUSH2 0x169C JUMPI DUP8 DUP6 ADD MLOAD PUSH1 0x0 NOT PUSH1 0x3 DUP9 SWAP1 SHL PUSH1 0xF8 AND SHR NOT AND DUP2 SSTORE JUMPDEST POP POP POP POP POP PUSH1 0x1 SWAP1 DUP2 SHL ADD SWAP1 SSTORE POP JUMP JUMPDEST PUSH1 0x0 PUSH1 0x1 DUP3 ADD PUSH2 0x16BE JUMPI PUSH2 0x16BE PUSH2 0x1427 JUMP JUMPDEST POP PUSH1 0x1 ADD SWAP1 JUMP JUMPDEST PUSH1 0x40 DUP2 MSTORE PUSH1 0x0 PUSH2 0x16D9 PUSH1 0x40 DUP4 ADD DUP6 DUP8 PUSH2 0x1489 JUMP JUMPDEST SWAP1 POP DUP3 PUSH1 0x20 DUP4 ADD MSTORE SWAP5 SWAP4 POP POP POP POP JUMP JUMPDEST PUSH32 0x416363657373436F6E74726F6C3A206163636F756E7420000000000000000000 DUP2 MSTORE PUSH1 0x0 DUP4 MLOAD PUSH2 0x1721 DUP2 PUSH1 0x17 DUP6 ADD PUSH1 0x20 DUP9 ADD PUSH2 0x12BE JUMP JUMPDEST PUSH17 0x1034B99036B4B9B9B4B733903937B6329 PUSH1 0x7D SHL PUSH1 0x17 SWAP2 DUP5 ADD SWAP2 DUP3 ADD MSTORE DUP4 MLOAD PUSH2 0x1752 DUP2 PUSH1 0x28 DUP5 ADD PUSH1 0x20 DUP9 ADD PUSH2 0x12BE JUMP JUMPDEST ADD PUSH1 0x28 ADD SWAP5 SWAP4 POP POP POP POP JUMP JUMPDEST PUSH1 0x20 DUP2 MSTORE PUSH1 0x0 PUSH2 0x116E PUSH1 0x20 DUP4 ADD DUP5 PUSH2 0x12E2 JUMP JUMPDEST PUSH4 0x4E487B71 PUSH1 0xE0 SHL PUSH1 0x0 MSTORE PUSH1 0x32 PUSH1 0x4 MSTORE PUSH1 0x24 PUSH1 0x0 REVERT INVALID LOG2 PUSH5 0x6970667358 0x22 SLT KECCAK256 0xE 0xBE DUP8 LOG2 GASPRICE PUSH16 0x3F63D8DC472D33567B04066D11A1192F 0xEE PUSH0 MUL SGT RETURNDATASIZE CALLDATACOPY PUSH32 0x8F82EE64736F6C63430008180033000000000000000000000000000000000000 "},"methodIdentifiers":{"DEFAULT_ADMIN_ROLE()":"a217fddf","MIN_STAKE()":"cb1c2b5c","PAUSER_ROLE()":"e63ab1e9","SLASHER_ROLE()":"5095af64","delegates(address)":"587cde1e","dids(address)":"3593f81b","getCreditScore(address)":"d3dd2bdf","getRoleAdmin(bytes32)":"248a9ca3","getStake(address)":"7a766460","grantRole(bytes32,address)":"2f2ff15d","hasRole(bytes32,address)":"91d14854","isValid(address)":"8b1b925f","pause()":"8456cb59","paused()":"5c975abb","registerDID(uint256)":"d1af37a0","renounceRole(bytes32,address)":"36568abe","revokeDID()":"9790874c","revokeRole(bytes32,address)":"d547741f","setAttribute(bytes32,bytes,uint256)":"d862913f","setDelegate(address,address,uint256)":"e3a0a457","slashStake(address,uint256,string)":"0cedba7b","supportsInterface(bytes4)":"01ffc9a7","totalActiveDIDs()":"c6ecc994","unpause()":"3f4ba83a","updateCredit(address,int256)":"4bcee9e8","workToken()":"360e6823"}}}}}