{
  "_format": "hh-sol-artifact-1",
  "contractName": "QVGovernor",
  "sourceName": "contracts/governance/QVGovernor.sol",
  "abi": [
    {
      "inputs": [
        {
          "internalType": "contract IVotes",
          "name": "govToken",
          "type": "address"
        },
        {
          "internalType": "contract TimelockController",
          "name": "timelock",
          "type": "address"
        },
        {
          "internalType": "contract DIDRegistry",
          "name": "didRegistry_",
          "type": "address"
        },
        {
          "internalType": "contract VotingPoints",
          "name": "votingPoints_",
          "type": "address"
        },
        {
          "internalType": "uint256",
          "name": "proposalThreshold_",
          "type": "uint256"
        },
        {
          "internalType": "uint256",
          "name": "votingDelay_",
          "type": "uint256"
        },
        {
          "internalType": "uint256",
          "name": "votingPeriod_",
          "type": "uint256"
        }
      ],
      "stateMutability": "nonpayable",
      "type": "constructor"
    },
    {
      "inputs": [],
      "name": "Empty",
      "type": "error"
    },
    {
      "inputs": [],
      "name": "InvalidShortString",
      "type": "error"
    },
    {
      "inputs": [
        {
          "internalType": "string",
          "name": "str",
          "type": "string"
        }
      ],
      "name": "StringTooLong",
      "type": "error"
    },
    {
      "anonymous": false,
      "inputs": [],
      "name": "EIP712DomainChanged",
      "type": "event"
    },
    {
      "anonymous": false,
      "inputs": [
        {
          "indexed": false,
          "internalType": "uint256",
          "name": "proposalId",
          "type": "uint256"
        }
      ],
      "name": "ProposalCanceled",
      "type": "event"
    },
    {
      "anonymous": false,
      "inputs": [
        {
          "indexed": false,
          "internalType": "uint256",
          "name": "proposalId",
          "type": "uint256"
        },
        {
          "indexed": false,
          "internalType": "address",
          "name": "proposer",
          "type": "address"
        },
        {
          "indexed": false,
          "internalType": "address[]",
          "name": "targets",
          "type": "address[]"
        },
        {
          "indexed": false,
          "internalType": "uint256[]",
          "name": "values",
          "type": "uint256[]"
        },
        {
          "indexed": false,
          "internalType": "string[]",
          "name": "signatures",
          "type": "string[]"
        },
        {
          "indexed": false,
          "internalType": "bytes[]",
          "name": "calldatas",
          "type": "bytes[]"
        },
        {
          "indexed": false,
          "internalType": "uint256",
          "name": "voteStart",
          "type": "uint256"
        },
        {
          "indexed": false,
          "internalType": "uint256",
          "name": "voteEnd",
          "type": "uint256"
        },
        {
          "indexed": false,
          "internalType": "string",
          "name": "description",
          "type": "string"
        }
      ],
      "name": "ProposalCreated",
      "type": "event"
    },
    {
      "anonymous": false,
      "inputs": [
        {
          "indexed": false,
          "internalType": "uint256",
          "name": "proposalId",
          "type": "uint256"
        }
      ],
      "name": "ProposalExecuted",
      "type": "event"
    },
    {
      "anonymous": false,
      "inputs": [
        {
          "indexed": false,
          "internalType": "uint256",
          "name": "proposalId",
          "type": "uint256"
        },
        {
          "indexed": false,
          "internalType": "uint256",
          "name": "eta",
          "type": "uint256"
        }
      ],
      "name": "ProposalQueued",
      "type": "event"
    },
    {
      "anonymous": false,
      "inputs": [
        {
          "indexed": false,
          "internalType": "uint256",
          "name": "oldProposalThreshold",
          "type": "uint256"
        },
        {
          "indexed": false,
          "internalType": "uint256",
          "name": "newProposalThreshold",
          "type": "uint256"
        }
      ],
      "name": "ProposalThresholdSet",
      "type": "event"
    },
    {
      "anonymous": false,
      "inputs": [
        {
          "indexed": false,
          "internalType": "address",
          "name": "oldTimelock",
          "type": "address"
        },
        {
          "indexed": false,
          "internalType": "address",
          "name": "newTimelock",
          "type": "address"
        }
      ],
      "name": "TimelockChange",
      "type": "event"
    },
    {
      "anonymous": false,
      "inputs": [
        {
          "indexed": true,
          "internalType": "address",
          "name": "voter",
          "type": "address"
        },
        {
          "indexed": false,
          "internalType": "uint256",
          "name": "proposalId",
          "type": "uint256"
        },
        {
          "indexed": false,
          "internalType": "uint8",
          "name": "support",
          "type": "uint8"
        },
        {
          "indexed": false,
          "internalType": "uint256",
          "name": "weight",
          "type": "uint256"
        },
        {
          "indexed": false,
          "internalType": "string",
          "name": "reason",
          "type": "string"
        }
      ],
      "name": "VoteCast",
      "type": "event"
    },
    {
      "anonymous": false,
      "inputs": [
        {
          "indexed": true,
          "internalType": "address",
          "name": "voter",
          "type": "address"
        },
        {
          "indexed": false,
          "internalType": "uint256",
          "name": "proposalId",
          "type": "uint256"
        },
        {
          "indexed": false,
          "internalType": "uint8",
          "name": "support",
          "type": "uint8"
        },
        {
          "indexed": false,
          "internalType": "uint256",
          "name": "weight",
          "type": "uint256"
        },
        {
          "indexed": false,
          "internalType": "string",
          "name": "reason",
          "type": "string"
        },
        {
          "indexed": false,
          "internalType": "bytes",
          "name": "params",
          "type": "bytes"
        }
      ],
      "name": "VoteCastWithParams",
      "type": "event"
    },
    {
      "anonymous": false,
      "inputs": [
        {
          "indexed": false,
          "internalType": "uint256",
          "name": "oldVotingDelay",
          "type": "uint256"
        },
        {
          "indexed": false,
          "internalType": "uint256",
          "name": "newVotingDelay",
          "type": "uint256"
        }
      ],
      "name": "VotingDelaySet",
      "type": "event"
    },
    {
      "anonymous": false,
      "inputs": [
        {
          "indexed": false,
          "internalType": "uint256",
          "name": "oldVotingPeriod",
          "type": "uint256"
        },
        {
          "indexed": false,
          "internalType": "uint256",
          "name": "newVotingPeriod",
          "type": "uint256"
        }
      ],
      "name": "VotingPeriodSet",
      "type": "event"
    },
    {
      "inputs": [],
      "name": "BALLOT_TYPEHASH",
      "outputs": [
        {
          "internalType": "bytes32",
          "name": "",
          "type": "bytes32"
        }
      ],
      "stateMutability": "view",
      "type": "function"
    },
    {
      "inputs": [],
      "name": "CLOCK_MODE",
      "outputs": [
        {
          "internalType": "string",
          "name": "",
          "type": "string"
        }
      ],
      "stateMutability": "view",
      "type": "function"
    },
    {
      "inputs": [],
      "name": "COUNTING_MODE",
      "outputs": [
        {
          "internalType": "string",
          "name": "",
          "type": "string"
        }
      ],
      "stateMutability": "pure",
      "type": "function"
    },
    {
      "inputs": [],
      "name": "EXTENDED_BALLOT_TYPEHASH",
      "outputs": [
        {
          "internalType": "bytes32",
          "name": "",
          "type": "bytes32"
        }
      ],
      "stateMutability": "view",
      "type": "function"
    },
    {
      "inputs": [
        {
          "internalType": "address[]",
          "name": "targets",
          "type": "address[]"
        },
        {
          "internalType": "uint256[]",
          "name": "values",
          "type": "uint256[]"
        },
        {
          "internalType": "bytes[]",
          "name": "calldatas",
          "type": "bytes[]"
        },
        {
          "internalType": "bytes32",
          "name": "descriptionHash",
          "type": "bytes32"
        }
      ],
      "name": "cancel",
      "outputs": [
        {
          "internalType": "uint256",
          "name": "",
          "type": "uint256"
        }
      ],
      "stateMutability": "nonpayable",
      "type": "function"
    },
    {
      "inputs": [
        {
          "internalType": "uint256",
          "name": "proposalId",
          "type": "uint256"
        },
        {
          "internalType": "uint8",
          "name": "support",
          "type": "uint8"
        }
      ],
      "name": "castVote",
      "outputs": [
        {
          "internalType": "uint256",
          "name": "",
          "type": "uint256"
        }
      ],
      "stateMutability": "nonpayable",
      "type": "function"
    },
    {
      "inputs": [
        {
          "internalType": "uint256",
          "name": "proposalId",
          "type": "uint256"
        },
        {
          "internalType": "uint8",
          "name": "support",
          "type": "uint8"
        },
        {
          "internalType": "uint8",
          "name": "v",
          "type": "uint8"
        },
        {
          "internalType": "bytes32",
          "name": "r",
          "type": "bytes32"
        },
        {
          "internalType": "bytes32",
          "name": "s",
          "type": "bytes32"
        }
      ],
      "name": "castVoteBySig",
      "outputs": [
        {
          "internalType": "uint256",
          "name": "",
          "type": "uint256"
        }
      ],
      "stateMutability": "nonpayable",
      "type": "function"
    },
    {
      "inputs": [
        {
          "internalType": "uint256",
          "name": "proposalId",
          "type": "uint256"
        },
        {
          "internalType": "uint8",
          "name": "support",
          "type": "uint8"
        },
        {
          "internalType": "uint256",
          "name": "votes",
          "type": "uint256"
        }
      ],
      "name": "castVoteWithQV",
      "outputs": [
        {
          "internalType": "uint256",
          "name": "",
          "type": "uint256"
        }
      ],
      "stateMutability": "nonpayable",
      "type": "function"
    },
    {
      "inputs": [
        {
          "internalType": "uint256",
          "name": "proposalId",
          "type": "uint256"
        },
        {
          "internalType": "uint8",
          "name": "support",
          "type": "uint8"
        },
        {
          "internalType": "string",
          "name": "reason",
          "type": "string"
        }
      ],
      "name": "castVoteWithReason",
      "outputs": [
        {
          "internalType": "uint256",
          "name": "",
          "type": "uint256"
        }
      ],
      "stateMutability": "nonpayable",
      "type": "function"
    },
    {
      "inputs": [
        {
          "internalType": "uint256",
          "name": "proposalId",
          "type": "uint256"
        },
        {
          "internalType": "uint8",
          "name": "support",
          "type": "uint8"
        },
        {
          "internalType": "string",
          "name": "reason",
          "type": "string"
        },
        {
          "internalType": "bytes",
          "name": "params",
          "type": "bytes"
        }
      ],
      "name": "castVoteWithReasonAndParams",
      "outputs": [
        {
          "internalType": "uint256",
          "name": "",
          "type": "uint256"
        }
      ],
      "stateMutability": "nonpayable",
      "type": "function"
    },
    {
      "inputs": [
        {
          "internalType": "uint256",
          "name": "proposalId",
          "type": "uint256"
        },
        {
          "internalType": "uint8",
          "name": "support",
          "type": "uint8"
        },
        {
          "internalType": "string",
          "name": "reason",
          "type": "string"
        },
        {
          "internalType": "bytes",
          "name": "params",
          "type": "bytes"
        },
        {
          "internalType": "uint8",
          "name": "v",
          "type": "uint8"
        },
        {
          "internalType": "bytes32",
          "name": "r",
          "type": "bytes32"
        },
        {
          "internalType": "bytes32",
          "name": "s",
          "type": "bytes32"
        }
      ],
      "name": "castVoteWithReasonAndParamsBySig",
      "outputs": [
        {
          "internalType": "uint256",
          "name": "",
          "type": "uint256"
        }
      ],
      "stateMutability": "nonpayable",
      "type": "function"
    },
    {
      "inputs": [],
      "name": "clock",
      "outputs": [
        {
          "internalType": "uint48",
          "name": "",
          "type": "uint48"
        }
      ],
      "stateMutability": "view",
      "type": "function"
    },
    {
      "inputs": [],
      "name": "didRegistry",
      "outputs": [
        {
          "internalType": "contract DIDRegistry",
          "name": "",
          "type": "address"
        }
      ],
      "stateMutability": "view",
      "type": "function"
    },
    {
      "inputs": [],
      "name": "eip712Domain",
      "outputs": [
        {
          "internalType": "bytes1",
          "name": "fields",
          "type": "bytes1"
        },
        {
          "internalType": "string",
          "name": "name",
          "type": "string"
        },
        {
          "internalType": "string",
          "name": "version",
          "type": "string"
        },
        {
          "internalType": "uint256",
          "name": "chainId",
          "type": "uint256"
        },
        {
          "internalType": "address",
          "name": "verifyingContract",
          "type": "address"
        },
        {
          "internalType": "bytes32",
          "name": "salt",
          "type": "bytes32"
        },
        {
          "internalType": "uint256[]",
          "name": "extensions",
          "type": "uint256[]"
        }
      ],
      "stateMutability": "view",
      "type": "function"
    },
    {
      "inputs": [
        {
          "internalType": "address[]",
          "name": "targets",
          "type": "address[]"
        },
        {
          "internalType": "uint256[]",
          "name": "values",
          "type": "uint256[]"
        },
        {
          "internalType": "bytes[]",
          "name": "calldatas",
          "type": "bytes[]"
        },
        {
          "internalType": "bytes32",
          "name": "descriptionHash",
          "type": "bytes32"
        }
      ],
      "name": "execute",
      "outputs": [
        {
          "internalType": "uint256",
          "name": "",
          "type": "uint256"
        }
      ],
      "stateMutability": "payable",
      "type": "function"
    },
    {
      "inputs": [
        {
          "internalType": "address",
          "name": "account",
          "type": "address"
        },
        {
          "internalType": "uint256",
          "name": "timepoint",
          "type": "uint256"
        }
      ],
      "name": "getVotes",
      "outputs": [
        {
          "internalType": "uint256",
          "name": "",
          "type": "uint256"
        }
      ],
      "stateMutability": "view",
      "type": "function"
    },
    {
      "inputs": [
        {
          "internalType": "address",
          "name": "account",
          "type": "address"
        },
        {
          "internalType": "uint256",
          "name": "timepoint",
          "type": "uint256"
        },
        {
          "internalType": "bytes",
          "name": "params",
          "type": "bytes"
        }
      ],
      "name": "getVotesWithParams",
      "outputs": [
        {
          "internalType": "uint256",
          "name": "",
          "type": "uint256"
        }
      ],
      "stateMutability": "view",
      "type": "function"
    },
    {
      "inputs": [
        {
          "internalType": "uint256",
          "name": "proposalId",
          "type": "uint256"
        },
        {
          "internalType": "address",
          "name": "account",
          "type": "address"
        }
      ],
      "name": "hasVoted",
      "outputs": [
        {
          "internalType": "bool",
          "name": "",
          "type": "bool"
        }
      ],
      "stateMutability": "view",
      "type": "function"
    },
    {
      "inputs": [
        {
          "internalType": "address[]",
          "name": "targets",
          "type": "address[]"
        },
        {
          "internalType": "uint256[]",
          "name": "values",
          "type": "uint256[]"
        },
        {
          "internalType": "bytes[]",
          "name": "calldatas",
          "type": "bytes[]"
        },
        {
          "internalType": "bytes32",
          "name": "descriptionHash",
          "type": "bytes32"
        }
      ],
      "name": "hashProposal",
      "outputs": [
        {
          "internalType": "uint256",
          "name": "",
          "type": "uint256"
        }
      ],
      "stateMutability": "pure",
      "type": "function"
    },
    {
      "inputs": [],
      "name": "name",
      "outputs": [
        {
          "internalType": "string",
          "name": "",
          "type": "string"
        }
      ],
      "stateMutability": "view",
      "type": "function"
    },
    {
      "inputs": [
        {
          "internalType": "address",
          "name": "",
          "type": "address"
        },
        {
          "internalType": "address",
          "name": "",
          "type": "address"
        },
        {
          "internalType": "uint256[]",
          "name": "",
          "type": "uint256[]"
        },
        {
          "internalType": "uint256[]",
          "name": "",
          "type": "uint256[]"
        },
        {
          "internalType": "bytes",
          "name": "",
          "type": "bytes"
        }
      ],
      "name": "onERC1155BatchReceived",
      "outputs": [
        {
          "internalType": "bytes4",
          "name": "",
          "type": "bytes4"
        }
      ],
      "stateMutability": "nonpayable",
      "type": "function"
    },
    {
      "inputs": [
        {
          "internalType": "address",
          "name": "",
          "type": "address"
        },
        {
          "internalType": "address",
          "name": "",
          "type": "address"
        },
        {
          "internalType": "uint256",
          "name": "",
          "type": "uint256"
        },
        {
          "internalType": "uint256",
          "name": "",
          "type": "uint256"
        },
        {
          "internalType": "bytes",
          "name": "",
          "type": "bytes"
        }
      ],
      "name": "onERC1155Received",
      "outputs": [
        {
          "internalType": "bytes4",
          "name": "",
          "type": "bytes4"
        }
      ],
      "stateMutability": "nonpayable",
      "type": "function"
    },
    {
      "inputs": [
        {
          "internalType": "address",
          "name": "",
          "type": "address"
        },
        {
          "internalType": "address",
          "name": "",
          "type": "address"
        },
        {
          "internalType": "uint256",
          "name": "",
          "type": "uint256"
        },
        {
          "internalType": "bytes",
          "name": "",
          "type": "bytes"
        }
      ],
      "name": "onERC721Received",
      "outputs": [
        {
          "internalType": "bytes4",
          "name": "",
          "type": "bytes4"
        }
      ],
      "stateMutability": "nonpayable",
      "type": "function"
    },
    {
      "inputs": [
        {
          "internalType": "uint256",
          "name": "proposalId",
          "type": "uint256"
        }
      ],
      "name": "proposalDeadline",
      "outputs": [
        {
          "internalType": "uint256",
          "name": "",
          "type": "uint256"
        }
      ],
      "stateMutability": "view",
      "type": "function"
    },
    {
      "inputs": [
        {
          "internalType": "uint256",
          "name": "proposalId",
          "type": "uint256"
        }
      ],
      "name": "proposalEta",
      "outputs": [
        {
          "internalType": "uint256",
          "name": "",
          "type": "uint256"
        }
      ],
      "stateMutability": "view",
      "type": "function"
    },
    {
      "inputs": [
        {
          "internalType": "uint256",
          "name": "proposalId",
          "type": "uint256"
        }
      ],
      "name": "proposalProposer",
      "outputs": [
        {
          "internalType": "address",
          "name": "",
          "type": "address"
        }
      ],
      "stateMutability": "view",
      "type": "function"
    },
    {
      "inputs": [
        {
          "internalType": "uint256",
          "name": "proposalId",
          "type": "uint256"
        }
      ],
      "name": "proposalSnapshot",
      "outputs": [
        {
          "internalType": "uint256",
          "name": "",
          "type": "uint256"
        }
      ],
      "stateMutability": "view",
      "type": "function"
    },
    {
      "inputs": [],
      "name": "proposalThreshold",
      "outputs": [
        {
          "internalType": "uint256",
          "name": "",
          "type": "uint256"
        }
      ],
      "stateMutability": "view",
      "type": "function"
    },
    {
      "inputs": [
        {
          "internalType": "uint256",
          "name": "proposalId",
          "type": "uint256"
        }
      ],
      "name": "proposalVotes",
      "outputs": [
        {
          "internalType": "uint256",
          "name": "againstVotes",
          "type": "uint256"
        },
        {
          "internalType": "uint256",
          "name": "forVotes",
          "type": "uint256"
        },
        {
          "internalType": "uint256",
          "name": "abstainVotes",
          "type": "uint256"
        }
      ],
      "stateMutability": "view",
      "type": "function"
    },
    {
      "inputs": [
        {
          "internalType": "address[]",
          "name": "targets",
          "type": "address[]"
        },
        {
          "internalType": "uint256[]",
          "name": "values",
          "type": "uint256[]"
        },
        {
          "internalType": "bytes[]",
          "name": "calldatas",
          "type": "bytes[]"
        },
        {
          "internalType": "string",
          "name": "description",
          "type": "string"
        }
      ],
      "name": "propose",
      "outputs": [
        {
          "internalType": "uint256",
          "name": "",
          "type": "uint256"
        }
      ],
      "stateMutability": "nonpayable",
      "type": "function"
    },
    {
      "inputs": [
        {
          "internalType": "address[]",
          "name": "targets",
          "type": "address[]"
        },
        {
          "internalType": "uint256[]",
          "name": "values",
          "type": "uint256[]"
        },
        {
          "internalType": "bytes[]",
          "name": "calldatas",
          "type": "bytes[]"
        },
        {
          "internalType": "bytes32",
          "name": "descriptionHash",
          "type": "bytes32"
        }
      ],
      "name": "queue",
      "outputs": [
        {
          "internalType": "uint256",
          "name": "",
          "type": "uint256"
        }
      ],
      "stateMutability": "nonpayable",
      "type": "function"
    },
    {
      "inputs": [
        {
          "internalType": "uint256",
          "name": "",
          "type": "uint256"
        }
      ],
      "name": "quorum",
      "outputs": [
        {
          "internalType": "uint256",
          "name": "",
          "type": "uint256"
        }
      ],
      "stateMutability": "pure",
      "type": "function"
    },
    {
      "inputs": [
        {
          "internalType": "address",
          "name": "target",
          "type": "address"
        },
        {
          "internalType": "uint256",
          "name": "value",
          "type": "uint256"
        },
        {
          "internalType": "bytes",
          "name": "data",
          "type": "bytes"
        }
      ],
      "name": "relay",
      "outputs": [],
      "stateMutability": "payable",
      "type": "function"
    },
    {
      "inputs": [
        {
          "internalType": "uint256",
          "name": "newProposalThreshold",
          "type": "uint256"
        }
      ],
      "name": "setProposalThreshold",
      "outputs": [],
      "stateMutability": "nonpayable",
      "type": "function"
    },
    {
      "inputs": [
        {
          "internalType": "uint256",
          "name": "newVotingDelay",
          "type": "uint256"
        }
      ],
      "name": "setVotingDelay",
      "outputs": [],
      "stateMutability": "nonpayable",
      "type": "function"
    },
    {
      "inputs": [
        {
          "internalType": "uint256",
          "name": "newVotingPeriod",
          "type": "uint256"
        }
      ],
      "name": "setVotingPeriod",
      "outputs": [],
      "stateMutability": "nonpayable",
      "type": "function"
    },
    {
      "inputs": [
        {
          "internalType": "uint256",
          "name": "proposalId",
          "type": "uint256"
        }
      ],
      "name": "state",
      "outputs": [
        {
          "internalType": "enum IGovernor.ProposalState",
          "name": "",
          "type": "uint8"
        }
      ],
      "stateMutability": "view",
      "type": "function"
    },
    {
      "inputs": [
        {
          "internalType": "bytes4",
          "name": "interfaceId",
          "type": "bytes4"
        }
      ],
      "name": "supportsInterface",
      "outputs": [
        {
          "internalType": "bool",
          "name": "",
          "type": "bool"
        }
      ],
      "stateMutability": "view",
      "type": "function"
    },
    {
      "inputs": [],
      "name": "timelock",
      "outputs": [
        {
          "internalType": "address",
          "name": "",
          "type": "address"
        }
      ],
      "stateMutability": "view",
      "type": "function"
    },
    {
      "inputs": [],
      "name": "token",
      "outputs": [
        {
          "internalType": "contract IERC5805",
          "name": "",
          "type": "address"
        }
      ],
      "stateMutability": "view",
      "type": "function"
    },
    {
      "inputs": [
        {
          "internalType": "contract TimelockController",
          "name": "newTimelock",
          "type": "address"
        }
      ],
      "name": "updateTimelock",
      "outputs": [],
      "stateMutability": "nonpayable",
      "type": "function"
    },
    {
      "inputs": [],
      "name": "version",
      "outputs": [
        {
          "internalType": "string",
          "name": "",
          "type": "string"
        }
      ],
      "stateMutability": "view",
      "type": "function"
    },
    {
      "inputs": [],
      "name": "votingDelay",
      "outputs": [
        {
          "internalType": "uint256",
          "name": "",
          "type": "uint256"
        }
      ],
      "stateMutability": "view",
      "type": "function"
    },
    {
      "inputs": [],
      "name": "votingPeriod",
      "outputs": [
        {
          "internalType": "uint256",
          "name": "",
          "type": "uint256"
        }
      ],
      "stateMutability": "view",
      "type": "function"
    },
    {
      "inputs": [],
      "name": "votingPoints",
      "outputs": [
        {
          "internalType": "contract VotingPoints",
          "name": "",
          "type": "address"
        }
      ],
      "stateMutability": "view",
      "type": "function"
    },
    {
      "stateMutability": "payable",
      "type": "receive"
    }
  ],
  "bytecode": "0x6101c06040523480156200001257600080fd5b50604051620046cb380380620046cb8339810160408190526200003591620003d3565b85878383866040518060400160405280600a81526020016928ab23b7bb32b93737b960b11b815250806200006e6200019160201b60201c565b6200007b826000620001ac565b610120526200008c816001620001ac565b61014052815160208084019190912060e052815190820120610100524660a0526200011a60e05161010051604080517f8b73c3c69bb8fe3d512ecc4cf759cc79239f7b179b0ffacaa9a75d522b39400f60208201529081019290925260608201524660808201523060a082015260009060c00160405160208183030381529060405280519060200120905090565b60805250503060c052600262000131828262000501565b506200013f905083620001e5565b6200014a8262000226565b6200015581620002cd565b5050506001600160a01b03166101605262000170816200030e565b5050506001600160a01b039283166101805250166101a05250620006439050565b6040805180820190915260018152603160f81b602082015290565b6000602083511015620001cc57620001c48362000377565b9050620001df565b81620001d9848262000501565b5060ff90505b92915050565b60065460408051918252602082018390527fc565b045403dc03c2eea82b81a0465edad9e2e7fc4d97e11421c209da93d7a93910160405180910390a1600655565b600081116200028c5760405162461bcd60e51b815260206004820152602760248201527f476f7665726e6f7253657474696e67733a20766f74696e6720706572696f6420604482015266746f6f206c6f7760c81b60648201526084015b60405180910390fd5b60075460408051918252602082018390527f7e3f7f0708a84de9203036abaa450dccc85ad5ff52f78c170f3edb55cf5e8828910160405180910390a1600755565b60085460408051918252602082018390527fccb45da8d5717e6c4544694297c4ba5cf151d455c9bb0ed4fc7a38411bc05461910160405180910390a1600855565b600a54604080516001600160a01b03928316815291831660208301527f08f74ea46ef7894f65eabfb5e6e695de773a000b47c529ab559178069b226401910160405180910390a1600a80546001600160a01b0319166001600160a01b0392909216919091179055565b600080829050601f81511115620003a5578260405163305a27a960e01b8152600401620002839190620005cd565b8051620003b2826200061e565b179392505050565b6001600160a01b0381168114620003d057600080fd5b50565b600080600080600080600060e0888a031215620003ef57600080fd5b8751620003fc81620003ba565b60208901519097506200040f81620003ba565b60408901519096506200042281620003ba565b60608901519095506200043581620003ba565b809450506080880151925060a0880151915060c0880151905092959891949750929550565b634e487b7160e01b600052604160045260246000fd5b600181811c908216806200048557607f821691505b602082108103620004a657634e487b7160e01b600052602260045260246000fd5b50919050565b601f821115620004fc576000816000526020600020601f850160051c81016020861015620004d75750805b601f850160051c820191505b81811015620004f857828155600101620004e3565b5050505b505050565b81516001600160401b038111156200051d576200051d6200045a565b62000535816200052e845462000470565b84620004ac565b602080601f8311600181146200056d5760008415620005545750858301515b600019600386901b1c1916600185901b178555620004f8565b600085815260208120601f198616915b828110156200059e578886015182559484019460019091019084016200057d565b5085821015620005bd5787850151600019600388901b60f8161c191681555b5050505050600190811b01905550565b60006020808352835180602085015260005b81811015620005fd57858101830151858201604001528201620005df565b506000604082860101526040601f19601f8301168501019250505092915050565b80516020808301519190811015620004a65760001960209190910360031b1b16919050565b60805160a05160c05160e05161010051610120516101405161016051610180516101a051613fe9620006e26000396000818161069c0152611715015260008181610648015261163a0152600081816109f60152818161106b0152818161131101526122ef015260006112bd01526000611293015260006126360152600061260e0152600061256901526000612593015260006125bd0152613fe96000f3fe6080604052600436106102765760003560e01c806370b0f6601161014f578063c28bc2fa116100c1578063ea0217cf1161007a578063ea0217cf14610937578063eb9019d414610957578063ece40cc114610977578063f23a6e6114610997578063f8ce560a146109c3578063fc0c546a146109e457600080fd5b8063c28bc2fa1461084c578063c59057e41461085f578063ccabe43b1461087f578063d33219b41461089f578063dd4e2ba5146108bd578063deaaa7cc1461090357600080fd5b80639a802a6d116101135780639a802a6d14610772578063a890c91014610792578063ab58fb8e146107b2578063b58131b0146107d2578063bc197c81146107e7578063c01f9e371461081357600080fd5b806370b0f660146106be5780637b3c71d3146106de5780637d5e81e2146106fe57806384b0196e1461071e57806391ddadf41461074657600080fd5b80633bccf4fd116101e8578063544ffc9c116101ac578063544ffc9c1461059757806354fd4d50146105ec5780635678138814610616578063577f9fb1146106365780635f398a141461066a578063674110a21461068a57600080fd5b80633bccf4fd146104cb5780633e4f49e6146104eb5780634385963214610518578063452115d6146105625780634bf5d7e91461058257600080fd5b8063150b7a021161023a578063150b7a02146103d5578063160cbed7146104195780632656227d146104395780632d63f6931461044c5780632fe3e261146104825780633932abb1146104b657600080fd5b806301ffc9a7146102e657806302a251a31461031b578063034201811461033e57806306fdde031461035e578063143489d01461038057600080fd5b366102e15730610284610a18565b6001600160a01b0316146102df5760405162461bcd60e51b815260206004820152601f60248201527f476f7665726e6f723a206d7573742073656e6420746f206578656375746f720060448201526064015b60405180910390fd5b005b600080fd5b3480156102f257600080fd5b5061030661030136600461307f565b610a31565b60405190151581526020015b60405180910390f35b34801561032757600080fd5b50610330610a42565b604051908152602001610312565b34801561034a57600080fd5b506103306103593660046131cd565b610a4d565b34801561036a57600080fd5b50610373610b45565b60405161031291906132c3565b34801561038c57600080fd5b506103bd61039b3660046132d6565b600090815260036020526040902054600160401b90046001600160a01b031690565b6040516001600160a01b039091168152602001610312565b3480156103e157600080fd5b506104006103f0366004613304565b630a85bd0160e11b949350505050565b6040516001600160e01b03199091168152602001610312565b34801561042557600080fd5b506103306104343660046134e3565b610bd7565b6103306104473660046134e3565b610dd8565b34801561045857600080fd5b506103306104673660046132d6565b6000908152600360205260409020546001600160401b031690565b34801561048e57600080fd5b506103307fb3b3f3b703cd84ce352197dcff232b1b5d3cfb2025ce47cf04742d0651f1af8881565b3480156104c257600080fd5b50610330610eca565b3480156104d757600080fd5b506103306104e6366004613572565b610ed5565b3480156104f757600080fd5b5061050b6105063660046132d6565b610f4b565b60405161031291906135d6565b34801561052457600080fd5b506103066105333660046135fe565b60008281526009602090815260408083206001600160a01b038516845260030190915290205460ff1692915050565b34801561056e57600080fd5b5061033061057d3660046134e3565b610f56565b34801561058e57600080fd5b50610373611067565b3480156105a357600080fd5b506105d16105b23660046132d6565b6000908152600960205260409020805460018201546002909201549092565b60408051938452602084019290925290820152606001610312565b3480156105f857600080fd5b506040805180820190915260018152603160f81b6020820152610373565b34801561062257600080fd5b5061033061063136600461362e565b611129565b34801561064257600080fd5b506103bd7f000000000000000000000000000000000000000000000000000000000000000081565b34801561067657600080fd5b5061033061068536600461365a565b611152565b34801561069657600080fd5b506103bd7f000000000000000000000000000000000000000000000000000000000000000081565b3480156106ca57600080fd5b506102df6106d93660046132d6565b61119c565b3480156106ea57600080fd5b506103306106f93660046136dd565b611226565b34801561070a57600080fd5b50610330610719366004613736565b61126e565b34801561072a57600080fd5b50610733611285565b6040516103129796959493929190613826565b34801561075257600080fd5b5061075b61130d565b60405165ffffffffffff9091168152602001610312565b34801561077e57600080fd5b5061033061078d366004613888565b611396565b34801561079e57600080fd5b506102df6107ad3660046138e0565b6113ad565b3480156107be57600080fd5b506103306107cd3660046132d6565b611434565b3480156107de57600080fd5b506103306114ce565b3480156107f357600080fd5b506104006108023660046138fd565b63bc197c8160e01b95945050505050565b34801561081f57600080fd5b5061033061082e3660046132d6565b6000908152600360205260409020600101546001600160401b031690565b6102df61085a366004613990565b6114d9565b34801561086b57600080fd5b5061033061087a3660046134e3565b6115e8565b34801561088b57600080fd5b5061033061089a3660046139d3565b611622565b3480156108ab57600080fd5b50600a546001600160a01b03166103bd565b3480156108c957600080fd5b506040805180820190915260208082527f737570706f72743d627261766f2671756f72756d3d666f722c6162737461696e90820152610373565b34801561090f57600080fd5b506103307f150214d74d59b7d1e90c73fc22ef3d991dd0a76b046543d4d80ab92d2a50328f81565b34801561094357600080fd5b506102df6109523660046132d6565b6117c8565b34801561096357600080fd5b50610330610972366004613a08565b61184f565b34801561098357600080fd5b506102df6109923660046132d6565b611870565b3480156109a357600080fd5b506104006109b2366004613a34565b63f23a6e6160e01b95945050505050565b3480156109cf57600080fd5b506103306109de3660046132d6565b50600a90565b3480156109f057600080fd5b506103bd7f000000000000000000000000000000000000000000000000000000000000000081565b6000610a2c600a546001600160a01b031690565b905090565b6000610a3c826118f7565b92915050565b6000610a2c60075490565b600080610af1610ae97fb3b3f3b703cd84ce352197dcff232b1b5d3cfb2025ce47cf04742d0651f1af888c8c8c8c604051610a89929190613a9c565b60405180910390208b80519060200120604051602001610ace959493929190948552602085019390935260ff9190911660408401526060830152608082015260a00190565b6040516020818303038152906040528051906020012061191c565b868686611949565b9050610b378a828b8b8b8080601f0160208091040260200160405190810160405280939291908181526020018383808284376000920191909152508d9250611967915050565b9a9950505050505050505050565b606060028054610b5490613aac565b80601f0160208091040260200160405190810160405280929190818152602001828054610b8090613aac565b8015610bcd5780601f10610ba257610100808354040283529160200191610bcd565b820191906000526020600020905b815481529060010190602001808311610bb057829003601f168201915b5050505050905090565b600080610be6868686866115e8565b90506004610bf382610f4b565b6007811115610c0457610c046135c0565b14610c215760405162461bcd60e51b81526004016102d690613ae6565b600a546040805163793d064960e11b815290516000926001600160a01b03169163f27a0c929160048083019260209291908290030181865afa158015610c6b573d6000803e3d6000fd5b505050506040513d601f19601f82011682018060405250810190610c8f9190613b27565b600a5460405163b1c5f42760e01b81529192506001600160a01b03169063b1c5f42790610cc9908a908a908a906000908b90600401613bd4565b602060405180830381865afa158015610ce6573d6000803e3d6000fd5b505050506040513d601f19601f82011682018060405250810190610d0a9190613b27565b6000838152600b602052604080822092909255600a5491516308f2a0bb60e41b81526001600160a01b0390921691638f2a0bb091610d55918b918b918b91908b908990600401613c22565b600060405180830381600087803b158015610d6f57600080fd5b505af1158015610d83573d6000803e3d6000fd5b505050507f9a2e42fd6722813d69113e7d0079d3d940171428df7373df9c7f7617cfda2892828242610db59190613c90565b604080519283526020830191909152015b60405180910390a15095945050505050565b600080610de7868686866115e8565b90506000610df482610f4b565b90506004816007811115610e0a57610e0a6135c0565b1480610e2757506005816007811115610e2557610e256135c0565b145b610e435760405162461bcd60e51b81526004016102d690613ae6565b60008281526003602052604090819020600201805460ff19166001179055517f712ae1383f79ac853f8d882153778e0260ef8f03b504e2866e0593e04d2b291f90610e919084815260200190565b60405180910390a1610ea68288888888611abc565b610eb38288888888611b56565b610ec08288888888611b63565b5095945050505050565b6000610a2c60065490565b604080517f150214d74d59b7d1e90c73fc22ef3d991dd0a76b046543d4d80ab92d2a50328f602082015290810186905260ff851660608201526000908190610f2390610ae990608001610ace565b9050610f4087828860405180602001604052806000815250611b9c565b979650505050505050565b6000610a3c82611bbf565b600080610f65868686866115e8565b90506000610f7282610f4b565b6007811115610f8357610f836135c0565b14610fd05760405162461bcd60e51b815260206004820152601c60248201527f476f7665726e6f723a20746f6f206c61746520746f2063616e63656c0000000060448201526064016102d6565b600081815260036020526040902054600160401b90046001600160a01b0316336001600160a01b0316146110515760405162461bcd60e51b815260206004820152602260248201527f476f7665726e6f723a206f6e6c792070726f706f7365722063616e2063616e63604482015261195b60f21b60648201526084016102d6565b61105d86868686611d09565b9695505050505050565b60607f00000000000000000000000000000000000000000000000000000000000000006001600160a01b0316634bf5d7e96040518163ffffffff1660e01b8152600401600060405180830381865afa9250505080156110e857506040513d6000823e601f3d908101601f191682016040526110e59190810190613ca3565b60015b611124575060408051808201909152601d81527f6d6f64653d626c6f636b6e756d6265722666726f6d3d64656661756c74000000602082015290565b919050565b60008033905061114a84828560405180602001604052806000815250611b9c565b949350505050565b600080339050610f4087828888888080601f0160208091040260200160405190810160405280939291908181526020018383808284376000920191909152508a9250611967915050565b6111a4610a18565b6001600160a01b0316336001600160a01b0316146111d45760405162461bcd60e51b81526004016102d690613d10565b306111dd610a18565b6001600160a01b03161461121a57600080366040516111fd929190613a9c565b604051809103902090505b806112136004611d17565b0361120857505b61122381611d96565b50565b60008033905061105d86828787878080601f016020809104026020016040519081016040528093929190818152602001838380828437600092019190915250611b9c92505050565b600061127c85858585611dd7565b95945050505050565b6000606080828080836112b87f0000000000000000000000000000000000000000000000000000000000000000836121b0565b6112e37f000000000000000000000000000000000000000000000000000000000000000060016121b0565b60408051600080825260208201909252600f60f81b9b939a50919850469750309650945092509050565b60007f00000000000000000000000000000000000000000000000000000000000000006001600160a01b03166391ddadf46040518163ffffffff1660e01b8152600401602060405180830381865afa925050508015611389575060408051601f3d908101601f1916820190925261138691810190613d47565b60015b61112457610a2c4361225b565b60006113a38484846122c6565b90505b9392505050565b6113b5610a18565b6001600160a01b0316336001600160a01b0316146113e55760405162461bcd60e51b81526004016102d690613d10565b306113ee610a18565b6001600160a01b03161461142b576000803660405161140e929190613a9c565b604051809103902090505b806114246004611d17565b0361141957505b6112238161235c565b600a546000828152600b602052604080822054905163d45c443560e01b81526004810191909152909182916001600160a01b039091169063d45c443590602401602060405180830381865afa158015611491573d6000803e3d6000fd5b505050506040513d601f19601f820116820180604052508101906114b59190613b27565b9050806001146114c557806113a6565b60009392505050565b6000610a2c60085490565b6114e1610a18565b6001600160a01b0316336001600160a01b0316146115115760405162461bcd60e51b81526004016102d690613d10565b3061151a610a18565b6001600160a01b031614611557576000803660405161153a929190613a9c565b604051809103902090505b806115506004611d17565b0361154557505b600080856001600160a01b0316858585604051611575929190613a9c565b60006040518083038185875af1925050503d80600081146115b2576040519150601f19603f3d011682016040523d82523d6000602084013e6115b7565b606091505b50915091506115df8282604051806060016040528060288152602001613f8c602891396123c5565b50505050505050565b6000848484846040516020016116019493929190613d6f565b60408051601f19818403018152919052805160209091012095945050505050565b604051638b1b925f60e01b81523360048201526000907f00000000000000000000000000000000000000000000000000000000000000006001600160a01b031690638b1b925f90602401602060405180830381865afa158015611689573d6000803e3d6000fd5b505050506040513d601f19601f820116820180604052508101906116ad9190613dba565b6116f95760405162461bcd60e51b815260206004820152601b60248201527f4d75737420686176652076616c69642044494420746f20766f7465000000000060448201526064016102d6565b604051631231a48560e31b8152336004820152602481018390527f00000000000000000000000000000000000000000000000000000000000000006001600160a01b03169063918d2428906044016020604051808303816000875af1158015611766573d6000803e3d6000fd5b505050506040513d601f19601f8201168201806040525081019061178a9190613b27565b506113a384338560405180602001604052806000815250866040516020016117b491815260200190565b604051602081830303815290604052611967565b6117d0610a18565b6001600160a01b0316336001600160a01b0316146118005760405162461bcd60e51b81526004016102d690613d10565b30611809610a18565b6001600160a01b0316146118465760008036604051611829929190613a9c565b604051809103902090505b8061183f6004611d17565b0361183457505b611223816123de565b60006113a6838361186b60408051602081019091526000815290565b6122c6565b611878610a18565b6001600160a01b0316336001600160a01b0316146118a85760405162461bcd60e51b81526004016102d690613d10565b306118b1610a18565b6001600160a01b0316146118ee57600080366040516118d1929190613a9c565b604051809103902090505b806118e76004611d17565b036118dc57505b6112238161247f565b60006001600160e01b03198216636e665ced60e01b1480610a3c5750610a3c826124c0565b6000610a3c61192961255c565b8360405161190160f01b8152600281019290925260228201526042902090565b600080600061195a87878787612687565b91509150610ec08161274b565b6000858152600360205260408120600161198088610f4b565b6007811115611991576119916135c0565b146119ea5760405162461bcd60e51b815260206004820152602360248201527f476f7665726e6f723a20766f7465206e6f742063757272656e746c792061637460448201526269766560e81b60648201526084016102d6565b8054600090611a049088906001600160401b0316866122c6565b9050611a138888888488612895565b8351600003611a6857866001600160a01b03167fb8e138887d0aa13bab447e82de9d5c1777041ecd21ca36ba824ff1e6c07ddda489888489604051611a5b9493929190613ddc565b60405180910390a2610f40565b866001600160a01b03167fe2babfbac5889a709b63bb7f598b324e08bc5a4fb9ec647fb3cbc9ec07eb87128988848989604051611aa9959493929190613e04565b60405180910390a2979650505050505050565b30611ac5610a18565b6001600160a01b031614611b4f5760005b8451811015611b4d57306001600160a01b0316858281518110611afb57611afb613e4a565b60200260200101516001600160a01b031603611b4557611b45838281518110611b2657611b26613e4a565b6020026020010151805190602001206004612a0f90919063ffffffff16565b600101611ad6565b505b5050505050565b611b4f8585858585612a4b565b30611b6c610a18565b6001600160a01b031614611b4f57600454600f81810b600160801b909204900b1315611b4f576000600455611b4f565b600061127c85858585611bba60408051602081019091526000815290565b611967565b600080611bcb83612abf565b90506004816007811115611be157611be16135c0565b14611bec5792915050565b6000838152600b602052604090205480611c07575092915050565b600a54604051632ab0f52960e01b8152600481018390526001600160a01b0390911690632ab0f52990602401602060405180830381865afa158015611c50573d6000803e3d6000fd5b505050506040513d601f19601f82011682018060405250810190611c749190613dba565b15611c83575060079392505050565b600a54604051632c258a9f60e11b8152600481018390526001600160a01b039091169063584b153e90602401602060405180830381865afa158015611ccc573d6000803e3d6000fd5b505050506040513d601f19601f82011682018060405250810190611cf09190613dba565b15611cff575060059392505050565b5060029392505050565b600061127c85858585612bff565b6000611d328254600f81810b600160801b909204900b131590565b15611d5057604051631ed9509560e11b815260040160405180910390fd5b508054600f0b6000818152600180840160205260408220805492905583546fffffffffffffffffffffffffffffffff191692016001600160801b03169190911790915590565b60065460408051918252602082018390527fc565b045403dc03c2eea82b81a0465edad9e2e7fc4d97e11421c209da93d7a93910160405180910390a1600655565b600033611de48184612cb1565b611e305760405162461bcd60e51b815260206004820152601d60248201527f476f7665726e6f723a2070726f706f736572207265737472696374656400000060448201526064016102d6565b6000611e3a61130d565b65ffffffffffff169050611e4c6114ce565b611e5b83610972600185613e60565b1015611ec35760405162461bcd60e51b815260206004820152603160248201527f476f7665726e6f723a2070726f706f73657220766f7465732062656c6f7720706044820152701c9bdc1bdcd85b081d1a1c995cda1bdb19607a1b60648201526084016102d6565b6000611ed888888888805190602001206115e8565b90508651885114611efb5760405162461bcd60e51b81526004016102d690613e73565b8551885114611f1c5760405162461bcd60e51b81526004016102d690613e73565b6000885111611f6d5760405162461bcd60e51b815260206004820152601860248201527f476f7665726e6f723a20656d7074792070726f706f73616c000000000000000060448201526064016102d6565b6000818152600360205260409020546001600160401b031615611fdc5760405162461bcd60e51b815260206004820152602160248201527f476f7665726e6f723a2070726f706f73616c20616c72656164792065786973746044820152607360f81b60648201526084016102d6565b6000611fe6610eca565b611ff09084613c90565b90506000611ffc610a42565b6120069083613c90565b90506040518060e0016040528061201c84612d9c565b6001600160401b031681526001600160a01b03871660208201526000604082015260600161204983612d9c565b6001600160401b039081168252600060208084018290526040808501839052606094850183905288835260038252918290208551815492870151878501519186166001600160e01b031990941693909317600160401b6001600160a01b039094168402176001600160e01b0316600160e01b60e09290921c91909102178155938501516080860151908416921c0217600183015560a08301516002909201805460c09094015161ffff1990941692151561ff00191692909217610100931515939093029290921790558a517f7d84a6263ae0d98d3329bd7b46bb4e8d6f98cd35a7adb45c274c8b7fd5ebd5e091859188918e918e9181111561214d5761214d613102565b60405190808252806020026020018201604052801561218057816020015b606081526020019060019003908161216b5790505b508d88888f60405161219a99989796959493929190613eb4565b60405180910390a1509098975050505050505050565b606060ff83146121ca576121c383612e04565b9050610a3c565b8180546121d690613aac565b80601f016020809104026020016040519081016040528092919081815260200182805461220290613aac565b801561224f5780601f106122245761010080835404028352916020019161224f565b820191906000526020600020905b81548152906001019060200180831161223257829003601f168201915b50505050509050610a3c565b600065ffffffffffff8211156122c25760405162461bcd60e51b815260206004820152602660248201527f53616665436173743a2076616c756520646f65736e27742066697420696e203460448201526538206269747360d01b60648201526084016102d6565b5090565b604051630748d63560e31b81526001600160a01b038481166004830152602482018490526000917f000000000000000000000000000000000000000000000000000000000000000090911690633a46b1a890604401602060405180830381865afa158015612338573d6000803e3d6000fd5b505050506040513d601f19601f820116820180604052508101906113a39190613b27565b600a54604080516001600160a01b03928316815291831660208301527f08f74ea46ef7894f65eabfb5e6e695de773a000b47c529ab559178069b226401910160405180910390a1600a80546001600160a01b0319166001600160a01b0392909216919091179055565b606083156123d45750816113a6565b6113a68383612e43565b6000811161243e5760405162461bcd60e51b815260206004820152602760248201527f476f7665726e6f7253657474696e67733a20766f74696e6720706572696f6420604482015266746f6f206c6f7760c81b60648201526084016102d6565b60075460408051918252602082018390527f7e3f7f0708a84de9203036abaa450dccc85ad5ff52f78c170f3edb55cf5e8828910160405180910390a1600755565b60085460408051918252602082018390527fccb45da8d5717e6c4544694297c4ba5cf151d455c9bb0ed4fc7a38411bc05461910160405180910390a1600855565b600063288ace0360e11b6318df743f60e31b63bf26d89760e01b6379dd796f60e01b6001600160e01b0319861682148061250657506001600160e01b0319868116908216145b8061251d57506001600160e01b0319868116908516145b8061253857506001600160e01b03198616630271189760e51b145b8061105d57506301ffc9a760e01b6001600160e01b03198716149695505050505050565b6000306001600160a01b037f0000000000000000000000000000000000000000000000000000000000000000161480156125b557507f000000000000000000000000000000000000000000000000000000000000000046145b156125df57507f000000000000000000000000000000000000000000000000000000000000000090565b610a2c604080517f8b73c3c69bb8fe3d512ecc4cf759cc79239f7b179b0ffacaa9a75d522b39400f60208201527f0000000000000000000000000000000000000000000000000000000000000000918101919091527f000000000000000000000000000000000000000000000000000000000000000060608201524660808201523060a082015260009060c00160405160208183030381529060405280519060200120905090565b6000807f7fffffffffffffffffffffffffffffff5d576e7357a4501ddfe92f46681b20a08311156126be5750600090506003612742565b6040805160008082526020820180845289905260ff881692820192909252606081018690526080810185905260019060a0016020604051602081039080840390855afa158015612712573d6000803e3d6000fd5b5050604051601f1901519150506001600160a01b03811661273b57600060019250925050612742565b9150600090505b94509492505050565b600081600481111561275f5761275f6135c0565b036127675750565b600181600481111561277b5761277b6135c0565b036127c85760405162461bcd60e51b815260206004820152601860248201527f45434453413a20696e76616c6964207369676e6174757265000000000000000060448201526064016102d6565b60028160048111156127dc576127dc6135c0565b036128295760405162461bcd60e51b815260206004820152601f60248201527f45434453413a20696e76616c6964207369676e6174757265206c656e6774680060448201526064016102d6565b600381600481111561283d5761283d6135c0565b036112235760405162461bcd60e51b815260206004820152602260248201527f45434453413a20696e76616c6964207369676e6174757265202773272076616c604482015261756560f01b60648201526084016102d6565b60008581526009602090815260408083206001600160a01b0388168452600381019092529091205460ff161561291d5760405162461bcd60e51b815260206004820152602760248201527f476f7665726e6f72566f74696e6753696d706c653a20766f746520616c726561604482015266191e4818d85cdd60ca1b60648201526084016102d6565b6001600160a01b03851660009081526003820160205260409020805460ff1916600117905560ff8416612969578281600001600082825461295e9190613c90565b90915550611b4d9050565b60001960ff851601612989578281600101600082825461295e9190613c90565b60011960ff8516016129a9578281600201600082825461295e9190613c90565b60405162461bcd60e51b815260206004820152603560248201527f476f7665726e6f72566f74696e6753696d706c653a20696e76616c69642076616044820152746c756520666f7220656e756d20566f74655479706560581b60648201526084016102d6565b8154600160801b90819004600f0b6000818152600180860160205260409091209390935583546001600160801b03908116939091011602179055565b600a5460405163e38335e560e01b81526001600160a01b039091169063e38335e5903490612a86908890889088906000908990600401613bd4565b6000604051808303818588803b158015612a9f57600080fd5b505af1158015612ab3573d6000803e3d6000fd5b50505050505050505050565b6000818152600360205260408120600281015460ff1615612ae35750600792915050565b6002810154610100900460ff1615612afe5750600292915050565b6000838152600360205260408120546001600160401b031690819003612b665760405162461bcd60e51b815260206004820152601d60248201527f476f7665726e6f723a20756e6b6e6f776e2070726f706f73616c20696400000060448201526064016102d6565b6000612b7061130d565b65ffffffffffff169050808210612b8c57506000949350505050565b6000858152600360205260409020600101546001600160401b0316818110612bba5750600195945050505050565b612bc386612e6d565b8015612be2575060008681526009602052604090208054600190910154115b15612bf35750600495945050505050565b50600395945050505050565b600080612c0e86868686612eb9565b6000818152600b60205260409020549091501561127c57600a546000828152600b60205260409081902054905163c4d252f560e01b81526001600160a01b039092169163c4d252f591612c679160040190815260200190565b600060405180830381600087803b158015612c8157600080fd5b505af1158015612c95573d6000803e3d6000fd5b5050506000828152600b60205260408120555095945050505050565b80516000906034811015612cc9576001915050610a3c565b82810160131901516001600160a01b031981166b046e0e4dee0dee6cae47a60f60a31b14612cfc57600192505050610a3c565b600080612d0a602885613e60565b90505b83811015612d7b57600080612d41888481518110612d2d57612d2d613e4a565b01602001516001600160f81b031916612fc5565b9150915081612d595760019650505050505050610a3c565b8060ff166004856001600160a01b0316901b1793505050806001019050612d0d565b50856001600160a01b0316816001600160a01b031614935050505092915050565b60006001600160401b038211156122c25760405162461bcd60e51b815260206004820152602660248201527f53616665436173743a2076616c756520646f65736e27742066697420696e203660448201526534206269747360d01b60648201526084016102d6565b60606000612e1183613057565b604080516020808252818301909252919250600091906020820181803683375050509182525060208101929092525090565b815115612e535781518083602001fd5b8060405162461bcd60e51b81526004016102d691906132c3565b600081815260096020526040812060028101546001820154612e8f9190613c90565b600084815260036020526040902054612eb0906001600160401b03166109de565b11159392505050565b600080612ec8868686866115e8565b90506000612ed582610f4b565b90506002816007811115612eeb57612eeb6135c0565b14158015612f0b57506006816007811115612f0857612f086135c0565b14155b8015612f2957506007816007811115612f2657612f266135c0565b14155b612f755760405162461bcd60e51b815260206004820152601d60248201527f476f7665726e6f723a2070726f706f73616c206e6f742061637469766500000060448201526064016102d6565b60008281526003602052604090819020600201805461ff001916610100179055517f789cf55be980739dad1d0699b93b58e806b51c9d96619bfa8fe0a28abaa7b30c90610dc69084815260200190565b60008060f883901c602f81118015612fe05750603a8160ff16105b15612ff557600194602f199091019350915050565b8060ff16604010801561300b575060478160ff16105b15613020576001946036199091019350915050565b8060ff166060108015613036575060678160ff16105b1561304b576001946056199091019350915050565b50600093849350915050565b600060ff8216601f811115610a3c57604051632cd44ac360e21b815260040160405180910390fd5b60006020828403121561309157600080fd5b81356001600160e01b0319811681146113a657600080fd5b803560ff8116811461112457600080fd5b60008083601f8401126130cc57600080fd5b5081356001600160401b038111156130e357600080fd5b6020830191508360208285010111156130fb57600080fd5b9250929050565b634e487b7160e01b600052604160045260246000fd5b604051601f8201601f191681016001600160401b038111828210171561314057613140613102565b604052919050565b60006001600160401b0382111561316157613161613102565b50601f01601f191660200190565b600061318261317d84613148565b613118565b905082815283838301111561319657600080fd5b828260208301376000602084830101529392505050565b600082601f8301126131be57600080fd5b6113a68383356020850161316f565b60008060008060008060008060e0898b0312156131e957600080fd5b883597506131f960208a016130a9565b965060408901356001600160401b038082111561321557600080fd5b6132218c838d016130ba565b909850965060608b013591508082111561323a57600080fd5b506132478b828c016131ad565b94505061325660808a016130a9565b925060a0890135915060c089013590509295985092959890939650565b60005b8381101561328e578181015183820152602001613276565b50506000910152565b600081518084526132af816020860160208601613273565b601f01601f19169290920160200192915050565b6020815260006113a66020830184613297565b6000602082840312156132e857600080fd5b5035919050565b6001600160a01b038116811461122357600080fd5b6000806000806080858703121561331a57600080fd5b8435613325816132ef565b93506020850135613335816132ef565b92506040850135915060608501356001600160401b0381111561335757600080fd5b613363878288016131ad565b91505092959194509250565b60006001600160401b0382111561338857613388613102565b5060051b60200190565b600082601f8301126133a357600080fd5b813560206133b361317d8361336f565b8083825260208201915060208460051b8701019350868411156133d557600080fd5b602086015b848110156133fa5780356133ed816132ef565b83529183019183016133da565b509695505050505050565b600082601f83011261341657600080fd5b8135602061342661317d8361336f565b8083825260208201915060208460051b87010193508684111561344857600080fd5b602086015b848110156133fa578035835291830191830161344d565b600082601f83011261347557600080fd5b8135602061348561317d8361336f565b82815260059290921b840181019181810190868411156134a457600080fd5b8286015b848110156133fa5780356001600160401b038111156134c75760008081fd5b6134d58986838b01016131ad565b8452509183019183016134a8565b600080600080608085870312156134f957600080fd5b84356001600160401b038082111561351057600080fd5b61351c88838901613392565b9550602087013591508082111561353257600080fd5b61353e88838901613405565b9450604087013591508082111561355457600080fd5b5061356187828801613464565b949793965093946060013593505050565b600080600080600060a0868803121561358a57600080fd5b8535945061359a602087016130a9565b93506135a8604087016130a9565b94979396509394606081013594506080013592915050565b634e487b7160e01b600052602160045260246000fd5b60208101600883106135f857634e487b7160e01b600052602160045260246000fd5b91905290565b6000806040838503121561361157600080fd5b823591506020830135613623816132ef565b809150509250929050565b6000806040838503121561364157600080fd5b82359150613651602084016130a9565b90509250929050565b60008060008060006080868803121561367257600080fd5b85359450613682602087016130a9565b935060408601356001600160401b038082111561369e57600080fd5b6136aa89838a016130ba565b909550935060608801359150808211156136c357600080fd5b506136d0888289016131ad565b9150509295509295909350565b600080600080606085870312156136f357600080fd5b84359350613703602086016130a9565b925060408501356001600160401b0381111561371e57600080fd5b61372a878288016130ba565b95989497509550505050565b6000806000806080858703121561374c57600080fd5b84356001600160401b038082111561376357600080fd5b61376f88838901613392565b9550602087013591508082111561378557600080fd5b61379188838901613405565b945060408701359150808211156137a757600080fd5b6137b388838901613464565b935060608701359150808211156137c957600080fd5b508501601f810187136137db57600080fd5b6133638782356020840161316f565b60008151808452602080850194506020840160005b8381101561381b578151875295820195908201906001016137ff565b509495945050505050565b60ff60f81b8816815260e06020820152600061384560e0830189613297565b82810360408401526138578189613297565b606084018890526001600160a01b038716608085015260a0840186905283810360c08501529050610b3781856137ea565b60008060006060848603121561389d57600080fd5b83356138a8816132ef565b92506020840135915060408401356001600160401b038111156138ca57600080fd5b6138d6868287016131ad565b9150509250925092565b6000602082840312156138f257600080fd5b81356113a6816132ef565b600080600080600060a0868803121561391557600080fd5b8535613920816132ef565b94506020860135613930816132ef565b935060408601356001600160401b038082111561394c57600080fd5b61395889838a01613405565b9450606088013591508082111561396e57600080fd5b61397a89838a01613405565b935060808801359150808211156136c357600080fd5b600080600080606085870312156139a657600080fd5b84356139b1816132ef565b93506020850135925060408501356001600160401b0381111561371e57600080fd5b6000806000606084860312156139e857600080fd5b833592506139f8602085016130a9565b9150604084013590509250925092565b60008060408385031215613a1b57600080fd5b8235613a26816132ef565b946020939093013593505050565b600080600080600060a08688031215613a4c57600080fd5b8535613a57816132ef565b94506020860135613a67816132ef565b9350604086013592506060860135915060808601356001600160401b03811115613a9057600080fd5b6136d0888289016131ad565b8183823760009101908152919050565b600181811c90821680613ac057607f821691505b602082108103613ae057634e487b7160e01b600052602260045260246000fd5b50919050565b60208082526021908201527f476f7665726e6f723a2070726f706f73616c206e6f74207375636365737366756040820152601b60fa1b606082015260800190565b600060208284031215613b3957600080fd5b5051919050565b60008151808452602080850194506020840160005b8381101561381b5781516001600160a01b031687529582019590820190600101613b55565b60008282518085526020808601955060208260051b8401016020860160005b84811015613bc757601f19868403018952613bb5838351613297565b98840198925090830190600101613b99565b5090979650505050505050565b60a081526000613be760a0830188613b40565b8281036020840152613bf981886137ea565b90508281036040840152613c0d8187613b7a565b60608401959095525050608001529392505050565b60c081526000613c3560c0830189613b40565b8281036020840152613c4781896137ea565b90508281036040840152613c5b8188613b7a565b60608401969096525050608081019290925260a0909101529392505050565b634e487b7160e01b600052601160045260246000fd5b80820180821115610a3c57610a3c613c7a565b600060208284031215613cb557600080fd5b81516001600160401b03811115613ccb57600080fd5b8201601f81018413613cdc57600080fd5b8051613cea61317d82613148565b818152856020838501011115613cff57600080fd5b61127c826020830160208601613273565b60208082526018908201527f476f7665726e6f723a206f6e6c79476f7665726e616e63650000000000000000604082015260600190565b600060208284031215613d5957600080fd5b815165ffffffffffff811681146113a657600080fd5b608081526000613d826080830187613b40565b8281036020840152613d9481876137ea565b90508281036040840152613da88186613b7a565b91505082606083015295945050505050565b600060208284031215613dcc57600080fd5b815180151581146113a657600080fd5b84815260ff8416602082015282604082015260806060820152600061105d6080830184613297565b85815260ff8516602082015283604082015260a060608201526000613e2c60a0830185613297565b8281036080840152613e3e8185613297565b98975050505050505050565b634e487b7160e01b600052603260045260246000fd5b81810381811115610a3c57610a3c613c7a565b60208082526021908201527f476f7665726e6f723a20696e76616c69642070726f706f73616c206c656e67746040820152600d60fb1b606082015260800190565b60006101208b8352602060018060a01b038c1681850152816040850152613edd8285018c613b40565b91508382036060850152613ef1828b6137ea565b915083820360808501528189518084528284019150828160051b850101838c0160005b83811015613f4257601f19878403018552613f30838351613297565b94860194925090850190600101613f14565b505086810360a0880152613f56818c613b7a565b9450505050508560c08401528460e0840152828103610100840152613f7b8185613297565b9c9b50505050505050505050505056fe476f7665726e6f723a2072656c617920726576657274656420776974686f7574206d657373616765a2646970667358221220d9ee4f366ac2426ee7cd2275db531f42fff24f2d8ade93ac65d652bfe72fcb0364736f6c63430008180033",
  "linkReferences": {},
  "deployedLinkReferences": {}
}