{
  "_format": "hh-sol-artifact-1",
  "contractName": "TaskMarket",
  "sourceName": "contracts/market/TaskMarket.sol",
  "abi": [
    {
      "inputs": [
        {
          "internalType": "address",
          "name": "workToken_",
          "type": "address"
        },
        {
          "internalType": "address",
          "name": "didRegistry_",
          "type": "address"
        },
        {
          "internalType": "address",
          "name": "treasury_",
          "type": "address"
        },
        {
          "internalType": "address",
          "name": "admin",
          "type": "address"
        }
      ],
      "stateMutability": "nonpayable",
      "type": "constructor"
    },
    {
      "anonymous": false,
      "inputs": [
        {
          "indexed": false,
          "internalType": "address",
          "name": "account",
          "type": "address"
        }
      ],
      "name": "Paused",
      "type": "event"
    },
    {
      "anonymous": false,
      "inputs": [
        {
          "indexed": true,
          "internalType": "bytes32",
          "name": "role",
          "type": "bytes32"
        },
        {
          "indexed": true,
          "internalType": "bytes32",
          "name": "previousAdminRole",
          "type": "bytes32"
        },
        {
          "indexed": true,
          "internalType": "bytes32",
          "name": "newAdminRole",
          "type": "bytes32"
        }
      ],
      "name": "RoleAdminChanged",
      "type": "event"
    },
    {
      "anonymous": false,
      "inputs": [
        {
          "indexed": true,
          "internalType": "bytes32",
          "name": "role",
          "type": "bytes32"
        },
        {
          "indexed": true,
          "internalType": "address",
          "name": "account",
          "type": "address"
        },
        {
          "indexed": true,
          "internalType": "address",
          "name": "sender",
          "type": "address"
        }
      ],
      "name": "RoleGranted",
      "type": "event"
    },
    {
      "anonymous": false,
      "inputs": [
        {
          "indexed": true,
          "internalType": "bytes32",
          "name": "role",
          "type": "bytes32"
        },
        {
          "indexed": true,
          "internalType": "address",
          "name": "account",
          "type": "address"
        },
        {
          "indexed": true,
          "internalType": "address",
          "name": "sender",
          "type": "address"
        }
      ],
      "name": "RoleRevoked",
      "type": "event"
    },
    {
      "anonymous": false,
      "inputs": [
        {
          "indexed": true,
          "internalType": "uint256",
          "name": "taskId",
          "type": "uint256"
        },
        {
          "indexed": true,
          "internalType": "address",
          "name": "agent",
          "type": "address"
        }
      ],
      "name": "TaskAccepted",
      "type": "event"
    },
    {
      "anonymous": false,
      "inputs": [
        {
          "indexed": true,
          "internalType": "uint256",
          "name": "taskId",
          "type": "uint256"
        }
      ],
      "name": "TaskCancelled",
      "type": "event"
    },
    {
      "anonymous": false,
      "inputs": [
        {
          "indexed": true,
          "internalType": "uint256",
          "name": "taskId",
          "type": "uint256"
        }
      ],
      "name": "TaskDisputed",
      "type": "event"
    },
    {
      "anonymous": false,
      "inputs": [
        {
          "indexed": true,
          "internalType": "uint256",
          "name": "taskId",
          "type": "uint256"
        },
        {
          "indexed": true,
          "internalType": "address",
          "name": "client",
          "type": "address"
        },
        {
          "indexed": false,
          "internalType": "uint256",
          "name": "reward",
          "type": "uint256"
        },
        {
          "indexed": false,
          "internalType": "string",
          "name": "descHash",
          "type": "string"
        }
      ],
      "name": "TaskPosted",
      "type": "event"
    },
    {
      "anonymous": false,
      "inputs": [
        {
          "indexed": true,
          "internalType": "uint256",
          "name": "taskId",
          "type": "uint256"
        },
        {
          "indexed": false,
          "internalType": "bool",
          "name": "agentPaid",
          "type": "bool"
        }
      ],
      "name": "TaskSettled",
      "type": "event"
    },
    {
      "anonymous": false,
      "inputs": [
        {
          "indexed": true,
          "internalType": "uint256",
          "name": "taskId",
          "type": "uint256"
        },
        {
          "indexed": true,
          "internalType": "address",
          "name": "agent",
          "type": "address"
        },
        {
          "indexed": false,
          "internalType": "string",
          "name": "resultHash",
          "type": "string"
        }
      ],
      "name": "TaskSubmitted",
      "type": "event"
    },
    {
      "anonymous": false,
      "inputs": [
        {
          "indexed": true,
          "internalType": "uint256",
          "name": "taskId",
          "type": "uint256"
        },
        {
          "indexed": true,
          "internalType": "address",
          "name": "agent",
          "type": "address"
        },
        {
          "indexed": false,
          "internalType": "uint256",
          "name": "payout",
          "type": "uint256"
        }
      ],
      "name": "TaskVerified",
      "type": "event"
    },
    {
      "anonymous": false,
      "inputs": [
        {
          "indexed": false,
          "internalType": "address",
          "name": "account",
          "type": "address"
        }
      ],
      "name": "Unpaused",
      "type": "event"
    },
    {
      "inputs": [],
      "name": "AUDIT_FEE_BPS",
      "outputs": [
        {
          "internalType": "uint256",
          "name": "",
          "type": "uint256"
        }
      ],
      "stateMutability": "view",
      "type": "function"
    },
    {
      "inputs": [],
      "name": "CONTRIBUTOR_BPS",
      "outputs": [
        {
          "internalType": "uint256",
          "name": "",
          "type": "uint256"
        }
      ],
      "stateMutability": "view",
      "type": "function"
    },
    {
      "inputs": [],
      "name": "DEFAULT_ADMIN_ROLE",
      "outputs": [
        {
          "internalType": "bytes32",
          "name": "",
          "type": "bytes32"
        }
      ],
      "stateMutability": "view",
      "type": "function"
    },
    {
      "inputs": [],
      "name": "GOV_SHARE_BPS",
      "outputs": [
        {
          "internalType": "uint256",
          "name": "",
          "type": "uint256"
        }
      ],
      "stateMutability": "view",
      "type": "function"
    },
    {
      "inputs": [],
      "name": "PAUSER_ROLE",
      "outputs": [
        {
          "internalType": "bytes32",
          "name": "",
          "type": "bytes32"
        }
      ],
      "stateMutability": "view",
      "type": "function"
    },
    {
      "inputs": [],
      "name": "REVIEWER_ROLE",
      "outputs": [
        {
          "internalType": "bytes32",
          "name": "",
          "type": "bytes32"
        }
      ],
      "stateMutability": "view",
      "type": "function"
    },
    {
      "inputs": [],
      "name": "TREASURY_BPS",
      "outputs": [
        {
          "internalType": "uint256",
          "name": "",
          "type": "uint256"
        }
      ],
      "stateMutability": "view",
      "type": "function"
    },
    {
      "inputs": [],
      "name": "VERIFIER_ROLE",
      "outputs": [
        {
          "internalType": "bytes32",
          "name": "",
          "type": "bytes32"
        }
      ],
      "stateMutability": "view",
      "type": "function"
    },
    {
      "inputs": [
        {
          "internalType": "uint256",
          "name": "taskId",
          "type": "uint256"
        }
      ],
      "name": "acceptTask",
      "outputs": [],
      "stateMutability": "nonpayable",
      "type": "function"
    },
    {
      "inputs": [
        {
          "internalType": "uint256",
          "name": "taskId",
          "type": "uint256"
        }
      ],
      "name": "cancelTask",
      "outputs": [],
      "stateMutability": "nonpayable",
      "type": "function"
    },
    {
      "inputs": [],
      "name": "didRegistry",
      "outputs": [
        {
          "internalType": "contract DIDRegistry",
          "name": "",
          "type": "address"
        }
      ],
      "stateMutability": "view",
      "type": "function"
    },
    {
      "inputs": [
        {
          "internalType": "bytes32",
          "name": "role",
          "type": "bytes32"
        }
      ],
      "name": "getRoleAdmin",
      "outputs": [
        {
          "internalType": "bytes32",
          "name": "",
          "type": "bytes32"
        }
      ],
      "stateMutability": "view",
      "type": "function"
    },
    {
      "inputs": [
        {
          "internalType": "bytes32",
          "name": "role",
          "type": "bytes32"
        },
        {
          "internalType": "address",
          "name": "account",
          "type": "address"
        }
      ],
      "name": "grantRole",
      "outputs": [],
      "stateMutability": "nonpayable",
      "type": "function"
    },
    {
      "inputs": [
        {
          "internalType": "bytes32",
          "name": "role",
          "type": "bytes32"
        },
        {
          "internalType": "address",
          "name": "account",
          "type": "address"
        }
      ],
      "name": "hasRole",
      "outputs": [
        {
          "internalType": "bool",
          "name": "",
          "type": "bool"
        }
      ],
      "stateMutability": "view",
      "type": "function"
    },
    {
      "inputs": [],
      "name": "pause",
      "outputs": [],
      "stateMutability": "nonpayable",
      "type": "function"
    },
    {
      "inputs": [],
      "name": "paused",
      "outputs": [
        {
          "internalType": "bool",
          "name": "",
          "type": "bool"
        }
      ],
      "stateMutability": "view",
      "type": "function"
    },
    {
      "inputs": [
        {
          "internalType": "uint256",
          "name": "reward",
          "type": "uint256"
        },
        {
          "internalType": "uint256",
          "name": "deadline",
          "type": "uint256"
        },
        {
          "internalType": "string",
          "name": "descHash",
          "type": "string"
        }
      ],
      "name": "postTask",
      "outputs": [
        {
          "internalType": "uint256",
          "name": "taskId",
          "type": "uint256"
        }
      ],
      "stateMutability": "nonpayable",
      "type": "function"
    },
    {
      "inputs": [
        {
          "internalType": "bytes32",
          "name": "role",
          "type": "bytes32"
        },
        {
          "internalType": "address",
          "name": "account",
          "type": "address"
        }
      ],
      "name": "renounceRole",
      "outputs": [],
      "stateMutability": "nonpayable",
      "type": "function"
    },
    {
      "inputs": [
        {
          "internalType": "bytes32",
          "name": "role",
          "type": "bytes32"
        },
        {
          "internalType": "address",
          "name": "account",
          "type": "address"
        }
      ],
      "name": "revokeRole",
      "outputs": [],
      "stateMutability": "nonpayable",
      "type": "function"
    },
    {
      "inputs": [
        {
          "internalType": "address",
          "name": "treasury_",
          "type": "address"
        }
      ],
      "name": "setTreasury",
      "outputs": [],
      "stateMutability": "nonpayable",
      "type": "function"
    },
    {
      "inputs": [
        {
          "internalType": "address",
          "name": "verifier",
          "type": "address"
        }
      ],
      "name": "setVerifier",
      "outputs": [],
      "stateMutability": "nonpayable",
      "type": "function"
    },
    {
      "inputs": [
        {
          "internalType": "uint256",
          "name": "taskId",
          "type": "uint256"
        },
        {
          "internalType": "bool",
          "name": "agentPaid",
          "type": "bool"
        }
      ],
      "name": "settleDispute",
      "outputs": [],
      "stateMutability": "nonpayable",
      "type": "function"
    },
    {
      "inputs": [
        {
          "internalType": "uint256",
          "name": "taskId",
          "type": "uint256"
        },
        {
          "internalType": "string",
          "name": "resultHash",
          "type": "string"
        }
      ],
      "name": "submitResult",
      "outputs": [],
      "stateMutability": "nonpayable",
      "type": "function"
    },
    {
      "inputs": [
        {
          "internalType": "bytes4",
          "name": "interfaceId",
          "type": "bytes4"
        }
      ],
      "name": "supportsInterface",
      "outputs": [
        {
          "internalType": "bool",
          "name": "",
          "type": "bool"
        }
      ],
      "stateMutability": "view",
      "type": "function"
    },
    {
      "inputs": [],
      "name": "taskCount",
      "outputs": [
        {
          "internalType": "uint256",
          "name": "",
          "type": "uint256"
        }
      ],
      "stateMutability": "view",
      "type": "function"
    },
    {
      "inputs": [
        {
          "internalType": "uint256",
          "name": "",
          "type": "uint256"
        }
      ],
      "name": "tasks",
      "outputs": [
        {
          "internalType": "address",
          "name": "client",
          "type": "address"
        },
        {
          "internalType": "address",
          "name": "assignee",
          "type": "address"
        },
        {
          "internalType": "uint256",
          "name": "reward",
          "type": "uint256"
        },
        {
          "internalType": "uint256",
          "name": "postedAt",
          "type": "uint256"
        },
        {
          "internalType": "uint256",
          "name": "deadline",
          "type": "uint256"
        },
        {
          "internalType": "enum TaskMarket.TaskStatus",
          "name": "status",
          "type": "uint8"
        },
        {
          "internalType": "string",
          "name": "descriptionHash",
          "type": "string"
        },
        {
          "internalType": "string",
          "name": "resultHash",
          "type": "string"
        }
      ],
      "stateMutability": "view",
      "type": "function"
    },
    {
      "inputs": [],
      "name": "treasury",
      "outputs": [
        {
          "internalType": "address",
          "name": "",
          "type": "address"
        }
      ],
      "stateMutability": "view",
      "type": "function"
    },
    {
      "inputs": [],
      "name": "unpause",
      "outputs": [],
      "stateMutability": "nonpayable",
      "type": "function"
    },
    {
      "inputs": [
        {
          "internalType": "uint256",
          "name": "taskId",
          "type": "uint256"
        },
        {
          "internalType": "bool",
          "name": "passed",
          "type": "bool"
        }
      ],
      "name": "verifyTask",
      "outputs": [],
      "stateMutability": "nonpayable",
      "type": "function"
    },
    {
      "inputs": [],
      "name": "workToken",
      "outputs": [
        {
          "internalType": "contract WorkToken",
          "name": "",
          "type": "address"
        }
      ],
      "stateMutability": "view",
      "type": "function"
    }
  ],
  "bytecode": "0x60c06040523480156200001157600080fd5b506040516200216538038062002165833981016040819052620000349162000199565b6001805460ff191681556002556001600160a01b0384811660805283811660a052600580546001600160a01b03191691841691909117905562000079600082620000db565b620000a57f65d7a28e3265b37a6474929f336521b332c1681b933f6cb9f3376673440d862a82620000db565b620000d17fc10c77be35aff266144ed64c26a1fa104bae2f284ae99ac4a34203454704a18582620000db565b50505050620001f6565b6000828152602081815260408083206001600160a01b038516845290915290205460ff1662000178576000828152602081815260408083206001600160a01b03851684529091529020805460ff19166001179055620001373390565b6001600160a01b0316816001600160a01b0316837f2f8788117e7eff1d82e926ec794901d17c78024a50270940304540a733656f0d60405160405180910390a45b5050565b80516001600160a01b03811681146200019457600080fd5b919050565b60008060008060808587031215620001b057600080fd5b620001bb856200017c565b9350620001cb602086016200017c565b9250620001db604086016200017c565b9150620001eb606086016200017c565b905092959194509250565b60805160a051611f1f620002466000396000818161031e015261054e015260008181610265015281816109a901528181610e2301528181610fae0152818161147a01526115130152611f1f6000f3fe608060405234801561001057600080fd5b50600436106101da5760003560e01c806374c47cb2116101045780639e8cfb24116100a2578063d8c7e4d311610071578063d8c7e4d314610419578063e63ab1e914610422578063e7705db614610449578063f0f442601461047057600080fd5b80639e8cfb24146103e2578063a217fddf146103f5578063b6cb58a5146103fd578063d547741f1461040657600080fd5b80638c0dd79a116100de5780638c0dd79a146103825780638d9776721461039557806391d14854146103bc57806392305435146103cf57600080fd5b806374c47cb21461035e5780637eec20a8146103675780638456cb591461037a57600080fd5b80633f4ba83a1161017c578063546104af1161014b578063546104af14610310578063577f9fb1146103195780635c975abb1461034057806361d027b31461034b57600080fd5b80633f4ba83a146102d95780634b46e63e146102e15780634c25d197146102f45780635437988d146102fd57600080fd5b80632f2ff15d116101b85780632f2ff15d1461024d578063360e68231461026057806336568abe1461029f5780633b129a56146102b257600080fd5b806301ffc9a7146101df5780631bf6912d14610207578063248a9ca31461021c575b600080fd5b6101f26101ed366004611862565b610483565b60405190151581526020015b60405180910390f35b61021a61021536600461188c565b6104ba565b005b61023f61022a36600461188c565b60009081526020819052604090206001015490565b6040519081526020016101fe565b61021a61025b3660046118c1565b61069e565b6102877f000000000000000000000000000000000000000000000000000000000000000081565b6040516001600160a01b0390911681526020016101fe565b61021a6102ad3660046118c1565b6106c8565b61023f7fc10c77be35aff266144ed64c26a1fa104bae2f284ae99ac4a34203454704a18581565b61021a610746565b61021a6102ef3660046118fb565b610778565b61023f6107d081565b61021a61030b36600461192b565b61087e565b61023f6103e881565b6102877f000000000000000000000000000000000000000000000000000000000000000081565b60015460ff166101f2565b600554610287906001600160a01b031681565b61023f611b5881565b61021a61037536600461188c565b6108b3565b61021a610a4f565b61021a61039036600461198f565b610a81565b6103a86103a336600461188c565b610ba4565b6040516101fe989796959493929190611a41565b6101f26103ca3660046118c1565b610d0a565b61021a6103dd3660046118fb565b610d33565b61023f6103f0366004611ac8565b610edb565b61023f600081565b61023f60035481565b61021a6104143660046118c1565b6111cc565b61023f6101f481565b61023f7f65d7a28e3265b37a6474929f336521b332c1681b933f6cb9f3376673440d862a81565b61023f7f0ce23c3e399818cfee81a7ab0880f714e53d7672b08df0fa62f2843416e1ea0981565b61021a61047e36600461192b565b6111f1565b60006001600160e01b03198216637965db0b60e01b14806104b457506301ffc9a760e01b6001600160e01b03198316145b92915050565b6104c261121f565b6104ca611267565b600081815260046020526040812090600582015460ff1660068111156104f2576104f26119db565b146105395760405162461bcd60e51b81526020600482015260126024820152715461736b206e6f7420617661696c61626c6560701b60448201526064015b60405180910390fd5b604051638b1b925f60e01b81523360048201527f00000000000000000000000000000000000000000000000000000000000000006001600160a01b031690638b1b925f90602401602060405180830381865afa15801561059d573d6000803e3d6000fd5b505050506040513d601f19601f820116820180604052508101906105c19190611b1b565b6105fb5760405162461bcd60e51b815260206004820152600b60248201526a125b9d985b1a590811125160aa1b6044820152606401610530565b8060040154421061063d5760405162461bcd60e51b815260206004820152600c60248201526b15185cdac8195e1c1a5c995960a21b6044820152606401610530565b600180820180546001600160a01b0319163317905560058201805460ff191682800217905550604051339083907fc8717b61398fb9d7cacf49fe1e296b2f10e9711226b532842b6ffd642cb6a2c690600090a35061069b6001600255565b50565b6000828152602081905260409020600101546106b9816112be565b6106c383836112c8565b505050565b6001600160a01b03811633146107385760405162461bcd60e51b815260206004820152602f60248201527f416363657373436f6e74726f6c3a2063616e206f6e6c792072656e6f756e636560448201526e103937b632b9903337b91039b2b63360891b6064820152608401610530565b610742828261134c565b5050565b7f65d7a28e3265b37a6474929f336521b332c1681b933f6cb9f3376673440d862a610770816112be565b61069b6113b1565b7f0ce23c3e399818cfee81a7ab0880f714e53d7672b08df0fa62f2843416e1ea096107a2816112be565b6107aa611267565b60008381526004602052604090206002600582015460ff1660068111156107d3576107d36119db565b146108155760405162461bcd60e51b815260206004820152601260248201527115185cdac81b9bdd081cdd589b5a5d1d195960721b6044820152606401610530565b82156108385760058101805460ff1916600317905561083384611403565b610873565b60058101805460ff1916600417905560405184907fe374130ee21046a04f5d6be14c752d412f721aecf1e8a04109b0634279cac0a690600090a25b506106c36001600255565b6000610889816112be565b6107427f0ce23c3e399818cfee81a7ab0880f714e53d7672b08df0fa62f2843416e1ea09836112c8565b6108bb611267565b600081815260046020526040902080546001600160a01b031633146109145760405162461bcd60e51b815260206004820152600f60248201526e139bdd081d185cdac818db1a595b9d608a1b6044820152606401610530565b6000600582015460ff16600681111561092f5761092f6119db565b1461096c5760405162461bcd60e51b815260206004820152600d60248201526c10d85b9b9bdd0818d85b98d95b609a1b6044820152606401610530565b60058101805460ff191660061790558054600282015460405163a9059cbb60e01b81526001600160a01b03928316600482015260248101919091527f00000000000000000000000000000000000000000000000000000000000000009091169063a9059cbb906044016020604051808303816000875af11580156109f4573d6000803e3d6000fd5b505050506040513d601f19601f82011682018060405250810190610a189190611b1b565b5060405182907fc6eacc3aa5b2aa77b5a826b832a804ca0b71830ec74f9aa57a15edd978c31ed690600090a25061069b6001600255565b7f65d7a28e3265b37a6474929f336521b332c1681b933f6cb9f3376673440d862a610a79816112be565b61069b6115d0565b610a8961121f565b60008381526004602052604090206001600582015460ff166006811115610ab257610ab26119db565b14610af15760405162461bcd60e51b815260206004820152600f60248201526e5461736b206e6f742061637469766560881b6044820152606401610530565b60018101546001600160a01b03163314610b415760405162461bcd60e51b81526020600482015260116024820152704e6f74207461736b2061737369676e656560781b6044820152606401610530565b60078101610b50838583611bd8565b5060058101805460ff19166002179055604051339085907f9989978868daa22b7a8a054a31e686ab83a420750a2a60b58facca87bf7c121990610b969087908790611cc2565b60405180910390a350505050565b600460208190526000918252604090912080546001820154600283015460038401549484015460058501546006860180546001600160a01b039687169895909616969395929360ff90921692610bf990611b4e565b80601f0160208091040260200160405190810160405280929190818152602001828054610c2590611b4e565b8015610c725780601f10610c4757610100808354040283529160200191610c72565b820191906000526020600020905b815481529060010190602001808311610c5557829003601f168201915b505050505090806007018054610c8790611b4e565b80601f0160208091040260200160405190810160405280929190818152602001828054610cb390611b4e565b8015610d005780601f10610cd557610100808354040283529160200191610d00565b820191906000526020600020905b815481529060010190602001808311610ce357829003601f168201915b5050505050905088565b6000918252602082815260408084206001600160a01b0393909316845291905290205460ff1690565b7fc10c77be35aff266144ed64c26a1fa104bae2f284ae99ac4a34203454704a185610d5d816112be565b610d65611267565b600083815260046020819052604090912090600582015460ff166006811115610d9057610d906119db565b14610dd15760405162461bcd60e51b815260206004820152601160248201527015185cdac81b9bdd08191a5cdc1d5d1959607a1b6044820152606401610530565b6005818101805460ff191690911790558215610df557610df084611403565b610e94565b8054600282015460405163a9059cbb60e01b81526001600160a01b03928316600482015260248101919091527f00000000000000000000000000000000000000000000000000000000000000009091169063a9059cbb906044016020604051808303816000875af1158015610e6e573d6000803e3d6000fd5b505050506040513d601f19601f82011682018060405250810190610e929190611b1b565b505b837f18a68a0607393333b6a967e452cb224aef450d9aeee2685277503079b155af8184604051610ec8911515815260200190565b60405180910390a2506106c36001600255565b6000610ee561121f565b610eed611267565b60008511610f3d5760405162461bcd60e51b815260206004820152601760248201527f526577617264206d75737420626520706f7369746976650000000000000000006044820152606401610530565b428411610f8c5760405162461bcd60e51b815260206004820152601760248201527f446561646c696e65206d757374206265206675747572650000000000000000006044820152606401610530565b6040516323b872dd60e01b8152336004820152306024820152604481018690527f00000000000000000000000000000000000000000000000000000000000000006001600160a01b0316906323b872dd906064016020604051808303816000875af1158015610fff573d6000803e3d6000fd5b505050506040513d601f19601f820116820180604052508101906110239190611b1b565b5060036000815461103390611cec565b918290555060408051610100810182523381526000602082018190529181018890524260608201526080810187905291925060a0820190815260200184848080601f01602080910402602001604051908101604052809392919081815260200183838082843760009201829052509385525050604080516020818101835284825294850152858352600480855292819020855181546001600160a01b039182166001600160a01b031991821617835595870151600180840180549290931691909716179055908501516002820155606085015160038201556080850151928101929092555060a083015160058201805492939192909160ff1990911690836006811115611142576111426119db565b021790555060c0820151600682019061115b9082611d05565b5060e082015160078201906111709082611d05565b50905050336001600160a01b0316817f05fddf931b4d1e3b95f2b6fb12ab475fe9555ce60fd2bfe66b84060f2dc22a2e8786866040516111b293929190611dc5565b60405180910390a36111c46001600255565b949350505050565b6000828152602081905260409020600101546111e7816112be565b6106c3838361134c565b60006111fc816112be565b50600580546001600160a01b0319166001600160a01b0392909216919091179055565b60015460ff16156112655760405162461bcd60e51b815260206004820152601060248201526f14185d5cd8589b194e881c185d5cd95960821b6044820152606401610530565b565b60028054036112b85760405162461bcd60e51b815260206004820152601f60248201527f5265656e7472616e637947756172643a207265656e7472616e742063616c6c006044820152606401610530565b60028055565b61069b813361160b565b6112d28282610d0a565b610742576000828152602081815260408083206001600160a01b03851684529091529020805460ff191660011790556113083390565b6001600160a01b0316816001600160a01b0316837f2f8788117e7eff1d82e926ec794901d17c78024a50270940304540a733656f0d60405160405180910390a45050565b6113568282610d0a565b15610742576000828152602081815260408083206001600160a01b0385168085529252808320805460ff1916905551339285917ff6391f5c32d9c69d2a47ea670b442974b53935d1edc7fd64eb21e047a839171b9190a45050565b6113b9611664565b6001805460ff191690557f5db9ee0a495bf2e6ff9c91a7834c1ba4fdd244a5e8aa4e537bd38aeae4b073aa335b6040516001600160a01b03909116815260200160405180910390a1565b6000818152600460205260408120600281015490916127106114276107d084611de8565b6114319190611dff565b90506000612710611444611b5885611de8565b61144e9190611dff565b60055460405163a9059cbb60e01b81526001600160a01b039182166004820152602481018590529192507f0000000000000000000000000000000000000000000000000000000000000000169063a9059cbb906044016020604051808303816000875af11580156114c3573d6000803e3d6000fd5b505050506040513d601f19601f820116820180604052508101906114e79190611b1b565b50600184015460405163a9059cbb60e01b81526001600160a01b039182166004820152602481018390527f00000000000000000000000000000000000000000000000000000000000000009091169063a9059cbb906044016020604051808303816000875af115801561155e573d6000803e3d6000fd5b505050506040513d601f19601f820116820180604052508101906115829190611b1b565b5060018401546040518281526001600160a01b039091169086907f477d9dbad436f899729571bd347ca39a0d163bbc0870482ce5e298e4145d42519060200160405180910390a35050505050565b6115d861121f565b6001805460ff1916811790557f62e78cea01bee320cd4e420270b5ea74000d11b0c9f74754ebdbfc544b05a258336113e6565b6116158282610d0a565b61074257611622816116ad565b61162d8360206116bf565b60405160200161163e929190611e21565b60408051601f198184030181529082905262461bcd60e51b825261053091600401611e96565b60015460ff166112655760405162461bcd60e51b815260206004820152601460248201527314185d5cd8589b194e881b9bdd081c185d5cd95960621b6044820152606401610530565b60606104b46001600160a01b03831660145b606060006116ce836002611de8565b6116d9906002611ea9565b67ffffffffffffffff8111156116f1576116f1611b38565b6040519080825280601f01601f19166020018201604052801561171b576020820181803683370190505b509050600360fc1b8160008151811061173657611736611ebc565b60200101906001600160f81b031916908160001a905350600f60fb1b8160018151811061176557611765611ebc565b60200101906001600160f81b031916908160001a9053506000611789846002611de8565b611794906001611ea9565b90505b600181111561180c576f181899199a1a9b1b9c1cb0b131b232b360811b85600f16601081106117c8576117c8611ebc565b1a60f81b8282815181106117de576117de611ebc565b60200101906001600160f81b031916908160001a90535060049490941c9361180581611ed2565b9050611797565b50831561185b5760405162461bcd60e51b815260206004820181905260248201527f537472696e67733a20686578206c656e67746820696e73756666696369656e746044820152606401610530565b9392505050565b60006020828403121561187457600080fd5b81356001600160e01b03198116811461185b57600080fd5b60006020828403121561189e57600080fd5b5035919050565b80356001600160a01b03811681146118bc57600080fd5b919050565b600080604083850312156118d457600080fd5b823591506118e4602084016118a5565b90509250929050565b801515811461069b57600080fd5b6000806040838503121561190e57600080fd5b823591506020830135611920816118ed565b809150509250929050565b60006020828403121561193d57600080fd5b61185b826118a5565b60008083601f84011261195857600080fd5b50813567ffffffffffffffff81111561197057600080fd5b60208301915083602082850101111561198857600080fd5b9250929050565b6000806000604084860312156119a457600080fd5b83359250602084013567ffffffffffffffff8111156119c257600080fd5b6119ce86828701611946565b9497909650939450505050565b634e487b7160e01b600052602160045260246000fd5b60005b83811015611a0c5781810151838201526020016119f4565b50506000910152565b60008151808452611a2d8160208601602086016119f1565b601f01601f19169290920160200192915050565b6001600160a01b03898116825288166020820152604081018790526060810186905260808101859052600061010060078610611a8d57634e487b7160e01b600052602160045260246000fd5b8560a08401528060c0840152611aa581840186611a15565b905082810360e0840152611ab98185611a15565b9b9a5050505050505050505050565b60008060008060608587031215611ade57600080fd5b8435935060208501359250604085013567ffffffffffffffff811115611b0357600080fd5b611b0f87828801611946565b95989497509550505050565b600060208284031215611b2d57600080fd5b815161185b816118ed565b634e487b7160e01b600052604160045260246000fd5b600181811c90821680611b6257607f821691505b602082108103611b8257634e487b7160e01b600052602260045260246000fd5b50919050565b601f8211156106c3576000816000526020600020601f850160051c81016020861015611bb15750805b601f850160051c820191505b81811015611bd057828155600101611bbd565b505050505050565b67ffffffffffffffff831115611bf057611bf0611b38565b611c0483611bfe8354611b4e565b83611b88565b6000601f841160018114611c385760008515611c205750838201355b600019600387901b1c1916600186901b178355611c92565b600083815260209020601f19861690835b82811015611c695786850135825560209485019460019092019101611c49565b5086821015611c865760001960f88860031b161c19848701351681555b505060018560011b0183555b5050505050565b81835281816020850137506000828201602090810191909152601f909101601f19169091010190565b6020815260006111c4602083018486611c99565b634e487b7160e01b600052601160045260246000fd5b600060018201611cfe57611cfe611cd6565b5060010190565b815167ffffffffffffffff811115611d1f57611d1f611b38565b611d3381611d2d8454611b4e565b84611b88565b602080601f831160018114611d685760008415611d505750858301515b600019600386901b1c1916600185901b178555611bd0565b600085815260208120601f198616915b82811015611d9757888601518255948401946001909101908401611d78565b5085821015611db55787850151600019600388901b60f8161c191681555b5050505050600190811b01905550565b838152604060208201526000611ddf604083018486611c99565b95945050505050565b80820281158282048414176104b4576104b4611cd6565b600082611e1c57634e487b7160e01b600052601260045260246000fd5b500490565b7f416363657373436f6e74726f6c3a206163636f756e7420000000000000000000815260008351611e598160178501602088016119f1565b7001034b99036b4b9b9b4b733903937b6329607d1b6017918401918201528351611e8a8160288401602088016119f1565b01602801949350505050565b60208152600061185b6020830184611a15565b808201808211156104b4576104b4611cd6565b634e487b7160e01b600052603260045260246000fd5b600081611ee157611ee1611cd6565b50600019019056fea264697066735822122033aa00224a1d24b20bc51a5ace087c1e1427fa941926f5c1b6491a5b6f34410464736f6c63430008180033",
  "linkReferences": {},
  "deployedLinkReferences": {}
}