{
  "_format": "hh-sol-artifact-1",
  "contractName": "AuditVoting",
  "sourceName": "contracts/verification/AuditVoting.sol",
  "abi": [
    {
      "inputs": [
        {
          "internalType": "address",
          "name": "didRegistry_",
          "type": "address"
        },
        {
          "internalType": "address",
          "name": "taskMarket_",
          "type": "address"
        },
        {
          "internalType": "address",
          "name": "admin",
          "type": "address"
        }
      ],
      "stateMutability": "nonpayable",
      "type": "constructor"
    },
    {
      "anonymous": false,
      "inputs": [
        {
          "indexed": true,
          "internalType": "uint256",
          "name": "taskId",
          "type": "uint256"
        },
        {
          "indexed": false,
          "internalType": "bool",
          "name": "passed",
          "type": "bool"
        },
        {
          "indexed": false,
          "internalType": "uint256",
          "name": "passVotes",
          "type": "uint256"
        }
      ],
      "name": "AuditFinalized",
      "type": "event"
    },
    {
      "anonymous": false,
      "inputs": [
        {
          "indexed": true,
          "internalType": "uint256",
          "name": "taskId",
          "type": "uint256"
        },
        {
          "indexed": false,
          "internalType": "address[5]",
          "name": "auditors",
          "type": "address[5]"
        }
      ],
      "name": "AuditStarted",
      "type": "event"
    },
    {
      "anonymous": false,
      "inputs": [
        {
          "indexed": false,
          "internalType": "address",
          "name": "account",
          "type": "address"
        }
      ],
      "name": "Paused",
      "type": "event"
    },
    {
      "anonymous": false,
      "inputs": [
        {
          "indexed": true,
          "internalType": "bytes32",
          "name": "role",
          "type": "bytes32"
        },
        {
          "indexed": true,
          "internalType": "bytes32",
          "name": "previousAdminRole",
          "type": "bytes32"
        },
        {
          "indexed": true,
          "internalType": "bytes32",
          "name": "newAdminRole",
          "type": "bytes32"
        }
      ],
      "name": "RoleAdminChanged",
      "type": "event"
    },
    {
      "anonymous": false,
      "inputs": [
        {
          "indexed": true,
          "internalType": "bytes32",
          "name": "role",
          "type": "bytes32"
        },
        {
          "indexed": true,
          "internalType": "address",
          "name": "account",
          "type": "address"
        },
        {
          "indexed": true,
          "internalType": "address",
          "name": "sender",
          "type": "address"
        }
      ],
      "name": "RoleGranted",
      "type": "event"
    },
    {
      "anonymous": false,
      "inputs": [
        {
          "indexed": true,
          "internalType": "bytes32",
          "name": "role",
          "type": "bytes32"
        },
        {
          "indexed": true,
          "internalType": "address",
          "name": "account",
          "type": "address"
        },
        {
          "indexed": true,
          "internalType": "address",
          "name": "sender",
          "type": "address"
        }
      ],
      "name": "RoleRevoked",
      "type": "event"
    },
    {
      "anonymous": false,
      "inputs": [
        {
          "indexed": false,
          "internalType": "address",
          "name": "account",
          "type": "address"
        }
      ],
      "name": "Unpaused",
      "type": "event"
    },
    {
      "anonymous": false,
      "inputs": [
        {
          "indexed": true,
          "internalType": "uint256",
          "name": "taskId",
          "type": "uint256"
        },
        {
          "indexed": true,
          "internalType": "address",
          "name": "auditor",
          "type": "address"
        },
        {
          "indexed": false,
          "internalType": "bool",
          "name": "pass",
          "type": "bool"
        }
      ],
      "name": "VoteCast",
      "type": "event"
    },
    {
      "inputs": [],
      "name": "AUDITOR_TIP_BPS",
      "outputs": [
        {
          "internalType": "uint256",
          "name": "",
          "type": "uint256"
        }
      ],
      "stateMutability": "view",
      "type": "function"
    },
    {
      "inputs": [],
      "name": "AUDIT_POOL_SIZE",
      "outputs": [
        {
          "internalType": "uint256",
          "name": "",
          "type": "uint256"
        }
      ],
      "stateMutability": "view",
      "type": "function"
    },
    {
      "inputs": [],
      "name": "DEFAULT_ADMIN_ROLE",
      "outputs": [
        {
          "internalType": "bytes32",
          "name": "",
          "type": "bytes32"
        }
      ],
      "stateMutability": "view",
      "type": "function"
    },
    {
      "inputs": [],
      "name": "PASS_THRESHOLD",
      "outputs": [
        {
          "internalType": "uint256",
          "name": "",
          "type": "uint256"
        }
      ],
      "stateMutability": "view",
      "type": "function"
    },
    {
      "inputs": [],
      "name": "PAUSER_ROLE",
      "outputs": [
        {
          "internalType": "bytes32",
          "name": "",
          "type": "bytes32"
        }
      ],
      "stateMutability": "view",
      "type": "function"
    },
    {
      "inputs": [
        {
          "internalType": "address",
          "name": "agent",
          "type": "address"
        }
      ],
      "name": "addToPool",
      "outputs": [],
      "stateMutability": "nonpayable",
      "type": "function"
    },
    {
      "inputs": [
        {
          "internalType": "uint256",
          "name": "",
          "type": "uint256"
        }
      ],
      "name": "auditorPool",
      "outputs": [
        {
          "internalType": "address",
          "name": "",
          "type": "address"
        }
      ],
      "stateMutability": "view",
      "type": "function"
    },
    {
      "inputs": [
        {
          "internalType": "uint256",
          "name": "taskId",
          "type": "uint256"
        },
        {
          "internalType": "bool",
          "name": "pass",
          "type": "bool"
        }
      ],
      "name": "castVote",
      "outputs": [],
      "stateMutability": "nonpayable",
      "type": "function"
    },
    {
      "inputs": [],
      "name": "didRegistry",
      "outputs": [
        {
          "internalType": "contract DIDRegistry",
          "name": "",
          "type": "address"
        }
      ],
      "stateMutability": "view",
      "type": "function"
    },
    {
      "inputs": [
        {
          "internalType": "uint256",
          "name": "taskId",
          "type": "uint256"
        }
      ],
      "name": "getAuditors",
      "outputs": [
        {
          "internalType": "address[5]",
          "name": "",
          "type": "address[5]"
        }
      ],
      "stateMutability": "view",
      "type": "function"
    },
    {
      "inputs": [
        {
          "internalType": "bytes32",
          "name": "role",
          "type": "bytes32"
        }
      ],
      "name": "getRoleAdmin",
      "outputs": [
        {
          "internalType": "bytes32",
          "name": "",
          "type": "bytes32"
        }
      ],
      "stateMutability": "view",
      "type": "function"
    },
    {
      "inputs": [
        {
          "internalType": "bytes32",
          "name": "role",
          "type": "bytes32"
        },
        {
          "internalType": "address",
          "name": "account",
          "type": "address"
        }
      ],
      "name": "grantRole",
      "outputs": [],
      "stateMutability": "nonpayable",
      "type": "function"
    },
    {
      "inputs": [
        {
          "internalType": "bytes32",
          "name": "role",
          "type": "bytes32"
        },
        {
          "internalType": "address",
          "name": "account",
          "type": "address"
        }
      ],
      "name": "hasRole",
      "outputs": [
        {
          "internalType": "bool",
          "name": "",
          "type": "bool"
        }
      ],
      "stateMutability": "view",
      "type": "function"
    },
    {
      "inputs": [],
      "name": "pause",
      "outputs": [],
      "stateMutability": "nonpayable",
      "type": "function"
    },
    {
      "inputs": [],
      "name": "paused",
      "outputs": [
        {
          "internalType": "bool",
          "name": "",
          "type": "bool"
        }
      ],
      "stateMutability": "view",
      "type": "function"
    },
    {
      "inputs": [],
      "name": "registerAsAuditor",
      "outputs": [],
      "stateMutability": "nonpayable",
      "type": "function"
    },
    {
      "inputs": [
        {
          "internalType": "bytes32",
          "name": "role",
          "type": "bytes32"
        },
        {
          "internalType": "address",
          "name": "account",
          "type": "address"
        }
      ],
      "name": "renounceRole",
      "outputs": [],
      "stateMutability": "nonpayable",
      "type": "function"
    },
    {
      "inputs": [
        {
          "internalType": "bytes32",
          "name": "role",
          "type": "bytes32"
        },
        {
          "internalType": "address",
          "name": "account",
          "type": "address"
        }
      ],
      "name": "revokeRole",
      "outputs": [],
      "stateMutability": "nonpayable",
      "type": "function"
    },
    {
      "inputs": [
        {
          "internalType": "uint256",
          "name": "",
          "type": "uint256"
        }
      ],
      "name": "sessions",
      "outputs": [
        {
          "internalType": "uint256",
          "name": "taskId",
          "type": "uint256"
        },
        {
          "internalType": "uint256",
          "name": "passVotes",
          "type": "uint256"
        },
        {
          "internalType": "uint256",
          "name": "failVotes",
          "type": "uint256"
        },
        {
          "internalType": "bool",
          "name": "finalized",
          "type": "bool"
        },
        {
          "internalType": "uint256",
          "name": "createdAt",
          "type": "uint256"
        }
      ],
      "stateMutability": "view",
      "type": "function"
    },
    {
      "inputs": [
        {
          "internalType": "uint256",
          "name": "taskId",
          "type": "uint256"
        }
      ],
      "name": "startAudit",
      "outputs": [],
      "stateMutability": "nonpayable",
      "type": "function"
    },
    {
      "inputs": [
        {
          "internalType": "bytes4",
          "name": "interfaceId",
          "type": "bytes4"
        }
      ],
      "name": "supportsInterface",
      "outputs": [
        {
          "internalType": "bool",
          "name": "",
          "type": "bool"
        }
      ],
      "stateMutability": "view",
      "type": "function"
    },
    {
      "inputs": [],
      "name": "taskMarket",
      "outputs": [
        {
          "internalType": "contract TaskMarket",
          "name": "",
          "type": "address"
        }
      ],
      "stateMutability": "view",
      "type": "function"
    },
    {
      "inputs": [],
      "name": "unpause",
      "outputs": [],
      "stateMutability": "nonpayable",
      "type": "function"
    }
  ],
  "bytecode": "0x60c06040523480156200001157600080fd5b506040516200174b3803806200174b833981016040819052620000349162000151565b6001805460ff191690556001600160a01b03808416608052821660a0526200005e60008262000093565b6200008a7f65d7a28e3265b37a6474929f336521b332c1681b933f6cb9f3376673440d862a8262000093565b5050506200019b565b6000828152602081815260408083206001600160a01b038516845290915290205460ff1662000130576000828152602081815260408083206001600160a01b03851684529091529020805460ff19166001179055620000ef3390565b6001600160a01b0316816001600160a01b0316837f2f8788117e7eff1d82e926ec794901d17c78024a50270940304540a733656f0d60405160405180910390a45b5050565b80516001600160a01b03811681146200014c57600080fd5b919050565b6000806000606084860312156200016757600080fd5b620001728462000134565b9250620001826020850162000134565b9150620001926040850162000134565b90509250925092565b60805160a051611575620001d6600039600081816103000152610dd50152600081816102410152818161054c0152610c2e01526115756000f3fe608060405234801561001057600080fd5b506004361061014d5760003560e01c80635c975abb116100c3578063d42dca551161007c578063d42dca5514610322578063d547741f14610342578063e38b8e4d14610355578063e63ab1e914610368578063e770a1b21461038f578063fc6dfcfd1461039757600080fd5b80635c975abb1461026357806383c4b7a31461026e5780638456cb59146102d857806391d14854146102e0578063a217fddf146102f3578063c01aca0d146102fb57600080fd5b80632f2ff15d116101155780632f2ff15d146101db57806333f78d59146101ee57806336568abe146101f65780633f4ba83a1461020957806351f7060514610211578063577f9fb11461023c57600080fd5b806301ffc9a7146101525780630580daaf1461017a578063081edfd21461018f57806315373e3d14610197578063248a9ca3146101aa575b600080fd5b610165610160366004611267565b6103a0565b60405190151581526020015b60405180910390f35b61018d610188366004611291565b6103d7565b005b61018d610537565b61018d6101a53660046112b8565b6106c7565b6101cd6101b8366004611291565b60009081526020819052604090206001015490565b604051908152602001610171565b61018d6101e9366004611304565b6108d8565b6101cd600381565b61018d610204366004611304565b610902565b61018d610980565b61022461021f366004611291565b6109b5565b6040516001600160a01b039091168152602001610171565b6102247f000000000000000000000000000000000000000000000000000000000000000081565b60015460ff16610165565b6102ae61027c366004611291565b6002602052600090815260409020805460088201546009830154600a840154600b9094015492939192909160ff169085565b6040805195865260208601949094529284019190915215156060830152608082015260a001610171565b61018d6109df565b6101656102ee366004611304565b610a11565b6101cd600081565b6102247f000000000000000000000000000000000000000000000000000000000000000081565b610335610330366004611291565b610a3a565b6040516101719190611330565b61018d610350366004611304565b610a93565b61018d61036336600461136a565b610ab8565b6101cd7f65d7a28e3265b37a6474929f336521b332c1681b933f6cb9f3376673440d862a81565b6101cd600581565b6101cd6101f481565b60006001600160e01b03198216637965db0b60e01b14806103d157506301ffc9a760e01b6001600160e01b03198316145b92915050565b6103df610b16565b6003546005111561042f5760405162461bcd60e51b8152602060048201526015602482015274496e73756666696369656e742061756469746f727360581b60448201526064015b60405180910390fd5b60008181526002602052604090208054156104845760405162461bcd60e51b8152602060048201526015602482015274105d591a5d08185b1c9958591e481cdd185c9d1959605a1b6044820152606401610426565b81815542600b820155600061049883610b5e565b905060005b60058110156104f9578181600581106104b8576104b8611385565b60200201518360010182600581106104d2576104d2611385565b0180546001600160a01b0319166001600160a01b039290921691909117905560010161049d565b50827fb4018f091d2006cbeb00f6071b7e0cb25fc8e9e9e473b5f0021f966fe7207afe8260405161052a9190611330565b60405180910390a2505050565b604051638b1b925f60e01b81523360048201527f00000000000000000000000000000000000000000000000000000000000000006001600160a01b031690638b1b925f90602401602060405180830381865afa15801561059b573d6000803e3d6000fd5b505050506040513d601f19601f820116820180604052508101906105bf919061139b565b6105f95760405162461bcd60e51b815260206004820152600b60248201526a125b9d985b1a590811125160aa1b6044820152606401610426565b60005b60035481101561068257336001600160a01b03166003828154811061062357610623611385565b6000918252602090912001546001600160a01b03160361067a5760405162461bcd60e51b8152602060048201526012602482015271105b1c9958591e481c9959da5cdd195c995960721b6044820152606401610426565b6001016105fc565b50600380546001810182556000919091527fc2575a0e9e593c00f959f8c92f12db2869c3395a3b0502d05e2516446f71f85b0180546001600160a01b03191633179055565b6106cf610b16565b6000828152600260205260409020600a81015460ff16156107265760405162461bcd60e51b8152602060048201526011602482015270105b1c9958591e48199a5b985b1a5e9959607a1b6044820152606401610426565b33600090815260068201602052604090205460ff16156107785760405162461bcd60e51b815260206004820152600d60248201526c105b1c9958591e481d9bdd1959609a1b6044820152606401610426565b6000805b60058110156107bc573360018401826005811061079b5761079b611385565b01546001600160a01b0316036107b457600191506107bc565b60010161077c565b50806108015760405162461bcd60e51b81526020600482015260146024820152732737ba1039b2b632b1ba32b21030bab234ba37b960611b6044820152606401610426565b3360009081526006830160209081526040808320805460ff19908116600117909155600786019092529091208054851580159190931617905561085a57600882018054906000610850836113ce565b9190505550610872565b60098201805490600061086c836113ce565b91905055505b6040518315158152339085907fe71fcdac32df1877c1700e7bda2a03157e20993363a28fc35ac495cefc76e4d49060200160405180910390a3600382600801541015806108c457506003826009015410155b156108d2576108d284610d84565b50505050565b6000828152602081905260409020600101546108f381610e72565b6108fd8383610e7c565b505050565b6001600160a01b03811633146109725760405162461bcd60e51b815260206004820152602f60248201527f416363657373436f6e74726f6c3a2063616e206f6e6c792072656e6f756e636560448201526e103937b632b9903337b91039b2b63360891b6064820152608401610426565b61097c8282610f00565b5050565b7f65d7a28e3265b37a6474929f336521b332c1681b933f6cb9f3376673440d862a6109aa81610e72565b6109b2610f65565b50565b600381815481106109c557600080fd5b6000918252602090912001546001600160a01b0316905081565b7f65d7a28e3265b37a6474929f336521b332c1681b933f6cb9f3376673440d862a610a0981610e72565b6109b2610fb7565b6000918252602082815260408084206001600160a01b0393909316845291905290205460ff1690565b610a42611249565b60008281526002602052604090819020815160a0810190925260010160058282826020028201915b81546001600160a01b03168152600190910190602001808311610a6a5750505050509050919050565b600082815260208190526040902060010154610aae81610e72565b6108fd8383610f00565b6000610ac381610e72565b50600380546001810182556000919091527fc2575a0e9e593c00f959f8c92f12db2869c3395a3b0502d05e2516446f71f85b0180546001600160a01b0319166001600160a01b0392909216919091179055565b60015460ff1615610b5c5760405162461bcd60e51b815260206004820152601060248201526f14185d5cd8589b194e881c185d5cd95960821b6044820152606401610426565b565b610b66611249565b60035460008167ffffffffffffffff811115610b8457610b846113e7565b604051908082528060200260200182016040528015610bad578160200160208202803683370190505b5090506000805b6005821015610d7b57600084610bcb6001436113fd565b60408051914060208301528101899052606081018490526080016040516020818303038152906040528051906020012060001c610c089190611410565b9050838181518110610c1c57610c1c611385565b6020026020010151158015610ce257507f00000000000000000000000000000000000000000000000000000000000000006001600160a01b0316638b1b925f60038381548110610c6e57610c6e611385565b60009182526020909120015460405160e083901b6001600160e01b03191681526001600160a01b039091166004820152602401602060405180830381865afa158015610cbe573d6000803e3d6000fd5b505050506040513d601f19601f82011682018060405250810190610ce2919061139b565b15610d68576001848281518110610cfb57610cfb611385565b60200260200101901515908115158152505060038181548110610d2057610d20611385565b6000918252602090912001546001600160a01b0316868460058110610d4757610d47611385565b6001600160a01b03909216602092909202015282610d64816113ce565b9350505b5080610d73816113ce565b915050610bb4565b50505050919050565b60008181526002602052604090819020600a8101805460ff19166001179055600881015491516325a3731f60e11b815260048101849052600392909211156024830181905290916001600160a01b037f00000000000000000000000000000000000000000000000000000000000000001690634b46e63e90604401600060405180830381600087803b158015610e1957600080fd5b505af1158015610e2d573d6000803e3d6000fd5b50505050827ffc85ebb011b47ba12db07b899438398fd295bd4c1b285154ee32231a6552948482846008015460405161052a9291909115158252602082015260400190565b6109b28133610ff2565b610e868282610a11565b61097c576000828152602081815260408083206001600160a01b03851684529091529020805460ff19166001179055610ebc3390565b6001600160a01b0316816001600160a01b0316837f2f8788117e7eff1d82e926ec794901d17c78024a50270940304540a733656f0d60405160405180910390a45050565b610f0a8282610a11565b1561097c576000828152602081815260408083206001600160a01b0385168085529252808320805460ff1916905551339285917ff6391f5c32d9c69d2a47ea670b442974b53935d1edc7fd64eb21e047a839171b9190a45050565b610f6d61104b565b6001805460ff191690557f5db9ee0a495bf2e6ff9c91a7834c1ba4fdd244a5e8aa4e537bd38aeae4b073aa335b6040516001600160a01b03909116815260200160405180910390a1565b610fbf610b16565b6001805460ff1916811790557f62e78cea01bee320cd4e420270b5ea74000d11b0c9f74754ebdbfc544b05a25833610f9a565b610ffc8282610a11565b61097c5761100981611094565b6110148360206110a6565b604051602001611025929190611456565b60408051601f198184030181529082905262461bcd60e51b8252610426916004016114cb565b60015460ff16610b5c5760405162461bcd60e51b815260206004820152601460248201527314185d5cd8589b194e881b9bdd081c185d5cd95960621b6044820152606401610426565b60606103d16001600160a01b03831660145b606060006110b58360026114fe565b6110c0906002611515565b67ffffffffffffffff8111156110d8576110d86113e7565b6040519080825280601f01601f191660200182016040528015611102576020820181803683370190505b509050600360fc1b8160008151811061111d5761111d611385565b60200101906001600160f81b031916908160001a905350600f60fb1b8160018151811061114c5761114c611385565b60200101906001600160f81b031916908160001a90535060006111708460026114fe565b61117b906001611515565b90505b60018111156111f3576f181899199a1a9b1b9c1cb0b131b232b360811b85600f16601081106111af576111af611385565b1a60f81b8282815181106111c5576111c5611385565b60200101906001600160f81b031916908160001a90535060049490941c936111ec81611528565b905061117e565b5083156112425760405162461bcd60e51b815260206004820181905260248201527f537472696e67733a20686578206c656e67746820696e73756666696369656e746044820152606401610426565b9392505050565b6040518060a001604052806005906020820280368337509192915050565b60006020828403121561127957600080fd5b81356001600160e01b03198116811461124257600080fd5b6000602082840312156112a357600080fd5b5035919050565b80151581146109b257600080fd5b600080604083850312156112cb57600080fd5b8235915060208301356112dd816112aa565b809150509250929050565b80356001600160a01b03811681146112ff57600080fd5b919050565b6000806040838503121561131757600080fd5b82359150611327602084016112e8565b90509250929050565b60a08101818360005b60058110156113615781516001600160a01b0316835260209283019290910190600101611339565b50505092915050565b60006020828403121561137c57600080fd5b611242826112e8565b634e487b7160e01b600052603260045260246000fd5b6000602082840312156113ad57600080fd5b8151611242816112aa565b634e487b7160e01b600052601160045260246000fd5b6000600182016113e0576113e06113b8565b5060010190565b634e487b7160e01b600052604160045260246000fd5b818103818111156103d1576103d16113b8565b60008261142d57634e487b7160e01b600052601260045260246000fd5b500690565b60005b8381101561144d578181015183820152602001611435565b50506000910152565b7f416363657373436f6e74726f6c3a206163636f756e742000000000000000000081526000835161148e816017850160208801611432565b7001034b99036b4b9b9b4b733903937b6329607d1b60179184019182015283516114bf816028840160208801611432565b01602801949350505050565b60208152600082518060208401526114ea816040850160208701611432565b601f01601f19169190910160400192915050565b80820281158282048414176103d1576103d16113b8565b808201808211156103d1576103d16113b8565b600081611537576115376113b8565b50600019019056fea26469706673582212203246acbbe1161c885701a17da5dadaf9b6caff3bea04d89af55924e33bccd6f964736f6c63430008180033",
  "linkReferences": {},
  "deployedLinkReferences": {}
}