{
  "_format": "hh-sol-artifact-1",
  "contractName": "DIDRegistry",
  "sourceName": "contracts/identity/DIDRegistry.sol",
  "abi": [
    {
      "inputs": [
        {
          "internalType": "address",
          "name": "workToken_",
          "type": "address"
        },
        {
          "internalType": "address",
          "name": "admin",
          "type": "address"
        }
      ],
      "stateMutability": "nonpayable",
      "type": "constructor"
    },
    {
      "anonymous": false,
      "inputs": [
        {
          "indexed": true,
          "internalType": "address",
          "name": "identity",
          "type": "address"
        },
        {
          "indexed": true,
          "internalType": "bytes32",
          "name": "name",
          "type": "bytes32"
        },
        {
          "indexed": false,
          "internalType": "bytes",
          "name": "value",
          "type": "bytes"
        },
        {
          "indexed": false,
          "internalType": "uint256",
          "name": "validity",
          "type": "uint256"
        }
      ],
      "name": "AttributeChanged",
      "type": "event"
    },
    {
      "anonymous": false,
      "inputs": [
        {
          "indexed": true,
          "internalType": "address",
          "name": "agent",
          "type": "address"
        },
        {
          "indexed": false,
          "internalType": "int256",
          "name": "delta",
          "type": "int256"
        },
        {
          "indexed": false,
          "internalType": "uint256",
          "name": "newScore",
          "type": "uint256"
        }
      ],
      "name": "CreditUpdated",
      "type": "event"
    },
    {
      "anonymous": false,
      "inputs": [
        {
          "indexed": true,
          "internalType": "address",
          "name": "agent",
          "type": "address"
        },
        {
          "indexed": false,
          "internalType": "uint256",
          "name": "stake",
          "type": "uint256"
        },
        {
          "indexed": false,
          "internalType": "uint256",
          "name": "timestamp",
          "type": "uint256"
        }
      ],
      "name": "DIDRegistered",
      "type": "event"
    },
    {
      "anonymous": false,
      "inputs": [
        {
          "indexed": true,
          "internalType": "address",
          "name": "agent",
          "type": "address"
        },
        {
          "indexed": false,
          "internalType": "uint256",
          "name": "stakeReturned",
          "type": "uint256"
        }
      ],
      "name": "DIDRevoked",
      "type": "event"
    },
    {
      "anonymous": false,
      "inputs": [
        {
          "indexed": true,
          "internalType": "address",
          "name": "identity",
          "type": "address"
        },
        {
          "indexed": true,
          "internalType": "address",
          "name": "delegate",
          "type": "address"
        },
        {
          "indexed": false,
          "internalType": "uint256",
          "name": "validity",
          "type": "uint256"
        }
      ],
      "name": "DelegateChanged",
      "type": "event"
    },
    {
      "anonymous": false,
      "inputs": [
        {
          "indexed": false,
          "internalType": "address",
          "name": "account",
          "type": "address"
        }
      ],
      "name": "Paused",
      "type": "event"
    },
    {
      "anonymous": false,
      "inputs": [
        {
          "indexed": true,
          "internalType": "bytes32",
          "name": "role",
          "type": "bytes32"
        },
        {
          "indexed": true,
          "internalType": "bytes32",
          "name": "previousAdminRole",
          "type": "bytes32"
        },
        {
          "indexed": true,
          "internalType": "bytes32",
          "name": "newAdminRole",
          "type": "bytes32"
        }
      ],
      "name": "RoleAdminChanged",
      "type": "event"
    },
    {
      "anonymous": false,
      "inputs": [
        {
          "indexed": true,
          "internalType": "bytes32",
          "name": "role",
          "type": "bytes32"
        },
        {
          "indexed": true,
          "internalType": "address",
          "name": "account",
          "type": "address"
        },
        {
          "indexed": true,
          "internalType": "address",
          "name": "sender",
          "type": "address"
        }
      ],
      "name": "RoleGranted",
      "type": "event"
    },
    {
      "anonymous": false,
      "inputs": [
        {
          "indexed": true,
          "internalType": "bytes32",
          "name": "role",
          "type": "bytes32"
        },
        {
          "indexed": true,
          "internalType": "address",
          "name": "account",
          "type": "address"
        },
        {
          "indexed": true,
          "internalType": "address",
          "name": "sender",
          "type": "address"
        }
      ],
      "name": "RoleRevoked",
      "type": "event"
    },
    {
      "anonymous": false,
      "inputs": [
        {
          "indexed": false,
          "internalType": "address",
          "name": "account",
          "type": "address"
        }
      ],
      "name": "Unpaused",
      "type": "event"
    },
    {
      "inputs": [],
      "name": "DEFAULT_ADMIN_ROLE",
      "outputs": [
        {
          "internalType": "bytes32",
          "name": "",
          "type": "bytes32"
        }
      ],
      "stateMutability": "view",
      "type": "function"
    },
    {
      "inputs": [],
      "name": "MIN_STAKE",
      "outputs": [
        {
          "internalType": "uint256",
          "name": "",
          "type": "uint256"
        }
      ],
      "stateMutability": "view",
      "type": "function"
    },
    {
      "inputs": [],
      "name": "PAUSER_ROLE",
      "outputs": [
        {
          "internalType": "bytes32",
          "name": "",
          "type": "bytes32"
        }
      ],
      "stateMutability": "view",
      "type": "function"
    },
    {
      "inputs": [],
      "name": "SLASHER_ROLE",
      "outputs": [
        {
          "internalType": "bytes32",
          "name": "",
          "type": "bytes32"
        }
      ],
      "stateMutability": "view",
      "type": "function"
    },
    {
      "inputs": [
        {
          "internalType": "address",
          "name": "",
          "type": "address"
        }
      ],
      "name": "delegates",
      "outputs": [
        {
          "internalType": "address",
          "name": "",
          "type": "address"
        }
      ],
      "stateMutability": "view",
      "type": "function"
    },
    {
      "inputs": [
        {
          "internalType": "address",
          "name": "",
          "type": "address"
        }
      ],
      "name": "dids",
      "outputs": [
        {
          "internalType": "bool",
          "name": "active",
          "type": "bool"
        },
        {
          "internalType": "uint256",
          "name": "stakedAmount",
          "type": "uint256"
        },
        {
          "internalType": "uint256",
          "name": "registeredAt",
          "type": "uint256"
        },
        {
          "internalType": "uint256",
          "name": "creditScore",
          "type": "uint256"
        },
        {
          "internalType": "string",
          "name": "controller",
          "type": "string"
        }
      ],
      "stateMutability": "view",
      "type": "function"
    },
    {
      "inputs": [
        {
          "internalType": "address",
          "name": "agent",
          "type": "address"
        }
      ],
      "name": "getCreditScore",
      "outputs": [
        {
          "internalType": "uint256",
          "name": "",
          "type": "uint256"
        }
      ],
      "stateMutability": "view",
      "type": "function"
    },
    {
      "inputs": [
        {
          "internalType": "bytes32",
          "name": "role",
          "type": "bytes32"
        }
      ],
      "name": "getRoleAdmin",
      "outputs": [
        {
          "internalType": "bytes32",
          "name": "",
          "type": "bytes32"
        }
      ],
      "stateMutability": "view",
      "type": "function"
    },
    {
      "inputs": [
        {
          "internalType": "address",
          "name": "agent",
          "type": "address"
        }
      ],
      "name": "getStake",
      "outputs": [
        {
          "internalType": "uint256",
          "name": "",
          "type": "uint256"
        }
      ],
      "stateMutability": "view",
      "type": "function"
    },
    {
      "inputs": [
        {
          "internalType": "bytes32",
          "name": "role",
          "type": "bytes32"
        },
        {
          "internalType": "address",
          "name": "account",
          "type": "address"
        }
      ],
      "name": "grantRole",
      "outputs": [],
      "stateMutability": "nonpayable",
      "type": "function"
    },
    {
      "inputs": [
        {
          "internalType": "bytes32",
          "name": "role",
          "type": "bytes32"
        },
        {
          "internalType": "address",
          "name": "account",
          "type": "address"
        }
      ],
      "name": "hasRole",
      "outputs": [
        {
          "internalType": "bool",
          "name": "",
          "type": "bool"
        }
      ],
      "stateMutability": "view",
      "type": "function"
    },
    {
      "inputs": [
        {
          "internalType": "address",
          "name": "agent",
          "type": "address"
        }
      ],
      "name": "isValid",
      "outputs": [
        {
          "internalType": "bool",
          "name": "",
          "type": "bool"
        }
      ],
      "stateMutability": "view",
      "type": "function"
    },
    {
      "inputs": [],
      "name": "pause",
      "outputs": [],
      "stateMutability": "nonpayable",
      "type": "function"
    },
    {
      "inputs": [],
      "name": "paused",
      "outputs": [
        {
          "internalType": "bool",
          "name": "",
          "type": "bool"
        }
      ],
      "stateMutability": "view",
      "type": "function"
    },
    {
      "inputs": [
        {
          "internalType": "uint256",
          "name": "stakeAmount",
          "type": "uint256"
        }
      ],
      "name": "registerDID",
      "outputs": [],
      "stateMutability": "nonpayable",
      "type": "function"
    },
    {
      "inputs": [
        {
          "internalType": "bytes32",
          "name": "role",
          "type": "bytes32"
        },
        {
          "internalType": "address",
          "name": "account",
          "type": "address"
        }
      ],
      "name": "renounceRole",
      "outputs": [],
      "stateMutability": "nonpayable",
      "type": "function"
    },
    {
      "inputs": [],
      "name": "revokeDID",
      "outputs": [],
      "stateMutability": "nonpayable",
      "type": "function"
    },
    {
      "inputs": [
        {
          "internalType": "bytes32",
          "name": "role",
          "type": "bytes32"
        },
        {
          "internalType": "address",
          "name": "account",
          "type": "address"
        }
      ],
      "name": "revokeRole",
      "outputs": [],
      "stateMutability": "nonpayable",
      "type": "function"
    },
    {
      "inputs": [
        {
          "internalType": "bytes32",
          "name": "name",
          "type": "bytes32"
        },
        {
          "internalType": "bytes",
          "name": "value",
          "type": "bytes"
        },
        {
          "internalType": "uint256",
          "name": "validity",
          "type": "uint256"
        }
      ],
      "name": "setAttribute",
      "outputs": [],
      "stateMutability": "nonpayable",
      "type": "function"
    },
    {
      "inputs": [
        {
          "internalType": "address",
          "name": "identity",
          "type": "address"
        },
        {
          "internalType": "address",
          "name": "delegate",
          "type": "address"
        },
        {
          "internalType": "uint256",
          "name": "validity",
          "type": "uint256"
        }
      ],
      "name": "setDelegate",
      "outputs": [],
      "stateMutability": "nonpayable",
      "type": "function"
    },
    {
      "inputs": [
        {
          "internalType": "address",
          "name": "agent",
          "type": "address"
        },
        {
          "internalType": "uint256",
          "name": "basisPoints",
          "type": "uint256"
        },
        {
          "internalType": "string",
          "name": "reason",
          "type": "string"
        }
      ],
      "name": "slashStake",
      "outputs": [],
      "stateMutability": "nonpayable",
      "type": "function"
    },
    {
      "inputs": [
        {
          "internalType": "bytes4",
          "name": "interfaceId",
          "type": "bytes4"
        }
      ],
      "name": "supportsInterface",
      "outputs": [
        {
          "internalType": "bool",
          "name": "",
          "type": "bool"
        }
      ],
      "stateMutability": "view",
      "type": "function"
    },
    {
      "inputs": [],
      "name": "totalActiveDIDs",
      "outputs": [
        {
          "internalType": "uint256",
          "name": "",
          "type": "uint256"
        }
      ],
      "stateMutability": "view",
      "type": "function"
    },
    {
      "inputs": [],
      "name": "unpause",
      "outputs": [],
      "stateMutability": "nonpayable",
      "type": "function"
    },
    {
      "inputs": [
        {
          "internalType": "address",
          "name": "agent",
          "type": "address"
        },
        {
          "internalType": "int256",
          "name": "delta",
          "type": "int256"
        }
      ],
      "name": "updateCredit",
      "outputs": [],
      "stateMutability": "nonpayable",
      "type": "function"
    },
    {
      "inputs": [],
      "name": "workToken",
      "outputs": [
        {
          "internalType": "contract WorkToken",
          "name": "",
          "type": "address"
        }
      ],
      "stateMutability": "view",
      "type": "function"
    }
  ],
  "bytecode": "0x60a06040523480156200001157600080fd5b506040516200199c3803806200199c833981016040819052620000349162000176565b6001805460ff191690556001600160a01b03821660805262000058600082620000b8565b620000847f65d7a28e3265b37a6474929f336521b332c1681b933f6cb9f3376673440d862a82620000b8565b620000b07f12b42e8a160f6064dc959c6f251e3af0750ad213dbecf573b4710d67d6c28e3982620000b8565b5050620001ae565b6000828152602081815260408083206001600160a01b038516845290915290205460ff1662000155576000828152602081815260408083206001600160a01b03851684529091529020805460ff19166001179055620001143390565b6001600160a01b0316816001600160a01b0316837f2f8788117e7eff1d82e926ec794901d17c78024a50270940304540a733656f0d60405160405180910390a45b5050565b80516001600160a01b03811681146200017157600080fd5b919050565b600080604083850312156200018a57600080fd5b620001958362000159565b9150620001a56020840162000159565b90509250929050565b6080516117bd620001df6000396000818161023d0152818161052f015281816109360152610ab701526117bd6000f3fe608060405234801561001057600080fd5b506004361061018e5760003560e01c80638456cb59116100de578063cb1c2b5c11610097578063d547741f11610071578063d547741f146103db578063d862913f146103ee578063e3a0a45714610401578063e63ab1e91461041457600080fd5b8063cb1c2b5c1461038c578063d1af37a01461039c578063d3dd2bdf146103af57600080fd5b80638456cb591461032c5780638b1b925f1461033457806391d14854146103605780639790874c14610373578063a217fddf1461037b578063c6ecc9941461038357600080fd5b806336568abe1161014b5780635095af64116101255780635095af64146102a5578063587cde1e146102cc5780635c975abb146102f55780637a7664601461030057600080fd5b806336568abe146102775780633f4ba83a1461028a5780634bcee9e81461029257600080fd5b806301ffc9a7146101935780630cedba7b146101bb578063248a9ca3146101d05780632f2ff15d146102015780633593f81b14610214578063360e682314610238575b600080fd5b6101a66101a1366004611175565b61043b565b60405190151581526020015b60405180910390f35b6101ce6101c9366004611204565b610472565b005b6101f36101de36600461125e565b60009081526020819052604090206001015490565b6040519081526020016101b2565b6101ce61020f366004611277565b6105a5565b6102276102223660046112a3565b6105cf565b6040516101b295949392919061130e565b61025f7f000000000000000000000000000000000000000000000000000000000000000081565b6040516001600160a01b0390911681526020016101b2565b6101ce610285366004611277565b61068e565b6101ce61070c565b6101ce6102a0366004611346565b610741565b6101f37f12b42e8a160f6064dc959c6f251e3af0750ad213dbecf573b4710d67d6c28e3981565b61025f6102da3660046112a3565b6003602052600090815260409020546001600160a01b031681565b60015460ff166101a6565b6101f361030e3660046112a3565b6001600160a01b031660009081526002602052604090206001015490565b6101ce61085f565b6101a66103423660046112a3565b6001600160a01b031660009081526002602052604090205460ff1690565b6101a661036e366004611277565b610891565b6101ce6108ba565b6101f3600081565b6101f360045481565b6101f368056bc75e2d6310000081565b6101ce6103aa36600461125e565b6109e5565b6101f36103bd3660046112a3565b6001600160a01b031660009081526002602052604090206003015490565b6101ce6103e9366004611277565b610c03565b6101ce6103fc366004611370565b610c28565b6101ce61040f3660046113c3565b610ca3565b6101f37f65d7a28e3265b37a6474929f336521b332c1681b933f6cb9f3376673440d862a81565b60006001600160e01b03198216637965db0b60e01b148061046c57506301ffc9a760e01b6001600160e01b03198316145b92915050565b7f12b42e8a160f6064dc959c6f251e3af0750ad213dbecf573b4710d67d6c28e3961049c81610d56565b6001600160a01b0385166000908152600260205260409020805460ff166104de5760405162461bcd60e51b81526004016104d5906113ff565b60405180910390fd5b60006127108683600101546104f3919061143d565b6104fd9190611454565b9050808260010160008282546105139190611476565b90915550506040516333c59f7160e11b81526001600160a01b037f0000000000000000000000000000000000000000000000000000000000000000169063678b3ee29061056a90309085908a908a906004016114b2565b600060405180830381600087803b15801561058457600080fd5b505af1158015610598573d6000803e3d6000fd5b5050505050505050505050565b6000828152602081905260409020600101546105c081610d56565b6105ca8383610d60565b505050565b60026020819052600091825260409091208054600182015492820154600383015460048401805460ff9094169594929391929161060b906114e4565b80601f0160208091040260200160405190810160405280929190818152602001828054610637906114e4565b80156106845780601f1061065957610100808354040283529160200191610684565b820191906000526020600020905b81548152906001019060200180831161066757829003601f168201915b5050505050905085565b6001600160a01b03811633146106fe5760405162461bcd60e51b815260206004820152602f60248201527f416363657373436f6e74726f6c3a2063616e206f6e6c792072656e6f756e636560448201526e103937b632b9903337b91039b2b63360891b60648201526084016104d5565b6107088282610de4565b5050565b7f65d7a28e3265b37a6474929f336521b332c1681b933f6cb9f3376673440d862a61073681610d56565b61073e610e49565b50565b7f12b42e8a160f6064dc959c6f251e3af0750ad213dbecf573b4710d67d6c28e3961076b81610d56565b6001600160a01b0383166000908152600260205260409020805460ff166107a45760405162461bcd60e51b81526004016104d5906113ff565b60038101546000841280156107c15750806107be8561151e565b10155b156107d25760006003830155610808565b60008412156107f8576107e48461151e565b6107ee9082611476565b6003830155610808565b610802848261153a565b60038301555b846001600160a01b03167f2a282323d08fb25de72cd7bcff98bf467983c2b0aa116587d336812caa8846ba858460030154604051610850929190918252602082015260400190565b60405180910390a25050505050565b7f65d7a28e3265b37a6474929f336521b332c1681b933f6cb9f3376673440d862a61088981610d56565b61073e610e9b565b6000918252602082815260408084206001600160a01b0393909316845291905290205460ff1690565b6108c2610ed6565b336000908152600260205260409020805460ff166108f25760405162461bcd60e51b81526004016104d5906113ff565b600181018054825460ff191683556000918290556004805491926109158361154d565b909155505060405163a9059cbb60e01b8152336004820152602481018290527f00000000000000000000000000000000000000000000000000000000000000006001600160a01b03169063a9059cbb906044016020604051808303816000875af1158015610987573d6000803e3d6000fd5b505050506040513d601f19601f820116820180604052508101906109ab9190611564565b5060405181815233907f9a093ae7c73f311f6bbfd4a53f263429e0a5ab016999d72403ff7bcaa81e270f9060200160405180910390a25050565b6109ed610ed6565b3360009081526002602052604090205460ff1615610a465760405162461bcd60e51b815260206004820152601660248201527511125108185b1c9958591e481c9959da5cdd195c995960521b60448201526064016104d5565b68056bc75e2d63100000811015610a955760405162461bcd60e51b81526020600482015260136024820152725374616b652062656c6f77206d696e696d756d60681b60448201526064016104d5565b6040516323b872dd60e01b8152336004820152306024820152604481018290527f00000000000000000000000000000000000000000000000000000000000000006001600160a01b0316906323b872dd906064016020604051808303816000875af1158015610b08573d6000803e3d6000fd5b505050506040513d601f19601f82011682018060405250810190610b2c9190611564565b506040805160a081018252600180825260208083018581524284860190815260646060860190815286518085018852600080825260808801918252338152600295869052979097208651815460ff191690151517815592519483019490945551918101919091559051600382015591519091906004820190610bae90826115ec565b50506004805491506000610bc1836116ac565b90915550506040805182815242602082015233917fb5dc1fb50662e9941e159c6ede09c662676630a7f57dab7f1bb6974deed0c979910160405180910390a250565b600082815260208190526040902060010154610c1e81610d56565b6105ca8383610de4565b3360009081526002602052604090205460ff16610c575760405162461bcd60e51b81526004016104d5906113ff565b83336001600160a01b03167fefc1bdf97aea8c7af552221d1cfbf0c8c31bd4e57a28007d05e5a32e0236bb55858585604051610c95939291906116c5565b60405180910390a350505050565b336001600160a01b03841614610cf05760405162461bcd60e51b81526020600482015260126024820152712737ba1034b232b73a34ba3c9037bbb732b960711b60448201526064016104d5565b6001600160a01b0383811660008181526003602090815260409182902080546001600160a01b031916948716948517905590518481527f207b6f0645271bb37aa1924037603b5d8c31d32b6dd6b0e4f5f1c2d039c25348910160405180910390a3505050565b61073e8133610f1e565b610d6a8282610891565b610708576000828152602081815260408083206001600160a01b03851684529091529020805460ff19166001179055610da03390565b6001600160a01b0316816001600160a01b0316837f2f8788117e7eff1d82e926ec794901d17c78024a50270940304540a733656f0d60405160405180910390a45050565b610dee8282610891565b15610708576000828152602081815260408083206001600160a01b0385168085529252808320805460ff1916905551339285917ff6391f5c32d9c69d2a47ea670b442974b53935d1edc7fd64eb21e047a839171b9190a45050565b610e51610f77565b6001805460ff191690557f5db9ee0a495bf2e6ff9c91a7834c1ba4fdd244a5e8aa4e537bd38aeae4b073aa335b6040516001600160a01b03909116815260200160405180910390a1565b610ea3610ed6565b6001805460ff1916811790557f62e78cea01bee320cd4e420270b5ea74000d11b0c9f74754ebdbfc544b05a25833610e7e565b60015460ff1615610f1c5760405162461bcd60e51b815260206004820152601060248201526f14185d5cd8589b194e881c185d5cd95960821b60448201526064016104d5565b565b610f288282610891565b61070857610f3581610fc0565b610f40836020610fd2565b604051602001610f519291906116e9565b60408051601f198184030181529082905262461bcd60e51b82526104d59160040161175e565b60015460ff16610f1c5760405162461bcd60e51b815260206004820152601460248201527314185d5cd8589b194e881b9bdd081c185d5cd95960621b60448201526064016104d5565b606061046c6001600160a01b03831660145b60606000610fe183600261143d565b610fec90600261153a565b67ffffffffffffffff81111561100457611004611586565b6040519080825280601f01601f19166020018201604052801561102e576020820181803683370190505b509050600360fc1b8160008151811061104957611049611771565b60200101906001600160f81b031916908160001a905350600f60fb1b8160018151811061107857611078611771565b60200101906001600160f81b031916908160001a905350600061109c84600261143d565b6110a790600161153a565b90505b600181111561111f576f181899199a1a9b1b9c1cb0b131b232b360811b85600f16601081106110db576110db611771565b1a60f81b8282815181106110f1576110f1611771565b60200101906001600160f81b031916908160001a90535060049490941c936111188161154d565b90506110aa565b50831561116e5760405162461bcd60e51b815260206004820181905260248201527f537472696e67733a20686578206c656e67746820696e73756666696369656e7460448201526064016104d5565b9392505050565b60006020828403121561118757600080fd5b81356001600160e01b03198116811461116e57600080fd5b80356001600160a01b03811681146111b657600080fd5b919050565b60008083601f8401126111cd57600080fd5b50813567ffffffffffffffff8111156111e557600080fd5b6020830191508360208285010111156111fd57600080fd5b9250929050565b6000806000806060858703121561121a57600080fd5b6112238561119f565b935060208501359250604085013567ffffffffffffffff81111561124657600080fd5b611252878288016111bb565b95989497509550505050565b60006020828403121561127057600080fd5b5035919050565b6000806040838503121561128a57600080fd5b8235915061129a6020840161119f565b90509250929050565b6000602082840312156112b557600080fd5b61116e8261119f565b60005b838110156112d95781810151838201526020016112c1565b50506000910152565b600081518084526112fa8160208601602086016112be565b601f01601f19169290920160200192915050565b851515815284602082015283604082015282606082015260a06080820152600061133b60a08301846112e2565b979650505050505050565b6000806040838503121561135957600080fd5b6113628361119f565b946020939093013593505050565b6000806000806060858703121561138657600080fd5b84359350602085013567ffffffffffffffff8111156113a457600080fd5b6113b0878288016111bb565b9598909750949560400135949350505050565b6000806000606084860312156113d857600080fd5b6113e18461119f565b92506113ef6020850161119f565b9150604084013590509250925092565b6020808252600e908201526d444944206e6f742061637469766560901b604082015260600190565b634e487b7160e01b600052601160045260246000fd5b808202811582820484141761046c5761046c611427565b60008261147157634e487b7160e01b600052601260045260246000fd5b500490565b8181038181111561046c5761046c611427565b81835281816020850137506000828201602090810191909152601f909101601f19169091010190565b60018060a01b03851681528360208201526060604082015260006114da606083018486611489565b9695505050505050565b600181811c908216806114f857607f821691505b60208210810361151857634e487b7160e01b600052602260045260246000fd5b50919050565b6000600160ff1b820161153357611533611427565b5060000390565b8082018082111561046c5761046c611427565b60008161155c5761155c611427565b506000190190565b60006020828403121561157657600080fd5b8151801515811461116e57600080fd5b634e487b7160e01b600052604160045260246000fd5b601f8211156105ca576000816000526020600020601f850160051c810160208610156115c55750805b601f850160051c820191505b818110156115e4578281556001016115d1565b505050505050565b815167ffffffffffffffff81111561160657611606611586565b61161a8161161484546114e4565b8461159c565b602080601f83116001811461164f57600084156116375750858301515b600019600386901b1c1916600185901b1785556115e4565b600085815260208120601f198616915b8281101561167e5788860151825594840194600190910190840161165f565b508582101561169c5787850151600019600388901b60f8161c191681555b5050505050600190811b01905550565b6000600182016116be576116be611427565b5060010190565b6040815260006116d9604083018587611489565b9050826020830152949350505050565b7f416363657373436f6e74726f6c3a206163636f756e74200000000000000000008152600083516117218160178501602088016112be565b7001034b99036b4b9b9b4b733903937b6329607d1b60179184019182015283516117528160288401602088016112be565b01602801949350505050565b60208152600061116e60208301846112e2565b634e487b7160e01b600052603260045260246000fdfea26469706673582212200ebe87a23a6f3f63d8dc472d33567b04066d11a1192fee5f02133d377f8f82ee64736f6c63430008180033",
  "linkReferences": {},
  "deployedLinkReferences": {}
}