{
  "_format": "hh-sol-artifact-1",
  "contractName": "GovToken",
  "sourceName": "contracts/tokens/GovToken.sol",
  "abi": [
    {
      "inputs": [
        {
          "internalType": "address",
          "name": "admin",
          "type": "address"
        },
        {
          "internalType": "address",
          "name": "treasury",
          "type": "address"
        }
      ],
      "stateMutability": "nonpayable",
      "type": "constructor"
    },
    {
      "inputs": [],
      "name": "InvalidShortString",
      "type": "error"
    },
    {
      "inputs": [
        {
          "internalType": "string",
          "name": "str",
          "type": "string"
        }
      ],
      "name": "StringTooLong",
      "type": "error"
    },
    {
      "anonymous": false,
      "inputs": [
        {
          "indexed": true,
          "internalType": "address",
          "name": "owner",
          "type": "address"
        },
        {
          "indexed": true,
          "internalType": "address",
          "name": "spender",
          "type": "address"
        },
        {
          "indexed": false,
          "internalType": "uint256",
          "name": "value",
          "type": "uint256"
        }
      ],
      "name": "Approval",
      "type": "event"
    },
    {
      "anonymous": false,
      "inputs": [
        {
          "indexed": true,
          "internalType": "address",
          "name": "delegator",
          "type": "address"
        },
        {
          "indexed": true,
          "internalType": "address",
          "name": "fromDelegate",
          "type": "address"
        },
        {
          "indexed": true,
          "internalType": "address",
          "name": "toDelegate",
          "type": "address"
        }
      ],
      "name": "DelegateChanged",
      "type": "event"
    },
    {
      "anonymous": false,
      "inputs": [
        {
          "indexed": true,
          "internalType": "address",
          "name": "delegate",
          "type": "address"
        },
        {
          "indexed": false,
          "internalType": "uint256",
          "name": "previousBalance",
          "type": "uint256"
        },
        {
          "indexed": false,
          "internalType": "uint256",
          "name": "newBalance",
          "type": "uint256"
        }
      ],
      "name": "DelegateVotesChanged",
      "type": "event"
    },
    {
      "anonymous": false,
      "inputs": [],
      "name": "EIP712DomainChanged",
      "type": "event"
    },
    {
      "anonymous": false,
      "inputs": [
        {
          "indexed": false,
          "internalType": "address",
          "name": "account",
          "type": "address"
        }
      ],
      "name": "Paused",
      "type": "event"
    },
    {
      "anonymous": false,
      "inputs": [
        {
          "indexed": true,
          "internalType": "bytes32",
          "name": "role",
          "type": "bytes32"
        },
        {
          "indexed": true,
          "internalType": "bytes32",
          "name": "previousAdminRole",
          "type": "bytes32"
        },
        {
          "indexed": true,
          "internalType": "bytes32",
          "name": "newAdminRole",
          "type": "bytes32"
        }
      ],
      "name": "RoleAdminChanged",
      "type": "event"
    },
    {
      "anonymous": false,
      "inputs": [
        {
          "indexed": true,
          "internalType": "bytes32",
          "name": "role",
          "type": "bytes32"
        },
        {
          "indexed": true,
          "internalType": "address",
          "name": "account",
          "type": "address"
        },
        {
          "indexed": true,
          "internalType": "address",
          "name": "sender",
          "type": "address"
        }
      ],
      "name": "RoleGranted",
      "type": "event"
    },
    {
      "anonymous": false,
      "inputs": [
        {
          "indexed": true,
          "internalType": "bytes32",
          "name": "role",
          "type": "bytes32"
        },
        {
          "indexed": true,
          "internalType": "address",
          "name": "account",
          "type": "address"
        },
        {
          "indexed": true,
          "internalType": "address",
          "name": "sender",
          "type": "address"
        }
      ],
      "name": "RoleRevoked",
      "type": "event"
    },
    {
      "anonymous": false,
      "inputs": [
        {
          "indexed": true,
          "internalType": "address",
          "name": "from",
          "type": "address"
        },
        {
          "indexed": true,
          "internalType": "address",
          "name": "to",
          "type": "address"
        },
        {
          "indexed": false,
          "internalType": "uint256",
          "name": "value",
          "type": "uint256"
        }
      ],
      "name": "Transfer",
      "type": "event"
    },
    {
      "anonymous": false,
      "inputs": [
        {
          "indexed": false,
          "internalType": "address",
          "name": "account",
          "type": "address"
        }
      ],
      "name": "Unpaused",
      "type": "event"
    },
    {
      "inputs": [],
      "name": "CLOCK_MODE",
      "outputs": [
        {
          "internalType": "string",
          "name": "",
          "type": "string"
        }
      ],
      "stateMutability": "view",
      "type": "function"
    },
    {
      "inputs": [],
      "name": "DEFAULT_ADMIN_ROLE",
      "outputs": [
        {
          "internalType": "bytes32",
          "name": "",
          "type": "bytes32"
        }
      ],
      "stateMutability": "view",
      "type": "function"
    },
    {
      "inputs": [],
      "name": "DOMAIN_SEPARATOR",
      "outputs": [
        {
          "internalType": "bytes32",
          "name": "",
          "type": "bytes32"
        }
      ],
      "stateMutability": "view",
      "type": "function"
    },
    {
      "inputs": [],
      "name": "PAUSER_ROLE",
      "outputs": [
        {
          "internalType": "bytes32",
          "name": "",
          "type": "bytes32"
        }
      ],
      "stateMutability": "view",
      "type": "function"
    },
    {
      "inputs": [],
      "name": "TOTAL_SUPPLY",
      "outputs": [
        {
          "internalType": "uint256",
          "name": "",
          "type": "uint256"
        }
      ],
      "stateMutability": "view",
      "type": "function"
    },
    {
      "inputs": [
        {
          "internalType": "address",
          "name": "owner",
          "type": "address"
        },
        {
          "internalType": "address",
          "name": "spender",
          "type": "address"
        }
      ],
      "name": "allowance",
      "outputs": [
        {
          "internalType": "uint256",
          "name": "",
          "type": "uint256"
        }
      ],
      "stateMutability": "view",
      "type": "function"
    },
    {
      "inputs": [
        {
          "internalType": "address",
          "name": "spender",
          "type": "address"
        },
        {
          "internalType": "uint256",
          "name": "amount",
          "type": "uint256"
        }
      ],
      "name": "approve",
      "outputs": [
        {
          "internalType": "bool",
          "name": "",
          "type": "bool"
        }
      ],
      "stateMutability": "nonpayable",
      "type": "function"
    },
    {
      "inputs": [
        {
          "internalType": "address",
          "name": "account",
          "type": "address"
        }
      ],
      "name": "balanceOf",
      "outputs": [
        {
          "internalType": "uint256",
          "name": "",
          "type": "uint256"
        }
      ],
      "stateMutability": "view",
      "type": "function"
    },
    {
      "inputs": [
        {
          "internalType": "address",
          "name": "account",
          "type": "address"
        },
        {
          "internalType": "uint32",
          "name": "pos",
          "type": "uint32"
        }
      ],
      "name": "checkpoints",
      "outputs": [
        {
          "components": [
            {
              "internalType": "uint32",
              "name": "fromBlock",
              "type": "uint32"
            },
            {
              "internalType": "uint224",
              "name": "votes",
              "type": "uint224"
            }
          ],
          "internalType": "struct ERC20Votes.Checkpoint",
          "name": "",
          "type": "tuple"
        }
      ],
      "stateMutability": "view",
      "type": "function"
    },
    {
      "inputs": [],
      "name": "clock",
      "outputs": [
        {
          "internalType": "uint48",
          "name": "",
          "type": "uint48"
        }
      ],
      "stateMutability": "view",
      "type": "function"
    },
    {
      "inputs": [],
      "name": "decimals",
      "outputs": [
        {
          "internalType": "uint8",
          "name": "",
          "type": "uint8"
        }
      ],
      "stateMutability": "view",
      "type": "function"
    },
    {
      "inputs": [
        {
          "internalType": "address",
          "name": "spender",
          "type": "address"
        },
        {
          "internalType": "uint256",
          "name": "subtractedValue",
          "type": "uint256"
        }
      ],
      "name": "decreaseAllowance",
      "outputs": [
        {
          "internalType": "bool",
          "name": "",
          "type": "bool"
        }
      ],
      "stateMutability": "nonpayable",
      "type": "function"
    },
    {
      "inputs": [
        {
          "internalType": "address",
          "name": "delegatee",
          "type": "address"
        }
      ],
      "name": "delegate",
      "outputs": [],
      "stateMutability": "nonpayable",
      "type": "function"
    },
    {
      "inputs": [
        {
          "internalType": "address",
          "name": "delegatee",
          "type": "address"
        },
        {
          "internalType": "uint256",
          "name": "nonce",
          "type": "uint256"
        },
        {
          "internalType": "uint256",
          "name": "expiry",
          "type": "uint256"
        },
        {
          "internalType": "uint8",
          "name": "v",
          "type": "uint8"
        },
        {
          "internalType": "bytes32",
          "name": "r",
          "type": "bytes32"
        },
        {
          "internalType": "bytes32",
          "name": "s",
          "type": "bytes32"
        }
      ],
      "name": "delegateBySig",
      "outputs": [],
      "stateMutability": "nonpayable",
      "type": "function"
    },
    {
      "inputs": [
        {
          "internalType": "address",
          "name": "account",
          "type": "address"
        }
      ],
      "name": "delegates",
      "outputs": [
        {
          "internalType": "address",
          "name": "",
          "type": "address"
        }
      ],
      "stateMutability": "view",
      "type": "function"
    },
    {
      "inputs": [],
      "name": "eip712Domain",
      "outputs": [
        {
          "internalType": "bytes1",
          "name": "fields",
          "type": "bytes1"
        },
        {
          "internalType": "string",
          "name": "name",
          "type": "string"
        },
        {
          "internalType": "string",
          "name": "version",
          "type": "string"
        },
        {
          "internalType": "uint256",
          "name": "chainId",
          "type": "uint256"
        },
        {
          "internalType": "address",
          "name": "verifyingContract",
          "type": "address"
        },
        {
          "internalType": "bytes32",
          "name": "salt",
          "type": "bytes32"
        },
        {
          "internalType": "uint256[]",
          "name": "extensions",
          "type": "uint256[]"
        }
      ],
      "stateMutability": "view",
      "type": "function"
    },
    {
      "inputs": [
        {
          "internalType": "uint256",
          "name": "timepoint",
          "type": "uint256"
        }
      ],
      "name": "getPastTotalSupply",
      "outputs": [
        {
          "internalType": "uint256",
          "name": "",
          "type": "uint256"
        }
      ],
      "stateMutability": "view",
      "type": "function"
    },
    {
      "inputs": [
        {
          "internalType": "address",
          "name": "account",
          "type": "address"
        },
        {
          "internalType": "uint256",
          "name": "timepoint",
          "type": "uint256"
        }
      ],
      "name": "getPastVotes",
      "outputs": [
        {
          "internalType": "uint256",
          "name": "",
          "type": "uint256"
        }
      ],
      "stateMutability": "view",
      "type": "function"
    },
    {
      "inputs": [
        {
          "internalType": "bytes32",
          "name": "role",
          "type": "bytes32"
        }
      ],
      "name": "getRoleAdmin",
      "outputs": [
        {
          "internalType": "bytes32",
          "name": "",
          "type": "bytes32"
        }
      ],
      "stateMutability": "view",
      "type": "function"
    },
    {
      "inputs": [
        {
          "internalType": "address",
          "name": "account",
          "type": "address"
        }
      ],
      "name": "getVotes",
      "outputs": [
        {
          "internalType": "uint256",
          "name": "",
          "type": "uint256"
        }
      ],
      "stateMutability": "view",
      "type": "function"
    },
    {
      "inputs": [
        {
          "internalType": "bytes32",
          "name": "role",
          "type": "bytes32"
        },
        {
          "internalType": "address",
          "name": "account",
          "type": "address"
        }
      ],
      "name": "grantRole",
      "outputs": [],
      "stateMutability": "nonpayable",
      "type": "function"
    },
    {
      "inputs": [
        {
          "internalType": "bytes32",
          "name": "role",
          "type": "bytes32"
        },
        {
          "internalType": "address",
          "name": "account",
          "type": "address"
        }
      ],
      "name": "hasRole",
      "outputs": [
        {
          "internalType": "bool",
          "name": "",
          "type": "bool"
        }
      ],
      "stateMutability": "view",
      "type": "function"
    },
    {
      "inputs": [
        {
          "internalType": "address",
          "name": "spender",
          "type": "address"
        },
        {
          "internalType": "uint256",
          "name": "addedValue",
          "type": "uint256"
        }
      ],
      "name": "increaseAllowance",
      "outputs": [
        {
          "internalType": "bool",
          "name": "",
          "type": "bool"
        }
      ],
      "stateMutability": "nonpayable",
      "type": "function"
    },
    {
      "inputs": [],
      "name": "name",
      "outputs": [
        {
          "internalType": "string",
          "name": "",
          "type": "string"
        }
      ],
      "stateMutability": "view",
      "type": "function"
    },
    {
      "inputs": [
        {
          "internalType": "address",
          "name": "owner",
          "type": "address"
        }
      ],
      "name": "nonces",
      "outputs": [
        {
          "internalType": "uint256",
          "name": "",
          "type": "uint256"
        }
      ],
      "stateMutability": "view",
      "type": "function"
    },
    {
      "inputs": [
        {
          "internalType": "address",
          "name": "account",
          "type": "address"
        }
      ],
      "name": "numCheckpoints",
      "outputs": [
        {
          "internalType": "uint32",
          "name": "",
          "type": "uint32"
        }
      ],
      "stateMutability": "view",
      "type": "function"
    },
    {
      "inputs": [],
      "name": "pause",
      "outputs": [],
      "stateMutability": "nonpayable",
      "type": "function"
    },
    {
      "inputs": [],
      "name": "paused",
      "outputs": [
        {
          "internalType": "bool",
          "name": "",
          "type": "bool"
        }
      ],
      "stateMutability": "view",
      "type": "function"
    },
    {
      "inputs": [
        {
          "internalType": "address",
          "name": "owner",
          "type": "address"
        },
        {
          "internalType": "address",
          "name": "spender",
          "type": "address"
        },
        {
          "internalType": "uint256",
          "name": "value",
          "type": "uint256"
        },
        {
          "internalType": "uint256",
          "name": "deadline",
          "type": "uint256"
        },
        {
          "internalType": "uint8",
          "name": "v",
          "type": "uint8"
        },
        {
          "internalType": "bytes32",
          "name": "r",
          "type": "bytes32"
        },
        {
          "internalType": "bytes32",
          "name": "s",
          "type": "bytes32"
        }
      ],
      "name": "permit",
      "outputs": [],
      "stateMutability": "nonpayable",
      "type": "function"
    },
    {
      "inputs": [
        {
          "internalType": "bytes32",
          "name": "role",
          "type": "bytes32"
        },
        {
          "internalType": "address",
          "name": "account",
          "type": "address"
        }
      ],
      "name": "renounceRole",
      "outputs": [],
      "stateMutability": "nonpayable",
      "type": "function"
    },
    {
      "inputs": [
        {
          "internalType": "bytes32",
          "name": "role",
          "type": "bytes32"
        },
        {
          "internalType": "address",
          "name": "account",
          "type": "address"
        }
      ],
      "name": "revokeRole",
      "outputs": [],
      "stateMutability": "nonpayable",
      "type": "function"
    },
    {
      "inputs": [
        {
          "internalType": "bytes4",
          "name": "interfaceId",
          "type": "bytes4"
        }
      ],
      "name": "supportsInterface",
      "outputs": [
        {
          "internalType": "bool",
          "name": "",
          "type": "bool"
        }
      ],
      "stateMutability": "view",
      "type": "function"
    },
    {
      "inputs": [],
      "name": "symbol",
      "outputs": [
        {
          "internalType": "string",
          "name": "",
          "type": "string"
        }
      ],
      "stateMutability": "view",
      "type": "function"
    },
    {
      "inputs": [],
      "name": "totalSupply",
      "outputs": [
        {
          "internalType": "uint256",
          "name": "",
          "type": "uint256"
        }
      ],
      "stateMutability": "view",
      "type": "function"
    },
    {
      "inputs": [
        {
          "internalType": "address",
          "name": "to",
          "type": "address"
        },
        {
          "internalType": "uint256",
          "name": "amount",
          "type": "uint256"
        }
      ],
      "name": "transfer",
      "outputs": [
        {
          "internalType": "bool",
          "name": "",
          "type": "bool"
        }
      ],
      "stateMutability": "nonpayable",
      "type": "function"
    },
    {
      "inputs": [
        {
          "internalType": "address",
          "name": "from",
          "type": "address"
        },
        {
          "internalType": "address",
          "name": "to",
          "type": "address"
        },
        {
          "internalType": "uint256",
          "name": "amount",
          "type": "uint256"
        }
      ],
      "name": "transferFrom",
      "outputs": [
        {
          "internalType": "bool",
          "name": "",
          "type": "bool"
        }
      ],
      "stateMutability": "nonpayable",
      "type": "function"
    },
    {
      "inputs": [],
      "name": "unpause",
      "outputs": [],
      "stateMutability": "nonpayable",
      "type": "function"
    }
  ],
  "bytecode": "0x6101606040523480156200001257600080fd5b50604051620033f5380380620033f58339810160408190526200003591620009ae565b6040518060400160405280600981526020016823a7ab102a37b5b2b760b91b81525080604051806040016040528060018152602001603160f81b8152506040518060400160405280600981526020016823a7ab102a37b5b2b760b91b8152506040518060400160405280600381526020016223a7ab60e91b8152508160039081620000c1919062000a8c565b506004620000d0828262000a8c565b50620000e291508390506005620001ee565b61012052620000f3816006620001ee565b61014052815160208084019190912060e052815190820120610100524660a0526200018160e05161010051604080517f8b73c3c69bb8fe3d512ecc4cf759cc79239f7b179b0ffacaa9a75d522b39400f60208201529081019290925260608201524660808201523060a082015260009060c00160405160208183030381529060405280519060200120905090565b60805250503060c05250600d805460ff19169055620001a260008362000227565b620001ce7f65d7a28e3265b37a6474929f336521b332c1681b933f6cb9f3376673440d862a8362000227565b620001e6816b033b2e3c9fd0803ce8000000620002cc565b505062000c10565b60006020835110156200020e576200020683620002d8565b905062000221565b816200021b848262000a8c565b5060ff90505b92915050565b6000828152600c602090815260408083206001600160a01b038516845290915290205460ff16620002c8576000828152600c602090815260408083206001600160a01b03851684529091529020805460ff19166001179055620002873390565b6001600160a01b0316816001600160a01b0316837f2f8788117e7eff1d82e926ec794901d17c78024a50270940304540a733656f0d60405160405180910390a45b5050565b620002c8828262000324565b600080829050601f815111156200030f578260405163305a27a960e01b815260040162000306919062000b58565b60405180910390fd5b80516200031c8262000ba9565b179392505050565b620003308282620003cc565b6001600160e01b0362000344620004a78216565b1115620003ad5760405162461bcd60e51b815260206004820152603060248201527f4552433230566f7465733a20746f74616c20737570706c79207269736b73206f60448201526f766572666c6f77696e6720766f74657360801b606482015260840162000306565b620003c6600b62000ed2620004ad60201b1783620004c2565b50505050565b6001600160a01b038216620004245760405162461bcd60e51b815260206004820152601f60248201527f45524332303a206d696e7420746f20746865207a65726f206164647265737300604482015260640162000306565b62000432600083836200064a565b806002600082825462000446919062000be4565b90915550506001600160a01b038216600081815260208181526040808320805486019055518481527fddf252ad1be2c89b69c2b068fc378daa952ba7f163c4a11628f55a4df523b3ef910160405180910390a3620002c8600083836200066c565b60025490565b6000620004bb828462000be4565b9392505050565b82546000908190818115620005115760008781526020902082016000190160408051808201909152905463ffffffff8116825264010000000090046001600160e01b0316602082015262000526565b60408051808201909152600080825260208201525b905080602001516001600160e01b031693506200054484868860201c565b92506000821180156200057157506200055c62000679565b65ffffffffffff16816000015163ffffffff16145b15620005ba5762000582836200068b565b60008881526020902083016000190180546001600160e01b03929092166401000000000263ffffffff90921691909117905562000640565b866040518060400160405280620005e8620005da6200067960201b60201c565b65ffffffffffff16620006fa565b63ffffffff168152602001620005fe866200068b565b6001600160e01b0390811690915282546001810184556000938452602093849020835194909301519091166401000000000263ffffffff909316929092179101555b5050935093915050565b6200065462000761565b620006678383836001600160e01b038416565b505050565b62000667838383620007ab565b60006200068643620007df565b905090565b60006001600160e01b03821115620006f65760405162461bcd60e51b815260206004820152602760248201527f53616665436173743a2076616c756520646f65736e27742066697420696e20326044820152663234206269747360c81b606482015260840162000306565b5090565b600063ffffffff821115620006f65760405162461bcd60e51b815260206004820152602660248201527f53616665436173743a2076616c756520646f65736e27742066697420696e203360448201526532206269747360d01b606482015260840162000306565b600d5460ff1615620007a95760405162461bcd60e51b815260206004820152601060248201526f14185d5cd8589b194e881c185d5cd95960821b604482015260640162000306565b565b6001600160a01b03838116600090815260096020526040808220548584168352912054620006679291821691168362000848565b600065ffffffffffff821115620006f65760405162461bcd60e51b815260206004820152602660248201527f53616665436173743a2076616c756520646f65736e27742066697420696e203460448201526538206269747360d01b606482015260840162000306565b816001600160a01b0316836001600160a01b0316141580156200086b5750600081115b1562000667576001600160a01b03831615620008f8576001600160a01b0383166000908152600a6020908152604082208291620008b5919062000983901b62000ede1785620004c2565b91509150846001600160a01b0316600080516020620033d58339815191528383604051620008ed929190918252602082015260400190565b60405180910390a250505b6001600160a01b0382161562000667576001600160a01b0382166000908152600a60209081526040822082916200093c9190620004ad901b62000ed21785620004c2565b91509150836001600160a01b0316600080516020620033d5833981519152838360405162000974929190918252602082015260400190565b60405180910390a25050505050565b6000620004bb828462000bfa565b80516001600160a01b0381168114620009a957600080fd5b919050565b60008060408385031215620009c257600080fd5b620009cd8362000991565b9150620009dd6020840162000991565b90509250929050565b634e487b7160e01b600052604160045260246000fd5b600181811c9082168062000a1157607f821691505b60208210810362000a3257634e487b7160e01b600052602260045260246000fd5b50919050565b601f82111562000667576000816000526020600020601f850160051c8101602086101562000a635750805b601f850160051c820191505b8181101562000a845782815560010162000a6f565b505050505050565b81516001600160401b0381111562000aa85762000aa8620009e6565b62000ac08162000ab98454620009fc565b8462000a38565b602080601f83116001811462000af8576000841562000adf5750858301515b600019600386901b1c1916600185901b17855562000a84565b600085815260208120601f198616915b8281101562000b295788860151825594840194600190910190840162000b08565b508582101562000b485787850151600019600388901b60f8161c191681555b5050505050600190811b01905550565b60006020808352835180602085015260005b8181101562000b885785810183015185820160400152820162000b6a565b506000604082860101526040601f19601f8301168501019250505092915050565b8051602080830151919081101562000a325760001960209190910360031b1b16919050565b634e487b7160e01b600052601160045260246000fd5b8082018082111562000221576200022162000bce565b8181038181111562000221576200022162000bce565b60805160a05160c05160e05161010051610120516101405161276a62000c6b600039600061095d01526000610932015260006113a70152600061137f015260006112da015260006113040152600061132e015261276a6000f3fe608060405234801561001057600080fd5b50600436106102275760003560e01c806370a08231116101305780639ab24eb0116100b8578063d505accf1161007c578063d505accf146104d6578063d547741f146104e9578063dd62ed3e146104fc578063e63ab1e91461050f578063f1127ed81461053657600080fd5b80639ab24eb014610482578063a217fddf14610495578063a457c2d71461049d578063a9059cbb146104b0578063c3cda520146104c357600080fd5b80638e539e8c116100ff5780638e539e8c14610422578063902d55a51461043557806391d148541461044857806391ddadf41461045b57806395d89b411461047a57600080fd5b806370a08231146103c35780637ecebe00146103ec5780638456cb59146103ff57806384b0196e1461040757600080fd5b806336568abe116101b35780634bf5d7e9116101825780634bf5d7e914610331578063587cde1e146103395780635c19a95c1461037d5780635c975abb146103905780636fcfff451461039b57600080fd5b806336568abe146102f057806339509351146103035780633a46b1a8146103165780633f4ba83a1461032957600080fd5b806323b872dd116101fa57806323b872dd1461028e578063248a9ca3146102a15780632f2ff15d146102c4578063313ce567146102d95780633644e515146102e857600080fd5b806301ffc9a71461022c57806306fdde0314610254578063095ea7b31461026957806318160ddd1461027c575b600080fd5b61023f61023a366004612262565b610573565b60405190151581526020015b60405180910390f35b61025c6105aa565b60405161024b91906122dc565b61023f61027736600461230b565b61063c565b6002545b60405190815260200161024b565b61023f61029c366004612335565b610654565b6102806102af366004612371565b6000908152600c602052604090206001015490565b6102d76102d236600461238a565b610678565b005b6040516012815260200161024b565b6102806106a2565b6102d76102fe36600461238a565b6106b1565b61023f61031136600461230b565b610734565b61028061032436600461230b565b610756565b6102d76107db565b61025c610810565b6103656103473660046123b6565b6001600160a01b039081166000908152600960205260409020541690565b6040516001600160a01b03909116815260200161024b565b6102d761038b3660046123b6565b6108a8565b600d5460ff1661023f565b6103ae6103a93660046123b6565b6108b2565b60405163ffffffff909116815260200161024b565b6102806103d13660046123b6565b6001600160a01b031660009081526020819052604090205490565b6102806103fa3660046123b6565b6108d4565b6102d76108f2565b61040f610924565b60405161024b97969594939291906123d1565b610280610430366004612371565b6109ad565b6102806b033b2e3c9fd0803ce800000081565b61023f61045636600461238a565b610a14565b610463610a3f565b60405165ffffffffffff909116815260200161024b565b61025c610a4a565b6102806104903660046123b6565b610a59565b610280600081565b61023f6104ab36600461230b565b610adb565b61023f6104be36600461230b565b610b56565b6102d76104d136600461247b565b610b64565b6102d76104e43660046124d3565b610c9a565b6102d76104f736600461238a565b610dfe565b61028061050a36600461253d565b610e23565b6102807f65d7a28e3265b37a6474929f336521b332c1681b933f6cb9f3376673440d862a81565b610549610544366004612567565b610e4e565b60408051825163ffffffff1681526020928301516001600160e01b0316928101929092520161024b565b60006001600160e01b03198216637965db0b60e01b14806105a457506301ffc9a760e01b6001600160e01b03198316145b92915050565b6060600380546105b9906125a7565b80601f01602080910402602001604051908101604052809291908181526020018280546105e5906125a7565b80156106325780601f1061060757610100808354040283529160200191610632565b820191906000526020600020905b81548152906001019060200180831161061557829003601f168201915b5050505050905090565b60003361064a818585610eea565b5060019392505050565b60003361066285828561100e565b61066d858585611088565b506001949350505050565b6000828152600c60205260409020600101546106938161123d565b61069d8383611247565b505050565b60006106ac6112cd565b905090565b6001600160a01b03811633146107265760405162461bcd60e51b815260206004820152602f60248201527f416363657373436f6e74726f6c3a2063616e206f6e6c792072656e6f756e636560448201526e103937b632b9903337b91039b2b63360891b60648201526084015b60405180910390fd5b61073082826113f8565b5050565b60003361064a8185856107478383610e23565b61075191906125f1565b610eea565b6000610760610a3f565b65ffffffffffff1682106107b25760405162461bcd60e51b815260206004820152601960248201527804552433230566f7465733a20667574757265206c6f6f6b757603c1b604482015260640161071d565b6001600160a01b0383166000908152600a602052604090206107d4908361145f565b9392505050565b7f65d7a28e3265b37a6474929f336521b332c1681b933f6cb9f3376673440d862a6108058161123d565b61080d611548565b50565b60604361081b610a3f565b65ffffffffffff16146108705760405162461bcd60e51b815260206004820152601d60248201527f4552433230566f7465733a2062726f6b656e20636c6f636b206d6f6465000000604482015260640161071d565b5060408051808201909152601d81527f6d6f64653d626c6f636b6e756d6265722666726f6d3d64656661756c74000000602082015290565b61080d338261159a565b6001600160a01b0381166000908152600a60205260408120546105a490611613565b6001600160a01b0381166000908152600760205260408120546105a4565b7f65d7a28e3265b37a6474929f336521b332c1681b933f6cb9f3376673440d862a61091c8161123d565b61080d61167c565b6000606080828080836109587f000000000000000000000000000000000000000000000000000000000000000060056116b9565b6109837f000000000000000000000000000000000000000000000000000000000000000060066116b9565b60408051600080825260208201909252600f60f81b9b939a50919850469750309650945092509050565b60006109b7610a3f565b65ffffffffffff168210610a095760405162461bcd60e51b815260206004820152601960248201527804552433230566f7465733a20667574757265206c6f6f6b757603c1b604482015260640161071d565b6105a4600b8361145f565b6000918252600c602090815260408084206001600160a01b0393909316845291905290205460ff1690565b60006106ac43611764565b6060600480546105b9906125a7565b6001600160a01b0381166000908152600a60205260408120548015610ac8576001600160a01b0383166000908152600a6020526040902080546000198301908110610aa657610aa661261a565b60009182526020909120015464010000000090046001600160e01b0316610acb565b60005b6001600160e01b03169392505050565b60003381610ae98286610e23565b905083811015610b495760405162461bcd60e51b815260206004820152602560248201527f45524332303a2064656372656173656420616c6c6f77616e63652062656c6f77604482015264207a65726f60d81b606482015260840161071d565b61066d8286868403610eea565b60003361064a818585611088565b83421115610bb45760405162461bcd60e51b815260206004820152601d60248201527f4552433230566f7465733a207369676e61747572652065787069726564000000604482015260640161071d565b604080517fe48329057bfd03d55e49b547132e39cffd9c1820ad7b9d4c5307691425d15adf60208201526001600160a01b038816918101919091526060810186905260808101859052600090610c2e90610c269060a001604051602081830303815290604052805190602001206117cb565b8585856117f8565b9050610c3981611820565b8614610c875760405162461bcd60e51b815260206004820152601960248201527f4552433230566f7465733a20696e76616c6964206e6f6e636500000000000000604482015260640161071d565b610c91818861159a565b50505050505050565b83421115610cea5760405162461bcd60e51b815260206004820152601d60248201527f45524332305065726d69743a206578706972656420646561646c696e65000000604482015260640161071d565b60007f6e71edae12b1b97f4d1f60370fef10105fa2faae0126114a169c64845d6126c9888888610d198c611820565b6040805160208101969096526001600160a01b0394851690860152929091166060840152608083015260a082015260c0810186905260e0016040516020818303038152906040528051906020012090506000610d74826117cb565b90506000610d84828787876117f8565b9050896001600160a01b0316816001600160a01b031614610de75760405162461bcd60e51b815260206004820152601e60248201527f45524332305065726d69743a20696e76616c6964207369676e61747572650000604482015260640161071d565b610df28a8a8a610eea565b50505050505050505050565b6000828152600c6020526040902060010154610e198161123d565b61069d83836113f8565b6001600160a01b03918216600090815260016020908152604080832093909416825291909152205490565b60408051808201909152600080825260208201526001600160a01b0383166000908152600a60205260409020805463ffffffff8416908110610e9257610e9261261a565b60009182526020918290206040805180820190915291015463ffffffff8116825264010000000090046001600160e01b0316918101919091529392505050565b60006107d482846125f1565b60006107d48284612630565b6001600160a01b038316610f4c5760405162461bcd60e51b8152602060048201526024808201527f45524332303a20617070726f76652066726f6d20746865207a65726f206164646044820152637265737360e01b606482015260840161071d565b6001600160a01b038216610fad5760405162461bcd60e51b815260206004820152602260248201527f45524332303a20617070726f766520746f20746865207a65726f206164647265604482015261737360f01b606482015260840161071d565b6001600160a01b0383811660008181526001602090815260408083209487168084529482529182902085905590518481527f8c5be1e5ebec7d5bd14f71427d1e84f3dd0314c0f7b2291e5b200ac8c7c3b925910160405180910390a3505050565b600061101a8484610e23565b9050600019811461108257818110156110755760405162461bcd60e51b815260206004820152601d60248201527f45524332303a20696e73756666696369656e7420616c6c6f77616e6365000000604482015260640161071d565b6110828484848403610eea565b50505050565b6001600160a01b0383166110ec5760405162461bcd60e51b815260206004820152602560248201527f45524332303a207472616e736665722066726f6d20746865207a65726f206164604482015264647265737360d81b606482015260840161071d565b6001600160a01b03821661114e5760405162461bcd60e51b815260206004820152602360248201527f45524332303a207472616e7366657220746f20746865207a65726f206164647260448201526265737360e81b606482015260840161071d565b611159838383611848565b6001600160a01b038316600090815260208190526040902054818110156111d15760405162461bcd60e51b815260206004820152602660248201527f45524332303a207472616e7366657220616d6f756e7420657863656564732062604482015265616c616e636560d01b606482015260840161071d565b6001600160a01b03848116600081815260208181526040808320878703905593871680835291849020805487019055925185815290927fddf252ad1be2c89b69c2b068fc378daa952ba7f163c4a11628f55a4df523b3ef910160405180910390a3611082848484611850565b61080d813361185b565b6112518282610a14565b610730576000828152600c602090815260408083206001600160a01b03851684529091529020805460ff191660011790556112893390565b6001600160a01b0316816001600160a01b0316837f2f8788117e7eff1d82e926ec794901d17c78024a50270940304540a733656f0d60405160405180910390a45050565b6000306001600160a01b037f00000000000000000000000000000000000000000000000000000000000000001614801561132657507f000000000000000000000000000000000000000000000000000000000000000046145b1561135057507f000000000000000000000000000000000000000000000000000000000000000090565b6106ac604080517f8b73c3c69bb8fe3d512ecc4cf759cc79239f7b179b0ffacaa9a75d522b39400f60208201527f0000000000000000000000000000000000000000000000000000000000000000918101919091527f000000000000000000000000000000000000000000000000000000000000000060608201524660808201523060a082015260009060c00160405160208183030381529060405280519060200120905090565b6114028282610a14565b15610730576000828152600c602090815260408083206001600160a01b0385168085529252808320805460ff1916905551339285917ff6391f5c32d9c69d2a47ea670b442974b53935d1edc7fd64eb21e047a839171b9190a45050565b8154600090818160058111156114b957600061147a846118b4565b6114849085612630565b600088815260209020909150869082015463ffffffff1611156114a9578091506114b7565b6114b48160016125f1565b92505b505b808210156115065760006114cd838361199c565b600088815260209020909150869082015463ffffffff1611156114f257809150611500565b6114fd8160016125f1565b92505b506114b9565b8015611532576000868152602090208101600019015464010000000090046001600160e01b0316611535565b60005b6001600160e01b03169695505050505050565b6115506119b7565b600d805460ff191690557f5db9ee0a495bf2e6ff9c91a7834c1ba4fdd244a5e8aa4e537bd38aeae4b073aa335b6040516001600160a01b03909116815260200160405180910390a1565b6001600160a01b038281166000818152600960208181526040808420805485845282862054949093528787166001600160a01b03198416811790915590519190951694919391928592917f3134e8a2e6d97e929a7e54011ea5485d7d196dd5f0ba4d4ef95803e8e3fc257f9190a4611082828483611a02565b600063ffffffff8211156116785760405162461bcd60e51b815260206004820152602660248201527f53616665436173743a2076616c756520646f65736e27742066697420696e203360448201526532206269747360d01b606482015260840161071d565b5090565b611684611b3f565b600d805460ff191660011790557f62e78cea01bee320cd4e420270b5ea74000d11b0c9f74754ebdbfc544b05a25861157d3390565b606060ff83146116d3576116cc83611b85565b90506105a4565b8180546116df906125a7565b80601f016020809104026020016040519081016040528092919081815260200182805461170b906125a7565b80156117585780601f1061172d57610100808354040283529160200191611758565b820191906000526020600020905b81548152906001019060200180831161173b57829003601f168201915b505050505090506105a4565b600065ffffffffffff8211156116785760405162461bcd60e51b815260206004820152602660248201527f53616665436173743a2076616c756520646f65736e27742066697420696e203460448201526538206269747360d01b606482015260840161071d565b60006105a46117d86112cd565b8360405161190160f01b8152600281019290925260228201526042902090565b600080600061180987878787611bc4565b9150915061181681611c88565b5095945050505050565b6001600160a01b03811660009081526007602052604090208054600181018255905b50919050565b61069d611b3f565b61069d838383611dd2565b6118658282610a14565b6107305761187281611e04565b61187d836020611e16565b60405160200161188e929190612643565b60408051601f198184030181529082905262461bcd60e51b825261071d916004016122dc565b6000816000036118c657506000919050565b600060016118d384611fb2565b901c6001901b905060018184816118ec576118ec6126b8565b048201901c90506001818481611904576119046126b8565b048201901c9050600181848161191c5761191c6126b8565b048201901c90506001818481611934576119346126b8565b048201901c9050600181848161194c5761194c6126b8565b048201901c90506001818481611964576119646126b8565b048201901c9050600181848161197c5761197c6126b8565b048201901c90506107d481828581611996576119966126b8565b04612046565b60006119ab60028484186126ce565b6107d4908484166125f1565b600d5460ff16611a005760405162461bcd60e51b815260206004820152601460248201527314185d5cd8589b194e881b9bdd081c185d5cd95960621b604482015260640161071d565b565b816001600160a01b0316836001600160a01b031614158015611a245750600081115b1561069d576001600160a01b03831615611ab2576001600160a01b0383166000908152600a602052604081208190611a5f90610ede8561205c565b91509150846001600160a01b03167fdec2bacdd2f05b59de34da9b523dff8be42e5e38e818c82fdb0bae774387a7248383604051611aa7929190918252602082015260400190565b60405180910390a250505b6001600160a01b0382161561069d576001600160a01b0382166000908152600a602052604081208190611ae890610ed28561205c565b91509150836001600160a01b03167fdec2bacdd2f05b59de34da9b523dff8be42e5e38e818c82fdb0bae774387a7248383604051611b30929190918252602082015260400190565b60405180910390a25050505050565b600d5460ff1615611a005760405162461bcd60e51b815260206004820152601060248201526f14185d5cd8589b194e881c185d5cd95960821b604482015260640161071d565b60606000611b92836121d1565b604080516020808252818301909252919250600091906020820181803683375050509182525060208101929092525090565b6000807f7fffffffffffffffffffffffffffffff5d576e7357a4501ddfe92f46681b20a0831115611bfb5750600090506003611c7f565b6040805160008082526020820180845289905260ff881692820192909252606081018690526080810185905260019060a0016020604051602081039080840390855afa158015611c4f573d6000803e3d6000fd5b5050604051601f1901519150506001600160a01b038116611c7857600060019250925050611c7f565b9150600090505b94509492505050565b6000816004811115611c9c57611c9c6126f0565b03611ca45750565b6001816004811115611cb857611cb86126f0565b03611d055760405162461bcd60e51b815260206004820152601860248201527f45434453413a20696e76616c6964207369676e61747572650000000000000000604482015260640161071d565b6002816004811115611d1957611d196126f0565b03611d665760405162461bcd60e51b815260206004820152601f60248201527f45434453413a20696e76616c6964207369676e6174757265206c656e67746800604482015260640161071d565b6003816004811115611d7a57611d7a6126f0565b0361080d5760405162461bcd60e51b815260206004820152602260248201527f45434453413a20696e76616c6964207369676e6174757265202773272076616c604482015261756560f01b606482015260840161071d565b6001600160a01b0383811660009081526009602052604080822054858416835291205461069d92918216911683611a02565b60606105a46001600160a01b03831660145b60606000611e25836002612706565b611e309060026125f1565b67ffffffffffffffff811115611e4857611e48612604565b6040519080825280601f01601f191660200182016040528015611e72576020820181803683370190505b509050600360fc1b81600081518110611e8d57611e8d61261a565b60200101906001600160f81b031916908160001a905350600f60fb1b81600181518110611ebc57611ebc61261a565b60200101906001600160f81b031916908160001a9053506000611ee0846002612706565b611eeb9060016125f1565b90505b6001811115611f63576f181899199a1a9b1b9c1cb0b131b232b360811b85600f1660108110611f1f57611f1f61261a565b1a60f81b828281518110611f3557611f3561261a565b60200101906001600160f81b031916908160001a90535060049490941c93611f5c8161271d565b9050611eee565b5083156107d45760405162461bcd60e51b815260206004820181905260248201527f537472696e67733a20686578206c656e67746820696e73756666696369656e74604482015260640161071d565b600080608083901c15611fc757608092831c92015b604083901c15611fd957604092831c92015b602083901c15611feb57602092831c92015b601083901c15611ffd57601092831c92015b600883901c1561200f57600892831c92015b600483901c1561202157600492831c92015b600283901c1561203357600292831c92015b600183901c156105a45760010192915050565b600081831061205557816107d4565b5090919050565b825460009081908181156120a95760008781526020902082016000190160408051808201909152905463ffffffff8116825264010000000090046001600160e01b031660208201526120be565b60408051808201909152600080825260208201525b905080602001516001600160e01b031693506120de84868863ffffffff16565b925060008211801561210857506120f3610a3f565b65ffffffffffff16816000015163ffffffff16145b1561214d57612116836121f9565b60008881526020902083016000190180546001600160e01b03929092166401000000000263ffffffff9092169190911790556121c7565b866040518060400160405280612171612164610a3f565b65ffffffffffff16611613565b63ffffffff168152602001612185866121f9565b6001600160e01b0390811690915282546001810184556000938452602093849020835194909301519091166401000000000263ffffffff909316929092179101555b5050935093915050565b600060ff8216601f8111156105a457604051632cd44ac360e21b815260040160405180910390fd5b60006001600160e01b038211156116785760405162461bcd60e51b815260206004820152602760248201527f53616665436173743a2076616c756520646f65736e27742066697420696e20326044820152663234206269747360c81b606482015260840161071d565b60006020828403121561227457600080fd5b81356001600160e01b0319811681146107d457600080fd5b60005b838110156122a757818101518382015260200161228f565b50506000910152565b600081518084526122c881602086016020860161228c565b601f01601f19169290920160200192915050565b6020815260006107d460208301846122b0565b80356001600160a01b038116811461230657600080fd5b919050565b6000806040838503121561231e57600080fd5b612327836122ef565b946020939093013593505050565b60008060006060848603121561234a57600080fd5b612353846122ef565b9250612361602085016122ef565b9150604084013590509250925092565b60006020828403121561238357600080fd5b5035919050565b6000806040838503121561239d57600080fd5b823591506123ad602084016122ef565b90509250929050565b6000602082840312156123c857600080fd5b6107d4826122ef565b60ff60f81b881681526000602060e060208401526123f260e084018a6122b0565b8381036040850152612404818a6122b0565b606085018990526001600160a01b038816608086015260a0850187905284810360c08601528551808252602080880193509091019060005b818110156124585783518352928401929184019160010161243c565b50909c9b505050505050505050505050565b803560ff8116811461230657600080fd5b60008060008060008060c0878903121561249457600080fd5b61249d876122ef565b955060208701359450604087013593506124b96060880161246a565b92506080870135915060a087013590509295509295509295565b600080600080600080600060e0888a0312156124ee57600080fd5b6124f7886122ef565b9650612505602089016122ef565b955060408801359450606088013593506125216080890161246a565b925060a0880135915060c0880135905092959891949750929550565b6000806040838503121561255057600080fd5b612559836122ef565b91506123ad602084016122ef565b6000806040838503121561257a57600080fd5b612583836122ef565b9150602083013563ffffffff8116811461259c57600080fd5b809150509250929050565b600181811c908216806125bb57607f821691505b60208210810361184257634e487b7160e01b600052602260045260246000fd5b634e487b7160e01b600052601160045260246000fd5b808201808211156105a4576105a46125db565b634e487b7160e01b600052604160045260246000fd5b634e487b7160e01b600052603260045260246000fd5b818103818111156105a4576105a46125db565b7f416363657373436f6e74726f6c3a206163636f756e742000000000000000000081526000835161267b81601785016020880161228c565b7001034b99036b4b9b9b4b733903937b6329607d1b60179184019182015283516126ac81602884016020880161228c565b01602801949350505050565b634e487b7160e01b600052601260045260246000fd5b6000826126eb57634e487b7160e01b600052601260045260246000fd5b500490565b634e487b7160e01b600052602160045260246000fd5b80820281158282048414176105a4576105a46125db565b60008161272c5761272c6125db565b50600019019056fea2646970667358221220661909899be65b6722b07f8ddcd9adb0586bf3c03f785c02ed0f249df8c459e264736f6c63430008180033dec2bacdd2f05b59de34da9b523dff8be42e5e38e818c82fdb0bae774387a724",
  "linkReferences": {},
  "deployedLinkReferences": {}
}