{
  "_format": "hh-sol-artifact-1",
  "contractName": "OptimisticChallenge",
  "sourceName": "contracts/verification/OptimisticChallenge.sol",
  "abi": [
    {
      "inputs": [
        {
          "internalType": "address",
          "name": "workToken_",
          "type": "address"
        },
        {
          "internalType": "address",
          "name": "taskMarket_",
          "type": "address"
        },
        {
          "internalType": "address",
          "name": "didRegistry_",
          "type": "address"
        },
        {
          "internalType": "address",
          "name": "admin",
          "type": "address"
        }
      ],
      "stateMutability": "nonpayable",
      "type": "constructor"
    },
    {
      "anonymous": false,
      "inputs": [
        {
          "indexed": true,
          "internalType": "uint256",
          "name": "challengeId",
          "type": "uint256"
        },
        {
          "indexed": true,
          "internalType": "uint256",
          "name": "taskId",
          "type": "uint256"
        }
      ],
      "name": "ChallengExpired",
      "type": "event"
    },
    {
      "anonymous": false,
      "inputs": [
        {
          "indexed": true,
          "internalType": "uint256",
          "name": "challengeId",
          "type": "uint256"
        },
        {
          "indexed": true,
          "internalType": "uint256",
          "name": "taskId",
          "type": "uint256"
        },
        {
          "indexed": false,
          "internalType": "address",
          "name": "challenger",
          "type": "address"
        }
      ],
      "name": "ChallengeOpened",
      "type": "event"
    },
    {
      "anonymous": false,
      "inputs": [
        {
          "indexed": true,
          "internalType": "uint256",
          "name": "challengeId",
          "type": "uint256"
        },
        {
          "indexed": false,
          "internalType": "bool",
          "name": "challengerWon",
          "type": "bool"
        },
        {
          "indexed": false,
          "internalType": "address",
          "name": "arbitrator",
          "type": "address"
        }
      ],
      "name": "ChallengeResolved",
      "type": "event"
    },
    {
      "anonymous": false,
      "inputs": [
        {
          "indexed": true,
          "internalType": "bytes32",
          "name": "role",
          "type": "bytes32"
        },
        {
          "indexed": true,
          "internalType": "bytes32",
          "name": "previousAdminRole",
          "type": "bytes32"
        },
        {
          "indexed": true,
          "internalType": "bytes32",
          "name": "newAdminRole",
          "type": "bytes32"
        }
      ],
      "name": "RoleAdminChanged",
      "type": "event"
    },
    {
      "anonymous": false,
      "inputs": [
        {
          "indexed": true,
          "internalType": "bytes32",
          "name": "role",
          "type": "bytes32"
        },
        {
          "indexed": true,
          "internalType": "address",
          "name": "account",
          "type": "address"
        },
        {
          "indexed": true,
          "internalType": "address",
          "name": "sender",
          "type": "address"
        }
      ],
      "name": "RoleGranted",
      "type": "event"
    },
    {
      "anonymous": false,
      "inputs": [
        {
          "indexed": true,
          "internalType": "bytes32",
          "name": "role",
          "type": "bytes32"
        },
        {
          "indexed": true,
          "internalType": "address",
          "name": "account",
          "type": "address"
        },
        {
          "indexed": true,
          "internalType": "address",
          "name": "sender",
          "type": "address"
        }
      ],
      "name": "RoleRevoked",
      "type": "event"
    },
    {
      "inputs": [],
      "name": "ARBITRATOR_ROLE",
      "outputs": [
        {
          "internalType": "bytes32",
          "name": "",
          "type": "bytes32"
        }
      ],
      "stateMutability": "view",
      "type": "function"
    },
    {
      "inputs": [],
      "name": "CHALLENGER_STAKE",
      "outputs": [
        {
          "internalType": "uint256",
          "name": "",
          "type": "uint256"
        }
      ],
      "stateMutability": "view",
      "type": "function"
    },
    {
      "inputs": [],
      "name": "CHALLENGE_PERIOD",
      "outputs": [
        {
          "internalType": "uint256",
          "name": "",
          "type": "uint256"
        }
      ],
      "stateMutability": "view",
      "type": "function"
    },
    {
      "inputs": [],
      "name": "DEFAULT_ADMIN_ROLE",
      "outputs": [
        {
          "internalType": "bytes32",
          "name": "",
          "type": "bytes32"
        }
      ],
      "stateMutability": "view",
      "type": "function"
    },
    {
      "inputs": [],
      "name": "SLASH_MALICIOUS_BPS",
      "outputs": [
        {
          "internalType": "uint256",
          "name": "",
          "type": "uint256"
        }
      ],
      "stateMutability": "view",
      "type": "function"
    },
    {
      "inputs": [],
      "name": "SLASH_NEGLIGENT_BPS",
      "outputs": [
        {
          "internalType": "uint256",
          "name": "",
          "type": "uint256"
        }
      ],
      "stateMutability": "view",
      "type": "function"
    },
    {
      "inputs": [
        {
          "internalType": "address",
          "name": "arbitrator",
          "type": "address"
        }
      ],
      "name": "addArbitrator",
      "outputs": [],
      "stateMutability": "nonpayable",
      "type": "function"
    },
    {
      "inputs": [],
      "name": "challengeCount",
      "outputs": [
        {
          "internalType": "uint256",
          "name": "",
          "type": "uint256"
        }
      ],
      "stateMutability": "view",
      "type": "function"
    },
    {
      "inputs": [
        {
          "internalType": "uint256",
          "name": "",
          "type": "uint256"
        }
      ],
      "name": "challenges",
      "outputs": [
        {
          "internalType": "uint256",
          "name": "taskId",
          "type": "uint256"
        },
        {
          "internalType": "address",
          "name": "challenger",
          "type": "address"
        },
        {
          "internalType": "uint256",
          "name": "challengerStake",
          "type": "uint256"
        },
        {
          "internalType": "uint256",
          "name": "openedAt",
          "type": "uint256"
        },
        {
          "internalType": "bool",
          "name": "resolved",
          "type": "bool"
        },
        {
          "internalType": "bool",
          "name": "challengerWon",
          "type": "bool"
        },
        {
          "internalType": "string",
          "name": "evidenceHash",
          "type": "string"
        }
      ],
      "stateMutability": "view",
      "type": "function"
    },
    {
      "inputs": [],
      "name": "didRegistry",
      "outputs": [
        {
          "internalType": "contract DIDRegistry",
          "name": "",
          "type": "address"
        }
      ],
      "stateMutability": "view",
      "type": "function"
    },
    {
      "inputs": [
        {
          "internalType": "uint256",
          "name": "challengeId",
          "type": "uint256"
        }
      ],
      "name": "expireChallenge",
      "outputs": [],
      "stateMutability": "nonpayable",
      "type": "function"
    },
    {
      "inputs": [
        {
          "internalType": "bytes32",
          "name": "role",
          "type": "bytes32"
        }
      ],
      "name": "getRoleAdmin",
      "outputs": [
        {
          "internalType": "bytes32",
          "name": "",
          "type": "bytes32"
        }
      ],
      "stateMutability": "view",
      "type": "function"
    },
    {
      "inputs": [
        {
          "internalType": "bytes32",
          "name": "role",
          "type": "bytes32"
        },
        {
          "internalType": "address",
          "name": "account",
          "type": "address"
        }
      ],
      "name": "grantRole",
      "outputs": [],
      "stateMutability": "nonpayable",
      "type": "function"
    },
    {
      "inputs": [
        {
          "internalType": "bytes32",
          "name": "role",
          "type": "bytes32"
        },
        {
          "internalType": "address",
          "name": "account",
          "type": "address"
        }
      ],
      "name": "hasRole",
      "outputs": [
        {
          "internalType": "bool",
          "name": "",
          "type": "bool"
        }
      ],
      "stateMutability": "view",
      "type": "function"
    },
    {
      "inputs": [
        {
          "internalType": "uint256",
          "name": "taskId",
          "type": "uint256"
        },
        {
          "internalType": "string",
          "name": "evidenceHash",
          "type": "string"
        }
      ],
      "name": "openChallenge",
      "outputs": [
        {
          "internalType": "uint256",
          "name": "challengeId",
          "type": "uint256"
        }
      ],
      "stateMutability": "nonpayable",
      "type": "function"
    },
    {
      "inputs": [
        {
          "internalType": "bytes32",
          "name": "role",
          "type": "bytes32"
        },
        {
          "internalType": "address",
          "name": "account",
          "type": "address"
        }
      ],
      "name": "renounceRole",
      "outputs": [],
      "stateMutability": "nonpayable",
      "type": "function"
    },
    {
      "inputs": [
        {
          "internalType": "uint256",
          "name": "challengeId",
          "type": "uint256"
        },
        {
          "internalType": "bool",
          "name": "challengerWon",
          "type": "bool"
        },
        {
          "internalType": "bool",
          "name": "",
          "type": "bool"
        }
      ],
      "name": "resolveChallenge",
      "outputs": [],
      "stateMutability": "nonpayable",
      "type": "function"
    },
    {
      "inputs": [
        {
          "internalType": "bytes32",
          "name": "role",
          "type": "bytes32"
        },
        {
          "internalType": "address",
          "name": "account",
          "type": "address"
        }
      ],
      "name": "revokeRole",
      "outputs": [],
      "stateMutability": "nonpayable",
      "type": "function"
    },
    {
      "inputs": [
        {
          "internalType": "bytes4",
          "name": "interfaceId",
          "type": "bytes4"
        }
      ],
      "name": "supportsInterface",
      "outputs": [
        {
          "internalType": "bool",
          "name": "",
          "type": "bool"
        }
      ],
      "stateMutability": "view",
      "type": "function"
    },
    {
      "inputs": [],
      "name": "taskMarket",
      "outputs": [
        {
          "internalType": "contract TaskMarket",
          "name": "",
          "type": "address"
        }
      ],
      "stateMutability": "view",
      "type": "function"
    },
    {
      "inputs": [],
      "name": "workToken",
      "outputs": [
        {
          "internalType": "contract WorkToken",
          "name": "",
          "type": "address"
        }
      ],
      "stateMutability": "view",
      "type": "function"
    }
  ],
  "bytecode": "0x60e06040523480156200001157600080fd5b50604051620019ac380380620019ac833981016040819052620000349162000152565b600180556001600160a01b0380851660805283811660a052821660c0526200005e60008262000094565b6200008a7f16ceee8289685dd2a02b9c8ae81d2df373176ce53519e6284e2a2950d6546ffa8262000094565b50505050620001af565b6000828152602081815260408083206001600160a01b038516845290915290205460ff1662000131576000828152602081815260408083206001600160a01b03851684529091529020805460ff19166001179055620000f03390565b6001600160a01b0316816001600160a01b0316837f2f8788117e7eff1d82e926ec794901d17c78024a50270940304540a733656f0d60405160405180910390a45b5050565b80516001600160a01b03811681146200014d57600080fd5b919050565b600080600080608085870312156200016957600080fd5b620001748562000135565b9350620001846020860162000135565b9250620001946040860162000135565b9150620001a46060860162000135565b905092959194509250565b60805160a05160c05161178762000225600039600081816102240152818161058001528181610cf00152610eb60152600081816102d8015281816109ce01528181610c610152610e240152600081816101d2015281816106570152818161094001528181610bd10152610da201526117876000f3fe608060405234801561001057600080fd5b50600436106101375760003560e01c806391d14854116100b8578063c01aca0d1161007c578063c01aca0d146102d3578063c3a079ed146102fa578063d0192ed214610304578063d547741f14610317578063e538e8a61461032a578063f610cca11461033357600080fd5b806391d14854146102755780639cea078714610288578063a217fddf146102af578063a2f05725146102b7578063b32081cd146102c057600080fd5b8063360e6823116100ff578063360e6823146101cd57806336568abe1461020c578063577f9fb11461021f5780638ef2109c146102465780638f1d37761461024f57600080fd5b806301fabd751461013c57806301ffc9a7146101515780631addb34b14610179578063248a9ca3146101975780632f2ff15d146101ba575b600080fd5b61014f61014a3660046112d0565b610346565b005b61016461015f3660046112eb565b61037f565b60405190151581526020015b60405180910390f35b6101896802b5e3af16b188000081565b604051908152602001610170565b6101896101a5366004611315565b60009081526020819052604090206001015490565b61014f6101c836600461132e565b6103b6565b6101f47f000000000000000000000000000000000000000000000000000000000000000081565b6040516001600160a01b039091168152602001610170565b61014f61021a36600461132e565b6103e0565b6101f47f000000000000000000000000000000000000000000000000000000000000000081565b6101896107d081565b61026261025d366004611315565b61045f565b60405161017097969594939291906113aa565b61016461028336600461132e565b610538565b6101897f16ceee8289685dd2a02b9c8ae81d2df373176ce53519e6284e2a2950d6546ffa81565b610189600081565b61018960035481565b6101896102ce3660046113fa565b610561565b6101f47f000000000000000000000000000000000000000000000000000000000000000081565b61018962093a8081565b61014f610312366004611315565b610840565b61014f61032536600461132e565b610a6e565b61018961138881565b61014f610341366004611484565b610a93565b600061035181610f61565b61037b7f16ceee8289685dd2a02b9c8ae81d2df373176ce53519e6284e2a2950d6546ffa83610f6b565b5050565b60006001600160e01b03198216637965db0b60e01b14806103b057506301ffc9a760e01b6001600160e01b03198316145b92915050565b6000828152602081905260409020600101546103d181610f61565b6103db8383610f6b565b505050565b6001600160a01b03811633146104555760405162461bcd60e51b815260206004820152602f60248201527f416363657373436f6e74726f6c3a2063616e206f6e6c792072656e6f756e636560448201526e103937b632b9903337b91039b2b63360891b60648201526084015b60405180910390fd5b61037b8282610fef565b600260208190526000918252604090912080546001820154928201546003830154600484015460058501805494966001600160a01b0316959394929360ff8084169461010090940416929091906104b5906114c6565b80601f01602080910402602001604051908101604052809291908181526020018280546104e1906114c6565b801561052e5780601f106105035761010080835404028352916020019161052e565b820191906000526020600020905b81548152906001019060200180831161051157829003601f168201915b5050505050905087565b6000918252602082815260408084206001600160a01b0393909316845291905290205460ff1690565b600061056b611054565b604051638b1b925f60e01b81523360048201527f00000000000000000000000000000000000000000000000000000000000000006001600160a01b031690638b1b925f90602401602060405180830381865afa1580156105cf573d6000803e3d6000fd5b505050506040513d601f19601f820116820180604052508101906105f39190611500565b61062d5760405162461bcd60e51b815260206004820152600b60248201526a125b9d985b1a590811125160aa1b604482015260640161044c565b6040516323b872dd60e01b81523360048201523060248201526802b5e3af16b188000060448201527f00000000000000000000000000000000000000000000000000000000000000006001600160a01b0316906323b872dd906064016020604051808303816000875af11580156106a8573d6000803e3d6000fd5b505050506040513d601f19601f820116820180604052508101906106cc9190611500565b506003600081546106dc90611533565b91905081905590506040518060e00160405280858152602001336001600160a01b031681526020016802b5e3af16b1880000815260200142815260200160001515815260200160001515815260200184848080601f01602080910402602001604051908101604052809392919081815260200183838082843760009201829052509390945250508381526002602081815260409283902085518155908501516001820180546001600160a01b039092166001600160a01b0319909216919091179055918401519082015560608301516003820155608083015160048201805460a086015115156101000261ff00199315159390931661ffff199091161791909117905560c083015190915060058201906107f690826115b2565b505060405133815285915082907f3697894ec66a38c058ce9710530679f02ee820632ee202a905c2c307eda4258e9060200160405180910390a361083960018055565b9392505050565b610848611054565b6000818152600260205260409020600481015460ff161561089e5760405162461bcd60e51b815260206004820152601060248201526f105b1c9958591e481c995cdbdb1d995960821b604482015260640161044c565b62093a8081600301546108b19190611672565b42116108ff5760405162461bcd60e51b815260206004820152601960248201527f4368616c6c656e676520706572696f64206e6f74206f76657200000000000000604482015260640161044c565b6004818101805460ff19166001908117909155820154600283015460405163a9059cbb60e01b81526001600160a01b039283169381019390935260248301527f0000000000000000000000000000000000000000000000000000000000000000169063a9059cbb906044016020604051808303816000875af1158015610989573d6000803e3d6000fd5b505050506040513d601f19601f820116820180604052508101906109ad9190611500565b508054604051639230543560e01b81526004810191909152600160248201527f00000000000000000000000000000000000000000000000000000000000000006001600160a01b031690639230543590604401600060405180830381600087803b158015610a1a57600080fd5b505af1158015610a2e573d6000803e3d6000fd5b505082546040519092508491507fb9e57757b57067c302303b3c53d7088f0536ac502e8062563a73f6e04ed33c4090600090a350610a6b60018055565b50565b600082815260208190526040902060010154610a8981610f61565b6103db8383610fef565b7f16ceee8289685dd2a02b9c8ae81d2df373176ce53519e6284e2a2950d6546ffa610abd81610f61565b610ac5611054565b6000848152600260205260409020600481015460ff1615610b1b5760405162461bcd60e51b815260206004820152601060248201526f105b1c9958591e481c995cdbdb1d995960821b604482015260640161044c565b62093a808160030154610b2e9190611672565b421115610b7d5760405162461bcd60e51b815260206004820152601860248201527f4368616c6c656e676520706572696f6420657870697265640000000000000000604482015260640161044c565b600481018054851580156101000261ffff1990921691909117600117909155610d53576001810154600282015460405163a9059cbb60e01b81526001600160a01b03928316600482015260248101919091527f00000000000000000000000000000000000000000000000000000000000000009091169063a9059cbb906044016020604051808303816000875af1158015610c1c573d6000803e3d6000fd5b505050506040513d601f19601f82011682018060405250810190610c409190611500565b508054604051639230543560e01b81526004810191909152600060248201527f00000000000000000000000000000000000000000000000000000000000000006001600160a01b031690639230543590604401600060405180830381600087803b158015610cad57600080fd5b505af1158015610cc1573d6000803e3d6000fd5b505050506001810154604051630979dd3d60e31b81526001600160a01b039182166004820152600260248201527f000000000000000000000000000000000000000000000000000000000000000090911690634bcee9e890604401600060405180830381600087803b158015610d3657600080fd5b505af1158015610d4a573d6000803e3d6000fd5b50505050610f15565b60028101546040516333c59f7160e11b815230600482015260248101919091526060604482015260166064820152754661696c6564206368616c6c656e6765207374616b6560501b60848201527f00000000000000000000000000000000000000000000000000000000000000006001600160a01b03169063678b3ee29060a401600060405180830381600087803b158015610dee57600080fd5b505af1158015610e02573d6000803e3d6000fd5b50508254604051639230543560e01b81526004810191909152600160248201527f00000000000000000000000000000000000000000000000000000000000000006001600160a01b0316925063923054359150604401600060405180830381600087803b158015610e7257600080fd5b505af1158015610e86573d6000803e3d6000fd5b505050506001810154604051630979dd3d60e31b81526001600160a01b03918216600482015260001960248201527f000000000000000000000000000000000000000000000000000000000000000090911690634bcee9e890604401600060405180830381600087803b158015610efc57600080fd5b505af1158015610f10573d6000803e3d6000fd5b505050505b60408051851515815233602082015286917f874fd3e0ba6d81d58b06aa295084dbe040084ea483a51e07e5c551498e515a3c910160405180910390a250610f5b60018055565b50505050565b610a6b81336110ad565b610f758282610538565b61037b576000828152602081815260408083206001600160a01b03851684529091529020805460ff19166001179055610fab3390565b6001600160a01b0316816001600160a01b0316837f2f8788117e7eff1d82e926ec794901d17c78024a50270940304540a733656f0d60405160405180910390a45050565b610ff98282610538565b1561037b576000828152602081815260408083206001600160a01b0385168085529252808320805460ff1916905551339285917ff6391f5c32d9c69d2a47ea670b442974b53935d1edc7fd64eb21e047a839171b9190a45050565b6002600154036110a65760405162461bcd60e51b815260206004820152601f60248201527f5265656e7472616e637947756172643a207265656e7472616e742063616c6c00604482015260640161044c565b6002600155565b6110b78282610538565b61037b576110c481611106565b6110cf836020611118565b6040516020016110e0929190611685565b60408051601f198184030181529082905262461bcd60e51b825261044c916004016116fa565b60606103b06001600160a01b03831660145b6060600061112783600261170d565b611132906002611672565b67ffffffffffffffff81111561114a5761114a61154c565b6040519080825280601f01601f191660200182016040528015611174576020820181803683370190505b509050600360fc1b8160008151811061118f5761118f611724565b60200101906001600160f81b031916908160001a905350600f60fb1b816001815181106111be576111be611724565b60200101906001600160f81b031916908160001a90535060006111e284600261170d565b6111ed906001611672565b90505b6001811115611265576f181899199a1a9b1b9c1cb0b131b232b360811b85600f166010811061122157611221611724565b1a60f81b82828151811061123757611237611724565b60200101906001600160f81b031916908160001a90535060049490941c9361125e8161173a565b90506111f0565b5083156108395760405162461bcd60e51b815260206004820181905260248201527f537472696e67733a20686578206c656e67746820696e73756666696369656e74604482015260640161044c565b80356001600160a01b03811681146112cb57600080fd5b919050565b6000602082840312156112e257600080fd5b610839826112b4565b6000602082840312156112fd57600080fd5b81356001600160e01b03198116811461083957600080fd5b60006020828403121561132757600080fd5b5035919050565b6000806040838503121561134157600080fd5b82359150611351602084016112b4565b90509250929050565b60005b8381101561137557818101518382015260200161135d565b50506000910152565b6000815180845261139681602086016020860161135a565b601f01601f19169290920160200192915050565b87815260018060a01b0387166020820152856040820152846060820152831515608082015282151560a082015260e060c082015260006113ed60e083018461137e565b9998505050505050505050565b60008060006040848603121561140f57600080fd5b83359250602084013567ffffffffffffffff8082111561142e57600080fd5b818601915086601f83011261144257600080fd5b81358181111561145157600080fd5b87602082850101111561146357600080fd5b6020830194508093505050509250925092565b8015158114610a6b57600080fd5b60008060006060848603121561149957600080fd5b8335925060208401356114ab81611476565b915060408401356114bb81611476565b809150509250925092565b600181811c908216806114da57607f821691505b6020821081036114fa57634e487b7160e01b600052602260045260246000fd5b50919050565b60006020828403121561151257600080fd5b815161083981611476565b634e487b7160e01b600052601160045260246000fd5b6000600182016115455761154561151d565b5060010190565b634e487b7160e01b600052604160045260246000fd5b601f8211156103db576000816000526020600020601f850160051c8101602086101561158b5750805b601f850160051c820191505b818110156115aa57828155600101611597565b505050505050565b815167ffffffffffffffff8111156115cc576115cc61154c565b6115e0816115da84546114c6565b84611562565b602080601f83116001811461161557600084156115fd5750858301515b600019600386901b1c1916600185901b1785556115aa565b600085815260208120601f198616915b8281101561164457888601518255948401946001909101908401611625565b50858210156116625787850151600019600388901b60f8161c191681555b5050505050600190811b01905550565b808201808211156103b0576103b061151d565b7f416363657373436f6e74726f6c3a206163636f756e74200000000000000000008152600083516116bd81601785016020880161135a565b7001034b99036b4b9b9b4b733903937b6329607d1b60179184019182015283516116ee81602884016020880161135a565b01602801949350505050565b602081526000610839602083018461137e565b80820281158282048414176103b0576103b061151d565b634e487b7160e01b600052603260045260246000fd5b6000816117495761174961151d565b50600019019056fea26469706673582212206d96c7b49daff4f33db29a823ea417a1f06ee558a55cef93a5b689701d2663c764736f6c63430008180033",
  "linkReferences": {},
  "deployedLinkReferences": {}
}