{
  "_format": "hh-sol-artifact-1",
  "contractName": "VotingPoints",
  "sourceName": "contracts/governance/VotingPoints.sol",
  "abi": [
    {
      "inputs": [
        {
          "internalType": "address",
          "name": "didRegistry_",
          "type": "address"
        },
        {
          "internalType": "uint256",
          "name": "epochDuration_",
          "type": "uint256"
        },
        {
          "internalType": "address",
          "name": "admin",
          "type": "address"
        }
      ],
      "stateMutability": "nonpayable",
      "type": "constructor"
    },
    {
      "anonymous": false,
      "inputs": [
        {
          "indexed": false,
          "internalType": "uint256",
          "name": "newEpoch",
          "type": "uint256"
        },
        {
          "indexed": false,
          "internalType": "uint256",
          "name": "startTime",
          "type": "uint256"
        }
      ],
      "name": "EpochAdvanced",
      "type": "event"
    },
    {
      "anonymous": false,
      "inputs": [
        {
          "indexed": true,
          "internalType": "address",
          "name": "did",
          "type": "address"
        },
        {
          "indexed": false,
          "internalType": "uint256",
          "name": "epoch",
          "type": "uint256"
        },
        {
          "indexed": false,
          "internalType": "uint256",
          "name": "votes",
          "type": "uint256"
        },
        {
          "indexed": false,
          "internalType": "uint256",
          "name": "cost",
          "type": "uint256"
        }
      ],
      "name": "PointsSpent",
      "type": "event"
    },
    {
      "anonymous": false,
      "inputs": [
        {
          "indexed": true,
          "internalType": "bytes32",
          "name": "role",
          "type": "bytes32"
        },
        {
          "indexed": true,
          "internalType": "bytes32",
          "name": "previousAdminRole",
          "type": "bytes32"
        },
        {
          "indexed": true,
          "internalType": "bytes32",
          "name": "newAdminRole",
          "type": "bytes32"
        }
      ],
      "name": "RoleAdminChanged",
      "type": "event"
    },
    {
      "anonymous": false,
      "inputs": [
        {
          "indexed": true,
          "internalType": "bytes32",
          "name": "role",
          "type": "bytes32"
        },
        {
          "indexed": true,
          "internalType": "address",
          "name": "account",
          "type": "address"
        },
        {
          "indexed": true,
          "internalType": "address",
          "name": "sender",
          "type": "address"
        }
      ],
      "name": "RoleGranted",
      "type": "event"
    },
    {
      "anonymous": false,
      "inputs": [
        {
          "indexed": true,
          "internalType": "bytes32",
          "name": "role",
          "type": "bytes32"
        },
        {
          "indexed": true,
          "internalType": "address",
          "name": "account",
          "type": "address"
        },
        {
          "indexed": true,
          "internalType": "address",
          "name": "sender",
          "type": "address"
        }
      ],
      "name": "RoleRevoked",
      "type": "event"
    },
    {
      "inputs": [],
      "name": "DEFAULT_ADMIN_ROLE",
      "outputs": [
        {
          "internalType": "bytes32",
          "name": "",
          "type": "bytes32"
        }
      ],
      "stateMutability": "view",
      "type": "function"
    },
    {
      "inputs": [],
      "name": "GOVERNOR_ROLE",
      "outputs": [
        {
          "internalType": "bytes32",
          "name": "",
          "type": "bytes32"
        }
      ],
      "stateMutability": "view",
      "type": "function"
    },
    {
      "inputs": [],
      "name": "POINTS_PER_EPOCH",
      "outputs": [
        {
          "internalType": "uint256",
          "name": "",
          "type": "uint256"
        }
      ],
      "stateMutability": "view",
      "type": "function"
    },
    {
      "inputs": [],
      "name": "currentEpoch",
      "outputs": [
        {
          "internalType": "uint256",
          "name": "",
          "type": "uint256"
        }
      ],
      "stateMutability": "view",
      "type": "function"
    },
    {
      "inputs": [],
      "name": "didRegistry",
      "outputs": [
        {
          "internalType": "contract DIDRegistry",
          "name": "",
          "type": "address"
        }
      ],
      "stateMutability": "view",
      "type": "function"
    },
    {
      "inputs": [],
      "name": "epochDuration",
      "outputs": [
        {
          "internalType": "uint256",
          "name": "",
          "type": "uint256"
        }
      ],
      "stateMutability": "view",
      "type": "function"
    },
    {
      "inputs": [],
      "name": "epochStart",
      "outputs": [
        {
          "internalType": "uint256",
          "name": "",
          "type": "uint256"
        }
      ],
      "stateMutability": "view",
      "type": "function"
    },
    {
      "inputs": [
        {
          "internalType": "bytes32",
          "name": "role",
          "type": "bytes32"
        }
      ],
      "name": "getRoleAdmin",
      "outputs": [
        {
          "internalType": "bytes32",
          "name": "",
          "type": "bytes32"
        }
      ],
      "stateMutability": "view",
      "type": "function"
    },
    {
      "inputs": [
        {
          "internalType": "bytes32",
          "name": "role",
          "type": "bytes32"
        },
        {
          "internalType": "address",
          "name": "account",
          "type": "address"
        }
      ],
      "name": "grantRole",
      "outputs": [],
      "stateMutability": "nonpayable",
      "type": "function"
    },
    {
      "inputs": [
        {
          "internalType": "bytes32",
          "name": "role",
          "type": "bytes32"
        },
        {
          "internalType": "address",
          "name": "account",
          "type": "address"
        }
      ],
      "name": "hasRole",
      "outputs": [
        {
          "internalType": "bool",
          "name": "",
          "type": "bool"
        }
      ],
      "stateMutability": "view",
      "type": "function"
    },
    {
      "inputs": [
        {
          "internalType": "address",
          "name": "did",
          "type": "address"
        }
      ],
      "name": "pointsAvailable",
      "outputs": [
        {
          "internalType": "uint256",
          "name": "",
          "type": "uint256"
        }
      ],
      "stateMutability": "view",
      "type": "function"
    },
    {
      "inputs": [
        {
          "internalType": "uint256",
          "name": "",
          "type": "uint256"
        },
        {
          "internalType": "address",
          "name": "",
          "type": "address"
        }
      ],
      "name": "pointsSpent",
      "outputs": [
        {
          "internalType": "uint256",
          "name": "",
          "type": "uint256"
        }
      ],
      "stateMutability": "view",
      "type": "function"
    },
    {
      "inputs": [
        {
          "internalType": "bytes32",
          "name": "role",
          "type": "bytes32"
        },
        {
          "internalType": "address",
          "name": "account",
          "type": "address"
        }
      ],
      "name": "renounceRole",
      "outputs": [],
      "stateMutability": "nonpayable",
      "type": "function"
    },
    {
      "inputs": [
        {
          "internalType": "bytes32",
          "name": "role",
          "type": "bytes32"
        },
        {
          "internalType": "address",
          "name": "account",
          "type": "address"
        }
      ],
      "name": "revokeRole",
      "outputs": [],
      "stateMutability": "nonpayable",
      "type": "function"
    },
    {
      "inputs": [
        {
          "internalType": "address",
          "name": "did",
          "type": "address"
        },
        {
          "internalType": "uint256",
          "name": "votes",
          "type": "uint256"
        }
      ],
      "name": "spendPoints",
      "outputs": [
        {
          "internalType": "uint256",
          "name": "cost",
          "type": "uint256"
        }
      ],
      "stateMutability": "nonpayable",
      "type": "function"
    },
    {
      "inputs": [
        {
          "internalType": "bytes4",
          "name": "interfaceId",
          "type": "bytes4"
        }
      ],
      "name": "supportsInterface",
      "outputs": [
        {
          "internalType": "bool",
          "name": "",
          "type": "bool"
        }
      ],
      "stateMutability": "view",
      "type": "function"
    }
  ],
  "bytecode": "0x60a060405234801561001057600080fd5b50604051610e85380380610e8583398101604081905261002f91610113565b6001600160a01b038316608052600182905542600255610050600082610058565b50505061014f565b6000828152602081815260408083206001600160a01b038516845290915290205460ff166100f3576000828152602081815260408083206001600160a01b03851684529091529020805460ff191660011790556100b23390565b6001600160a01b0316816001600160a01b0316837f2f8788117e7eff1d82e926ec794901d17c78024a50270940304540a733656f0d60405160405180910390a45b5050565b80516001600160a01b038116811461010e57600080fd5b919050565b60008060006060848603121561012857600080fd5b610131846100f7565b925060208401519150610146604085016100f7565b90509250925092565b608051610d0d6101786000396000818161019d015281816103de015261063d0152610d0d6000f3fe608060405234801561001057600080fd5b50600436106101005760003560e01c8063918d242811610097578063ccc5749011610066578063ccc5749014610238578063cdc9c8a21461025f578063d547741f14610272578063f5e2e6ac1461028557600080fd5b8063918d2428146101df57806391d14854146101f2578063a217fddf14610205578063b02e3e391461020d57600080fd5b806336568abe116100d357806336568abe1461017c5780634ff0876a1461018f578063577f9fb11461019857806376671808146101d757600080fd5b806301ffc9a71461010557806315e5a1e51461012d578063248a9ca3146101445780632f2ff15d14610167575b600080fd5b610118610113366004610a61565b61028d565b60405190151581526020015b60405180910390f35b61013660025481565b604051908152602001610124565b610136610152366004610a8b565b60009081526020819052604090206001015490565b61017a610175366004610ac0565b6102c4565b005b61017a61018a366004610ac0565b6102ee565b61013660015481565b6101bf7f000000000000000000000000000000000000000000000000000000000000000081565b6040516001600160a01b039091168152602001610124565b610136610371565b6101366101ed366004610aec565b610393565b610118610200366004610ac0565b6105f2565b610136600081565b61013661021b366004610ac0565b600360209081526000928352604080842090915290825290205481565b6101367f7935bd0ae54bc31f548c14dba4d37c5c64b3f8ca900cb468fb8abd54d5894f5581565b61013661026d366004610b16565b61061b565b61017a610280366004610ac0565b610738565b610136606481565b60006001600160e01b03198216637965db0b60e01b14806102be57506301ffc9a760e01b6001600160e01b03198316145b92915050565b6000828152602081905260409020600101546102df8161075d565b6102e9838361076a565b505050565b6001600160a01b03811633146103635760405162461bcd60e51b815260206004820152602f60248201527f416363657373436f6e74726f6c3a2063616e206f6e6c792072656e6f756e636560448201526e103937b632b9903337b91039b2b63360891b60648201526084015b60405180910390fd5b61036d82826107ee565b5050565b6000600154600254426103849190610b47565b61038e9190610b5a565b905090565b60007f7935bd0ae54bc31f548c14dba4d37c5c64b3f8ca900cb468fb8abd54d5894f556103bf8161075d565b604051638b1b925f60e01b81526001600160a01b0385811660048301527f00000000000000000000000000000000000000000000000000000000000000001690638b1b925f90602401602060405180830381865afa158015610425573d6000803e3d6000fd5b505050506040513d601f19601f820116820180604052508101906104499190610b7c565b6104835760405162461bcd60e51b815260206004820152600b60248201526a125b9d985b1a590811125160aa1b604482015260640161035a565b600083116104cc5760405162461bcd60e51b8152602060048201526016602482015275566f746573206d75737420626520706f73697469766560501b604482015260640161035a565b6104d68380610b9e565b915060006104e2610371565b60008181526003602090815260408083206001600160a01b038a16845290915281205491925090610514906064610b47565b9050808411156105665760405162461bcd60e51b815260206004820152601a60248201527f496e73756666696369656e7420766f74696e6720706f696e7473000000000000604482015260640161035a565b60008281526003602090815260408083206001600160a01b038a16845290915281208054869290610598908490610bb5565b909155505060408051838152602081018790529081018590526001600160a01b038716907f9260974536f5b8348cdd88fa0a5eefe29526be47a3b3b19d4eeab0c6928a3bee9060600160405180910390a250505092915050565b6000918252602082815260408084206001600160a01b0393909316845291905290205460ff1690565b604051638b1b925f60e01b81526001600160a01b0382811660048301526000917f000000000000000000000000000000000000000000000000000000000000000090911690638b1b925f90602401602060405180830381865afa158015610686573d6000803e3d6000fd5b505050506040513d601f19601f820116820180604052508101906106aa9190610b7c565b6106e45760405162461bcd60e51b815260206004820152600b60248201526a125b9d985b1a590811125160aa1b604482015260640161035a565b60006106ee610371565b60008181526003602090815260408083206001600160a01b0388168452909152902054909150606481101561072d57610728816064610b47565b610730565b60005b949350505050565b6000828152602081905260409020600101546107538161075d565b6102e983836107ee565b6107678133610853565b50565b61077482826105f2565b61036d576000828152602081815260408083206001600160a01b03851684529091529020805460ff191660011790556107aa3390565b6001600160a01b0316816001600160a01b0316837f2f8788117e7eff1d82e926ec794901d17c78024a50270940304540a733656f0d60405160405180910390a45050565b6107f882826105f2565b1561036d576000828152602081815260408083206001600160a01b0385168085529252808320805460ff1916905551339285917ff6391f5c32d9c69d2a47ea670b442974b53935d1edc7fd64eb21e047a839171b9190a45050565b61085d82826105f2565b61036d5761086a816108ac565b6108758360206108be565b604051602001610886929190610bec565b60408051601f198184030181529082905262461bcd60e51b825261035a91600401610c61565b60606102be6001600160a01b03831660145b606060006108cd836002610b9e565b6108d8906002610bb5565b67ffffffffffffffff8111156108f0576108f0610c94565b6040519080825280601f01601f19166020018201604052801561091a576020820181803683370190505b509050600360fc1b8160008151811061093557610935610caa565b60200101906001600160f81b031916908160001a905350600f60fb1b8160018151811061096457610964610caa565b60200101906001600160f81b031916908160001a9053506000610988846002610b9e565b610993906001610bb5565b90505b6001811115610a0b576f181899199a1a9b1b9c1cb0b131b232b360811b85600f16601081106109c7576109c7610caa565b1a60f81b8282815181106109dd576109dd610caa565b60200101906001600160f81b031916908160001a90535060049490941c93610a0481610cc0565b9050610996565b508315610a5a5760405162461bcd60e51b815260206004820181905260248201527f537472696e67733a20686578206c656e67746820696e73756666696369656e74604482015260640161035a565b9392505050565b600060208284031215610a7357600080fd5b81356001600160e01b031981168114610a5a57600080fd5b600060208284031215610a9d57600080fd5b5035919050565b80356001600160a01b0381168114610abb57600080fd5b919050565b60008060408385031215610ad357600080fd5b82359150610ae360208401610aa4565b90509250929050565b60008060408385031215610aff57600080fd5b610b0883610aa4565b946020939093013593505050565b600060208284031215610b2857600080fd5b610a5a82610aa4565b634e487b7160e01b600052601160045260246000fd5b818103818111156102be576102be610b31565b600082610b7757634e487b7160e01b600052601260045260246000fd5b500490565b600060208284031215610b8e57600080fd5b81518015158114610a5a57600080fd5b80820281158282048414176102be576102be610b31565b808201808211156102be576102be610b31565b60005b83811015610be3578181015183820152602001610bcb565b50506000910152565b7f416363657373436f6e74726f6c3a206163636f756e7420000000000000000000815260008351610c24816017850160208801610bc8565b7001034b99036b4b9b9b4b733903937b6329607d1b6017918401918201528351610c55816028840160208801610bc8565b01602801949350505050565b6020815260008251806020840152610c80816040850160208701610bc8565b601f01601f19169190910160400192915050565b634e487b7160e01b600052604160045260246000fd5b634e487b7160e01b600052603260045260246000fd5b600081610ccf57610ccf610b31565b50600019019056fea26469706673582212207d6c3ce155aed139ce850477aa5db59967ecf7e8149e7c73fc322c5a27f0f00164736f6c63430008180033",
  "linkReferences": {},
  "deployedLinkReferences": {}
}